:020000040800F2
:10000000C0060020DD010008E5010008E701000846
:10001000E9010008EB010008ED0100080000000004
:10002000000000000000000000000000EF010008D8
:10003000F101000800000000F3010008F5010008CC
:10004000F7010008F7010008F7010008F7010008B0
:10005000F7010008F7010008F7010008F7010008A0
:10006000F7010008F7010008F7010008F701000890
:10007000F7010008F7010008F7010008F701000880
:10008000F7010008F7010008F70100080000000070
:10009000000000000000000000000000F701000860
:1000A000F7010008F7010008F7010008F701000850
:1000B000F7010008F7010008F7010008F701000840
:1000C000F7010008F7010008F7010008F701000830
:1000D000F7010008F7010008F7010008F701000820
:1000E000F7010008F7010008F70100080000000010
:1000F0000000000000000000000000000000000000
:1001000000000000000000000000000000000000EF
:100110000000000000000000F7010008F7010008DF
:1001200000F002F800F04AF80AA090E8000C8244BF
:100130008344AAF10107DA4501D100F03FF8AFF29C
:10014000090EBAE80F0013F0010F18BFFB1A43F0B5
:10015000010318473828000058280000103A24BF2F
:1001600078C878C1FAD8520724BF30C830C144BF1C
:1001700004680C607047000000230024002500265E
:10018000103A28BF78C1FBD8520728BF30C148BFFA
:100190000B607047662902F0A383642900F0528047
:1001A000002070471FB500F0AFFB040000200021C5
:1001B00001F0D0FEE0601FBD10B510BD00F0A4FC42
:1001C0001146FFF7EFFF01F09BFD00F0C2FC03B406
:1001D000FFF7F2FF03BC00F005FD0000094880476F
:1001E00009480047FEE7FEE7FEE7FEE7FEE7FEE719
:1001F000FEE7FEE7FEE7FEE704480549054A064B31
:1002000070470000C519000821010008C000002047
:10021000C0060020C0020020C00200200FB41CB5A0
:10022000074B06AA7B4469460090059800F053FBF3
:100230000020694600F062FB1CBC5DF814FB000066
:10024000D50600002DE9F041064600241068752906
:10025000314616A510D0AFF30080002802DA4042E4
:1002600013A507E031688A0701D512A502E0490706
:1002700004D511A5012401E0AFF3008000210A227A
:1002800006F1240709E0B0FBF2FCB0FBF2F302FB3D
:100290001C00303078541846491C0028F3D12346FE
:1002A0002A463046BDE8F04100F0A7B80000000043
:1002B0002D0000002B000000200000002DE9F05F61
:1002C000894604464FF0000ADFF824B1FB44C0F829
:1002D00020A02046E168884700287DD0252806D048
:1002E000D4E901219047206A401C2062F1E70025F3
:1002F0005F462046E16888472028064607DB312E06
:1003000005D2B81910F8200C08B10543F1E7A80789
:1003100001D525F00405C4F81CA00027C4F818A0D6
:100320002A2E09D0304601F00FFC38B304EB8708C1
:10033000303EC8F8186019E059F8041B204604EB59
:1003400087029161E1688847012F064618D1E0696C
:10035000002820DA25F020051DE0D8F8180000EB71
:10036000800006EB40003038C8F818002046E168ED
:100370008847064601F0E8FB0028EED1012F0AD09D
:100380002E2E08D12046E16888477F1C0646022FA2
:1003900045F02005C4DBA069002803DA404245F09F
:1003A0000105A061E80701D025F01005A6B1A6F16E
:1003B0004100192802D8203645F400654A463146E6
:1003C000204625604D46FFF7E5FE60B1012807D0C5
:1003D000ED1D25F0070000E007E000F1080978E7CF
:1003E00005F1040975E730467AE7206ABDE8F09F19
:1003F000142600007047704770472DE9F0470D46FE
:1004000099469246044600F124080168880604D5FE
:10041000E06921F01001216000E00120A84201DD27
:10042000471B00E00027A1697A1902EB0900081AAE
:10043000A0612078C00602D42046AFF300800026D9
:1004400008E0D4E901211AF806009047206A401C10
:10045000761C20624E45F4DB2078C0060AD5204683
:10046000AFF3008006E0D4E9012130209047206AF4
:10047000401C2062381EA7F10107F4DC07E0D4E934
:10048000012118F805009047206A401C2062281EB0
:10049000A5F10105F3DC2046AFF3008020780006CB
:1004A00002D50220BDE8F0870120FBE770472DE967
:1004B000FF4F0C461E464FF0FF378BB0D2E90001CC
:1004C000DDF860800A908A46C1F30A5505B93D46B9
:1004D000002108464FF00000BAF1000F00F4400080
:1004E00005DA00EB80004FF4400101EA50004FEACA
:1004F0009059B9F1010F00DDB9460A9850EA4A0057
:100500000ED044F61050A5F2FF3545432F14B8F134
:10051000000F1ED07542291E1EDDC9F100021CE02D
:10052000B8F1010F4FF0000001D0302103E0F24399
:1005300005E02154401CB042FBDB30460022002184
:1005400021540B99C1F80880C1E900200FB0BDE823
:10055000F08FBD1B6D1CDEE74A4600DA694206A833
:1005600000F05CFA06AB93E8070003AB83E80700F2
:1005700050460A9900F03DFB8DE80700A0F50050B9
:100580001F3800900398002D0ADD42F21F014A46F1
:100590000844002303A90390684600F0A6FD09E083
:1005A000A0F500504A461F38002303A9039068466F
:1005B00000F0B0FD8DE807000004000C03D04FF000
:1005C000FF30410800E01046B8F1000F03D00022D0
:1005D000009215461EE0751E05D400F099F93032E0
:1005E00062556D1EF9D5B3460122084302D00022A0
:1005F0007F1C04E02078302801D100227F1E002AD1
:10060000099784D01DE0112D07DA00F081F930320E
:1006100062556D1C50EA0102F5D1084302D00098E2
:10062000C8B10EE00021681E05E0235C625C6354E3
:100630002254401E491C8142F7DBAB46A81B401EDA
:100640000990002004F80B000B98099AC0F8088064
:10065000C0E9002B7AE711264FF0000857E72DE993
:10066000F04F88460446D21D22F0070191B0D1E92F
:100670000001CDE90A0101F053FA02460B98C00FC0
:1006800001D02D2007E02068810701D52B2002E052
:10069000202101EAC000032A099001D0072A05DBC6
:1006A00003464146204600F079F90BE120788006A8
:1006B00001D5E06900E00620B8F1650F814606D05B
:1006C000B8F1660F18D0B8F1670F70D131E0002093
:1006D000B9F1110F009001DB112301E009F10103D1
:1006E0000AAA01A90CA8FFF7E2FEDDE90C700026BA
:1006F00009F10105834647E001204B4600904FF089
:1007000000470AAA01A90CA8FFF7D1FEDDE90DB048
:100710000C995D46002610B909F101000D18B9EBDE
:10072000050003D4C0F1FF3609F10105A5EB09006E
:100730002BE0B9F1010F01DA4FF001090020B9F106
:10074000110F0090484601DD112300E003460AAA7C
:1007500001A90CA8FFF7ABFEDDE90C704D460026A1
:100760008346207800070AD4AB4500DA5D4601A82D
:10077000012D04DD411911F8011C302907D04F4526
:1007800002DA17F1040F04DA012082460FE06D1E31
:10079000EEE7002F02DCED1B3E4403E0781CA8428C
:1007A00000DD7D1CB81B00F1010A4FF000472078E6
:1007B000000703D4AA4501DB4FF0FF3A0021B7F14F
:1007C000004F0DF143088DF8431024D002202B2355
:1007D000002F01DA7F422D230A21021EA0F1010021
:1007E00000DC5FB197FBF1FC97FBF1F201FB1C7C95
:1007F00017460CF1300C08F801CDEEE7A8F1010026
:1008000003702188090501D5452100E06521A0F18B
:10081000010800F8011C09980FA9A1EB0807FF1DAA
:1008200000B10120411901EBEA70A1693844081AAE
:10083000401EA0612078C00602D42046AFF300809D
:10084000099828B1D4E901219047206A401C206210
:100850002078C00622D52046AFF300801EE0002E8F
:1008600004DBB34502DD01A8805D00E03020D4E95F
:1008700001219047206A401C2062761CAAF10100E9
:100880005FEA000A0AD100F03FF8C0680168405CE6
:10089000D4E901219047206A401C2062281EA5F15E
:1008A0000105DCDC07E0D4E9012118F8010B9047D1
:1008B000206A401C2062381EA7F10107F3DC2046A5
:1008C000AFF30080032011B041E6000001694A1C2B
:1008D00002610878704700B58FB0CDE90131002181
:1008E000059105497944CDE9031011466846FFF7A3
:1008F000E5FC0FB000BD0000E5FFFFFF0A6802F84D
:10090000010B0A6070470000004870477C0000201F
:1009100030B5B0F10A024FEA900E71F100034EEAD1
:10092000817EB0EB0E0061EB91014FEA101E4EEAA2
:10093000017E10EB0E0041EB11114FEA102E4EEA32
:10094000016E10EB0E0041EB11214FEA104E4EEA02
:10095000014E10EB0E0041EB1141401841F1000136
:100960004FEAD00040EA41704FEAD10110EB800518
:100970004FEA810444EA907444EB01046D1944EB9E
:100980000404521BA3414FF0000348BF0A3200D5B4
:1009900030BD401C41F1000130BD00002DE9F041A7
:1009A0001F46044603260168072A01F4006004DBA1
:1009B00008B116A505E016A503E008B115A500E0ED
:1009C00015A521F010002060A069C01EA0610FB124
:1009D000401EA0612046AFF300804FB1D4E9012151
:1009E00038469047206A401C2062C01C206206E006
:1009F000206AFAE7D4E9012115F8010B9047761E29
:100A0000F8D22046AFF30080BDE8F0814E414E00A1
:100A10006E616E00494E4600696E66002DE9F04732
:100A2000814616468AB0354878440DC88DE80D00D9
:100A300032487844801C03AC0DC884E80D0041F6B0
:100A40009B300844372190FBF1F290FBF1F5A5F1C2
:100A5000800501FB12041B3C02D56442012000E02A
:100A60000020DFF898A080460027FA44AAF1BE0AC9
:100A70000EE0E0070AD03246684607EB4701012343
:100A80000AEB810100F046FB8DE8070064107F1C33
:100A9000002CEED1194F7F44AE3F19E0E80715D086
:100AA00007EB04100DF1180A90E80E008AE80E001A
:100AB000C068F04201D1981908903246012306A976
:100AC00003A800F027FB03AB83E807006D10641C4C
:100AD000002DE3D14FF0010332466946B8F1000F13
:100AE00003A802D000F001FB01E000F013FBC9E90C
:100AF0000001C9F808200AB0BDE8F087481F0000CF
:100B0000004870475C0000207546FFF7F9FFAE46CD
:100B100005006946534620F00700854618B020B509
:100B2000FFF76AFBBDE820404FF000064FF00007DA
:100B30004FF000084FF0000B21F00701AC46ACE885
:100B4000C009ACE8C009ACE8C009ACE8C0098D46F2
:100B5000704710B50446AFF300802046BDE8104052
:100B6000FFF735BB4FF0013C50F8042B51F8043B24
:100B70009A4221D1A2EB0C03934313EACC1317D171
:100B800050F8042B51F8043B9A4215D1A2EB0C0308
:100B9000934313EACC130BD150F8042B51F8043BC8
:100BA0009A4209D1A2EB0C03934313EACC13DBD096
:100BB0004FF00000704700BFD01A01BAB1FA81F1BE
:100BC00001F0180122FA01F0CB40C1F12001DBB2A3
:100BD000C0B2C01A2CFA01F3D11A914311EAC31121
:100BE000E6D1704701491820ABBEFEE7260002009F
:100BF00070475FEA400C08BF91F0000F4FEA8C236A
:100C00004FEAC12243EA51514FEA1C5018BF00F588
:100C1000F0404FEA300018BF41F000415FEA6C5CE1
:100C200000F02980BCF1FF3F08BF40F080407047D2
:100C3000130C06BF12044FF0100C4FF0000C130EF3
:100C400004BF12020CF1080C130F04BF12010CF1C7
:100C5000040C930F04BF92000CF1020CD30F04BFDD
:100C600052000CF1010C11464FF00002A0F11F00E0
:100C7000A0EB0C00704711F0004F08BF704731F037
:100C800000413FF4D5AF0B0C06BF09044FF0100C28
:100C90004FF0000C0B0E04BF09020CF1080C0B0FF7
:100CA00004BF09010CF1040C8B0F04BF89000CF187
:100CB000020CCB0F04BF49000CF1010CCCF1200356
:100CC000A0EB0C0022FA03F302FA0CF241EA030152
:100CD00000F10100704720F07F4C80EA030023F010
:100CE0007F47ACEB070303F57C5300F0004003F1B2
:100CF000FF032DE980494FEA154B09B44FEA14432D
:100D000025EA0B4E24EA03480FF2042606EB1327CC
:100D100049083E785FEA320203FB0667C7F5000721
:100D200007FB06F64FEA54374FEAD64606F10206AD
:100D300007FB066CCCF1005C4FEA1C472CEA074C21
:100D400007FB06F40CFB06F504EB15464FEA961676
:100D500034BF00204FF000404FEAD13706FB07FCBC
:100D60004FEA1C4C0CFB0BF7D21B03FB0CF761EB9F
:100D700007010CFB0EF7B0EB074072EB17420CFBC0
:100D800008F734BFA2EB0742B2EB074261EB174111
:100D90004FEA0C444FEA910706FB07FC4FEA1C4C54
:100DA0000CFB0BF7B0EBC74072EB573203FB0CF7B1
:100DB00034BFA2EBC742B2EBC74261EB57310CFB29
:100DC0000EF7B0EBC70072EB57720CFB08F734BF9D
:100DD000A2EBC702B2EBC70261EB5771039F4FEA68
:100DE000816141EA921104EBCC044FEAD1374FEA1A
:100DF000826206FB07FC42EA90124FEA80604FEAEB
:100E00001C4C0CFB0BF7D21B03FB0CF761EB07012F
:100E10000CFB0EF7B0EB074072EB17420CFB08F728
:100E200034BFA2EB0742B2EB074261EB17414FEA36
:100E30008C554FEA910704EB9C2406FB07FC4FEA14
:100E40001C4C0CFB0BF7B0EBC74072EB573203FBAB
:100E50000CF734BFA2EBC742B2EBC74261EB57318C
:100E60000CFB0EF7B0EBC70072EB57720CFB08F7E8
:100E700034BFA2EBC702B2EBC70261EB577115EBAF
:100E80004C254FEA816141EA92114FEA82624FEAB2
:100E9000D13742EA901206FB07FC44F100044FEA06
:100EA00080604FEA1C4C0CFB0BF7D21B03FB0CF7CA
:100EB00061EB07010CFB0EF7B0EB074072EB17423A
:100EC0000CFB08F734BFA2EB0742B2EB074261EB21
:100ED000174115EB1C154FEA813141EA92414FEA67
:100EE000823242EA90424FEA80304FEA0C7644F177
:100EF000000448EA03434EEA0B484FF0000EB2EB01
:100F0000080C71EB030724BF624639464EEB0E0E08
:100F10004FF0000B0018524149414BEB0B0BB2EB69
:100F2000080C71EB03077BF1000B24BF62463946C6
:100F30004EEB0E0E4FF0000B0018524149414BEBA7
:100F40000B0BB2EB080C71EB03077BF1000B24BF1A
:100F5000624639464EEB0E0E51EA020718BF46F0C4
:100F6000010616EB0E7655F1000254F1000103D58F
:100F7000BDE88901BDE80088BDE88901BDE80048F9
:100F8000B619524141EB0101A3F101037047808082
:100F90007F7E7D7C7B7A79787776767574737271D3
:100FA00071706F6E6E6D6C6C6B6A6A69686867668B
:100FB00066656464636362616160605F5F5E5E5D1D
:100FC0005D5C5C5B5B5A5A59595858575756565591
:100FD00055555454535352525251515050504F4FF3
:100FE0004F4E4E4D4D4D4C4C4C4B4B4B4A4A4A4943
:100FF0004949484848474747474646464545454486
:101000004444444343434342424242414141002B12
:101010009C4630D477002BD01CB54FEA370703B479
:101020004FF010004FF01001BAF1000F06D0BCF1E4
:10103000000FDCBF40F0080040F008014FF0000056
:101040000FBCBDE810400BF1010BBBF1010F08BF55
:101050005FEA170722BF12F1010211F101014FF0FF
:10106000004143F1000300F0004043EA00007047F4
:10107000F9D35708D0E746EA064613F1400F4FEA86
:1010800016461FDD13F1200FDFBF16430A4600216D
:1010900020335B42BED0C3F1200746EA064602FA7F
:1010A00007F74FEA164646EA0706C3F1200722FA79
:1010B00003F201FA07F721FA03F14FF0000342EAC5
:1010C0000702A7E746EA020646EA06464FEA164640
:1010D00046EA0106BCBF46EA0646360C4FF000035E
:1010E0004FF000024FF0000194E72DE9804C9A4642
:1010F000934670B491E8380007C831EA400C48BF05
:1011000034EA430C03D5FFF7E6FDFFF780FFF0BCA0
:10111000BDE8008C2DE9804C9A46934670B491E866
:10112000380007C810F0804F08BF13F0804F03D17C
:1011300000F005F8FFF76BFFF0BCBDE8008C20F075
:101140007F4780EA030023F07F4C07EB0C03A3F5F5
:101150007C5300F00040A3F1FE0392F0000F00F07A
:10116000B38095F0000F00F077802DE901494FEA38
:1011700011404FEA144621EA004800FB06FC24EA2D
:10118000064708FB06F607FB08F800FB07F718EB15
:1011900006484CEB164C4FEA124B18EB07484FEA47
:1011A00015464CEB174022EA0B4E0BFB06FC25EADA
:1011B00006470EFB06F607FB0EFE0BFB07F71EEBC2
:1011C000064E4CEB164C4FF000061EEB074E4CEB58
:1011D000174B18EB0B0840F1000018EB0E0B58EB07
:1011E000000840F100008F1A4FF000013CBFC943D6
:1011F000661B14BFB5EB040C00213CBFC943F61BB2
:101200004FEA17444EEA8E0E27EA04454FEA1C4780
:1012100004FB07622CEA074C05FB07F70CFB05F6FD
:1012200004FB0CFC16EB074642EB174216EB0C4690
:1012300042EB1C421BEB060658EB0202414146EA18
:101240009E0601D5BDE80189B619524141EB010165
:10125000A3F10103BDE801894FEA14454FEA1147A4
:1012600024EA054621EA074C05FB07F406FB07F7CD
:101270000CFB06F105FB0CFC11EB074144EB17449A
:101280004FEA124711EB0C4144EB1C4422EA074C95
:1012900005FB07F206FB07F70CFB06F605FB0CFC4B
:1012A00016EB074642EB174216EB0C4642EB1C4589
:1012B0006A1854F1000148BF7047B619524141EB1A
:1012C0000101A3F10103704795F0000F37D04FEAF9
:1012D00011424FEA144721EA024624EA074C02FB76
:1012E00007F106FB07F70CFB06F402FB0CFC14EB02
:1012F000074441EB17414FEA154714EB0C4441EB0F
:101300001C4125EA074C02FB07F506FB07F70CFB1F
:1013100006F602FB0CFC16EB074645EB174516EBF1
:101320000C4645EB1C42121951F1000148BF7047B1
:10133000B619524141EB0101A3F1010370474FEA95
:1013400014454FEA114724EA054621EA074C05FBFC
:1013500007F106FB07F70CFB06F24FF0000605FB52
:101360000CFC12EB074241EB174112EB0C4251EB24
:101370001C4148BF7047921841EB0101A3F10103E2
:10138000704721B1826842F00102826003E0826806
:1013900022F001028260704721B1826842F48072BB
:1013A000826003E0826822F48072826070470146A6
:1013B00000208A6802F004020AB1012000E0002047
:1013C0007047014600208A6802F008020AB1012035
:1013D00000E000207047000030B5024600200023E6
:1013E00050680F4C20400D790C6844EA05242043D6
:1013F000506090680B4C2040D1E902542C434D7949
:1014000044EA450420439060D06A20F470000C7CCC
:10141000641EE4B2234340EA0350D06230BD0000B2
:10142000FFFEF0FFFDF7F1FFF0B504460D4600208A
:101430000021092D11DDE068A5F10A0606EB46073B
:10144000072606FA07F18843A5F10A0606EB4606C9
:1014500003FA06F10843E0600CE0206905EB45075C
:10146000072606FA07F1884305EB450603FA06F15D
:1014700008432061072A0FDA606B561E06EB8607C9
:101480001F2606FA07F18843561E06EB860605FA64
:1014900006F10843606322E00D2A0FDA206BD61FA5
:1014A00006EB86071F2606FA07F18843D61F06EBD0
:1014B000860605FA06F10843206310E0E06AA2F10F
:1014C0000D0606EB86071F2606FA07F18843A2F1F0
:1014D0000D0606EB860605FA06F10843E062F0BD4C
:1014E000816841F008018160704721B1826842F44F
:1014F000A002826003E0826822F4A002826070474A
:10150000816841F0040181607047000030B10749F3
:10151000096841F40001054A116005E003490968C2
:1015200021F40001014A11607047000008240140C5
:1015300021B1026842F00102026004E002684FF645
:10154000FE731A400260704701684FF6FE72114048
:1015500001600021016041608160C1604B498842A7
:1015600008D14A490839496841F00F01474A083A09
:1015700051608AE045491431884208D1434908390D
:10158000496841F0F001414A083A51607DE03F4925
:101590002831884208D13D490839496841F47061D1
:1015A0003A4A083A516070E038493C31884208D1E3
:1015B00036490839496841F47041344A083A516063
:1015C00063E032495031884208D1304908394968CE
:1015D00041F470212D4A083A516056E02B4964319C
:1015E000884208D129490839496841F47001274ADD
:1015F000083A516049E025497831884208D12349A9
:101600000839496841F07061204A083A51603CE06D
:101610001F49884206D1011F096841F00F01021FCE
:10162000116032E01A491431884208D11849091F63
:10163000096841F0F001164A121F116025E01449B3
:101640002831884208D11249091F096841F47061A4
:101650000F4A121F116018E00D493C31884208D131
:101660000B49091F096841F47041094A121F1160B2
:101670000BE007495031884207D10549091F096825
:1016800041F47021024A121F1160704708000240A5
:101690000804024010B50022026847F6F0739A432E
:1016A0000C6A8B6823430C6923434C6923438C6980
:1016B0002343CC6923434C6A23438C6A23431A4354
:1016C0000260CB6843600B6883604B68C36010BDE9
:1016D0002DE9F041024600250026002000230024C9
:1016E000002791F803C00CF00F0591F803C00CF02F
:1016F000100CBCF1000F03D091F802C04CEA0505B4
:1017000091F800C0BCF1000F31D0146800202BE02C
:101710004FF0010C0CFA00F3B1F800C00CEA03061C
:101720009E4220D183004FF00F0C0CFA03F7BC430C
:1017300005FA03FC4CEA040491F803C0BCF1280F3D
:1017400006D14FF0010C0CFA00FCC2F814C00AE0FC
:1017500091F803C0BCF1480F05D14FF0010C0CFA11
:1017600000FCC2F810C0401C0828D1D31460B1F8A6
:1017700000C0BCF1FF0F34DD546800202EE000F102
:10178000080C4FF0010808FA0CF3B1F800C00CEA9D
:1017900003069E4221D183004FF00F0C0CFA03F791
:1017A000BC4305FA03FC4CEA040491F803C0BCF105
:1017B000280F05D100F1080C08FA0CF8C2F81480C3
:1017C00091F803C0BCF1480F07D100F1080C4FF0AD
:1017D000010808FA0CF8C2F81080401C0828CED383
:1017E0005460BDE8F08141617047016170470000BD
:1017F00029B1064A52690243044B5A6104E0034A84
:1018000052698243014B5A61704700000010024048
:1018100029B1064A92690243044B9A6104E0034AE3
:1018200092698243014B9A617047000000100240A8
:1018300070B5002100230024002200252C4E76687C
:1018400006F00C0121B1042905D0082921D105E0B9
:10185000284E066020E0274E06601DE0244E766884
:1018600006F47013224E766806F48034022606EBE6
:1018700093431CB9204E5E43066009E01C4EF66A95
:1018800006F00F06751C1B4EB6FBF5F65E430660B0
:1018900002E0184E066000BF00BF154E766806F0E5
:1018A000F0010909154E725C0668D6404660104E7C
:1018B000766806F4E061090A104E725C4668D6400C
:1018C00086600B4E766806F46051C90A0B4E725C56
:1018D0004668D640C660064E766806F44041890BDD
:1018E000074E725CC668B6FBF2F6066170BD00007A
:1018F0000010024000127A0000093D00150000208F
:101900002500002010B500F001F810BD0CB5002036
:10191000019000902A48006840F48030284908600F
:1019200000BF2748006800F4003000900198401C78
:101930000190009818B90198B0F5A06FF1D1204836
:10194000006800F4003010B10120009001E0002098
:1019500000900098012831D1194840681849486022
:101960000846406848600846406848600846406845
:1019700020F47C1048600846406840F498104860A5
:101980000846006840F08070086000BF0C4800689E
:1019900000F000700028F9D00948406820F00300EA
:1019A000074948600846406840F00200486000BFB0
:1019B0000348406800F00C000828F9D10CBD000075
:1019C0000010024010B51448006840F001001249B0
:1019D000086008464068114908400F4948600846B9
:1019E00000680F4908400C4908600846006820F468
:1019F000802008600846406820F4FE0048604FF4EC
:101A00001F0088600020C862FFF77CFF4FF0006075
:101A10000449086010BD0000001002400000FFF8FB
:101A2000FFFFF6FE08ED00E021B1828942F400528A
:101A3000828104E082894DF6FF731A4082817047EB
:101A40002DE9F04786B005460E460024A24600BFA9
:101A5000A1460027B08900B100BF2F462C8A4CF662
:101A6000FF700440F08804432C82AC894EF6F310DA
:101A70000440B08831890843718908430443AC812C
:101A8000AC8A4FF6FF400440B0890443AC8201A801
:101A9000FFF7CEFE1F48874202D1DDF810A001E01B
:101AA000DDF80CA0A88900F4004040B10AEBCA00A0
:101AB00000EB0A1031684900B0FBF1F807E00AEBCF
:101AC000CA0000EB0A1031688900B0FBF1F864200D
:101AD000B8FBF0F004012009642101FB1089A889FA
:101AE00000F4004040B1322000EBC900B0FBF1F03F
:101AF00000F00700044308E0322000EB09106421E5
:101B0000B0FBF1F000F00F0004432C8106B0BDE8FB
:101B1000F087000000380140C1F30802828070475E
:101B2000490050EAC12018BF04204A0D18BF40F0F8
:101B3000010040F2FF72B2EB515F08BF40F00200BB
:101B4000012808BF0520704730380A2801D201203B
:101B5000704700207047000000B585B001214802A1
:101B6000FFF756FE01208DF80500002003904FF48A
:101B7000602002900020009003208DF810000120CA
:101B80008DF8040069461C48FFF726FC0523012256
:101B900000211948FFF748FC0623022201211648BC
:101BA000FFF742FC0723032210211348FFF73CFCF8
:101BB0000120FFF7ABFC01210F48FFF7E2FB0121F9
:101BC0000D48FFF7E9FB0C48FFF78AFC00BF0A4805
:101BD000FFF7F7FB0028FAD10748FFF791FC00BF99
:101BE0000548FFF7E4FB0028FAD101210248FFF77E
:101BF0007CFC05B000BD00000024014000BF011EB8
:101C0000A0F10100FBD1704700B58BB0012108465F
:101C1000FFF7EEFD00211348FFF78AFC1148FFF79C
:101C200093FC03200390002002900A900E4801903C
:101C30004FF48060079080200590202008900B488A
:101C4000009080150690002004904FF400500990F9
:101C500069460448FFF71EFD01210248FFF768FCB2
:101C60000BB000BD08000240080000204C240140D9
:101C700008B501210420FFF7CBFD01211020FFF75B
:101C8000C7FD00208DF803000120ADF80000694673
:101C90001948FFF71DFD00208DF803000220ADF864
:101CA000000069461448FFF713FD18208DF8030063
:101CB0004FF40070ADF8000003208DF80200694673
:101CC0000D48FFF705FD04208DF803000002ADF874
:101CD000000069460848FFF7FBFC10208DF8030060
:101CE0004FF4E060ADF8000003208DF80200694673
:101CF0000248FFF7EDFC08BD00080140001001405C
:101D00001CB5FFF7B5FFFFF727FFFFF77DFF00F0DA
:101D1000EBF8A7E0544800885449088048F6A040F2
:101D2000FFF76CFF504840885149088048F6A040B2
:101D3000FFF764FF4C4880884E49088008460088B9
:101D400000F070FD804600F041FD06464A4A4B4BCC
:101D500000F048FB044600F013F9494908600846C2
:101D6000006800F033FD8046464A474B00F038FCDF
:101D70008246464A464B00F0DDF906460022454BB6
:101D800000F030F9044600F0FBF84349086048F6DB
:101D9000A040FFF733FF4048006800F017FDCDE991
:101DA000000133480388314802883CA14B48FEF7C4
:101DB00035FA4A4800F0B8F84948FFF71FFF2C48A9
:101DC000008840F6FC0188420EDA284800888842E4
:101DD0000ADA4FF480714348FFF707FD4FF4C06102
:101DE0004048FFF700FD39E02148008840F6FC013B
:101DF000884218DB1D480088884214DB1C48008894
:101E000040F6746188420EDA1848008888420ADA7F
:101E10004FF400713348FFF7E8FC4FF4A0613148FC
:101E2000FFF7E1FC1AE01248008840F6746188422E
:101E30000EDB0E48008888420ADB4FF48061294897
:101E4000FFF7D3FC4FF440712648FFF7CCFC05E0C8
:101E50002448C06880F4E0602249C8604FF4B47040
:101E6000FFF7CCFE56E7000008000020100000201D
:101E70000E00002012000020B4D934E70C684A3F5D
:101E8000000000207B14AE47E17AF83F22FDF67592
:101E9000E09C713F000039400400002061646356FB
:101EA000616C75655F504F54203D202564207C7C1B
:101EB0002061646356616C75655F4C4452203D201F
:101EC0002564207C7C202054656D7065726174757A
:101ED0007265203D2025302E31660A002C0000203E
:101EE000C0CF6A00001001401FB501218803FFF731
:101EF0008FFC4FF4165000900020ADF80C000C2021
:101F0000ADF80A000020ADF80800ADF80600ADF805
:101F1000040069460348FFF793FD01210148FFF7DC
:101F200083FD1FBD0038014010B504460BE000BF23
:101F30000748008800F040000028F9D021780448C4
:101F4000FFF7EAFD641C20780028F0D110BD0000E6
:101F50000038014010B500290AD00878002807D0C1
:101F600005487844FEF7FEFD002801D0002010BD92
:101F70000248784410BD00004A0A0000420A0000EE
:101F800021F00042A2F16052B2F5801F01F000433F
:101F900028BFD2F17F6C0BD95FEA001C43EAC20272
:101FA00042EB507018BF704728BF20F00100704707
:101FB000B2F5801FBCBF184670474FEA410C1CF5B4
:101FC000001F02D2084600F086BC70B500F0B4FADB
:101FD00000000089FFF7F6BF4FF00040A0F5800039
:101FE0007047000010B591EA030F48BF83F000432B
:101FF00000F10A83841A71EB030C05D2121943EB2A
:102000000C03001B61EB0C01DFF824E14FEA1154D3
:10201000A4EB135C1EEA430F18BF9EEA445F73D023
:1020200023EA0E03DCF1200E21EA045143F480136D
:1020300032D322FA0CFE10EB0E0023FA0CFE41EB19
:102040000E01CCF1200E03FA0EFE10EB0E0051F142
:102050000001B1F5801FCCF1200E32D201EB04510A
:1020600012FA0EF2BDE8104058BF7047401C38BF4E
:102070005FEA420218BF7047002814BF20F0010039
:1020800041F100014FEA410313F5001F38BF7047CB
:10209000A1F1C04100F09EBA012A43EB0302ACF16A
:1020A000200CDCF11F0E32BF4FF0000E23FA0CF3B0
:1020B00010EB030041EB0451B4EB115FD0D0A1EB66
:1020C000045101F5801149085FEA300001EB045129
:1020D0000ED350F1000038BF12FA0EFE08D1BDE851
:1020E0001040C9E7401C38BF5FEA4202CAD1C3E7CB
:1020F000BDE810404FEA410313F5001F38BF704799
:10210000A1F1C04100F066BA9EEA445F08D011EA2E
:102110005E0FBDE8104004BF01F000410020704791
:10212000BDE8104070B500F007FA00BF64FBBE3E8A
:102130000000E0FF2DE9C04130B4DFF8A0C23CEA66
:10214000111418BF3CEA131400F0EC8081EA030577
:102150001CEA111444EAD57418BF1CEA131500F0E8
:10216000C780A4EB05044FF0004545EAC12145EACC
:10217000C32341EA505143EA525304F17F74994218
:1021800004F500344FEAC0204FEAC22208BF904253
:1021900000F09C804FEA13650FF24016765D4FEA1F
:1021A000134506FB05F7C7F1807706FB07F74FEAF3
:1021B000D737A7FB03687642C8F58038A7FB06CE61
:1021C00038BFA8F1010807FB08E64FF0000EA6FB98
:1021D000028CE6FB03CEDCF1000CCEF1004E38BFE2
:1021E000AEF1010EA6FB0C584FF000074FF00005B2
:1021F000E6FB0E87A1FB08C6A0FB07CE16EB0E067A
:1022000045F10005E1FB076515F1E04E7EBFA4F541
:1022100080345FEA46066D4116F1800745F10005FE
:102220004FEA17274FEA066647EA0567A6F1DE463A
:10223000B6F1805F4FEA15251FD9384624F0010C0E
:1022400005EBC471BCF1FE6F01EB0C1102D8F0BCC0
:10225000BDE8008124425CBF01F5801E9EEAC47F78
:1022600002D4F0BCBDE80081244238D4F0BCA1F116
:10227000C041BDE8004100F0ADB94FEAD22242EAC8
:1022800043524FEAD323A7FB02864FEAD02040EA0D
:10229000415007FB03661EEA0E0F4FEAD12105FBF2
:1022A000026658BFA6EB0056B6EB00564FEA520E38
:1022B0004EEAC37E18EB0E0E56EB530EBDD518EB4F
:1022C00002085E417F1C55F10005B6E74FF480150A
:1022D0004FF000074FF000064FF00008ADE7F0BCEC
:1022E0004FF0000001F1C04101F00041BDE8008164
:1022F00011EA0C1F0CEA131500D00CE013EA0C1FB6
:1023000000F025804FF00000F0BC81EA030101F0ED
:102310000041BDE80081F0BCBDE8004181EA030155
:1023200000F058B9F0BCBDE8004170B500F004F908
:10233000097EFC3E00F007B881EA03014FF000007F
:1023400001F00041704781EA030100F043B9F0BC9D
:10235000BDE800414FF0000021497047FFFDFBF947
:10236000F7F5F4F2F0EEEDEBE9E8E6E4E3E1E0DEC8
:10237000DDDBDAD8D7D5D4D3D1D0CFCDCCCBCAC83A
:10238000C7C6C5C4C2C1C0BFBEBDBCBBBAB9B8B761
:10239000B6B5B4B3B2B1B0AFAEADACABAAA9A8A854
:1023A000A7A6A5A4A3A3A2A1A09F9F9E9D9C9C9B22
:1023B0009A999998979796959594939392919190CD
:1023C0008F8F8E8E8D8C8C8B8B8A8989888887875E
:1023D0008685858484838382828181800000FF07D3
:1023E0000000F87FDFF848C170B51CEA111E1EBF5F
:1023F0001CEA13159EEA0C0F95EA0C0F00F06F8093
:1024000081EA030423EA4C134EEAD47E21EA4C11FC
:1024100041F4801143F48013AE44A1FB024CA0FBB5
:102420000365AEF17F7E361955EB0C05A1FB034C1D
:102430004CF10003A0FB021C16EB0C06654153F1A6
:102440000003094218BF46F0010613F4007F0BD1C8
:102450004FEA03314FEA0530340341EA155140EAAF
:1024600016506FF003020AE04FEAC3214FEAC5207D
:10247000F40241EA555140EA56506FF0020202EB75
:102480002E4201EB025585EACE710AD05FEA440C78
:1024900018BF24F0004450F1000041F1000120EA8F
:1024A000D47040F2FE7C624500D270BDA84214BFD9
:1024B0004FF080444FF04044002E08BF0024BEF18E
:1024C000806FA8BFA1F1C041BDE8704080F282805A
:1024D0004FF0000001F1C04101F0004170479EEA59
:1024E0000C0F0CEA131518BF95EA0C0F06D04FF02D
:1024F000000081EA030E0EF0004170BD00F01CF8F0
:102500008900013E00F007B800F009B84FEA430C1B
:102510005FEA5C5C08D081EA030100F05BB84FEA37
:10252000410C5FEA5C5CF6D14FF000000149704756
:102530000000FF070000F87F0EF1020E2EF0030EE0
:102540005EF8046B364205D4012A43EB030515F50A
:10255000001F12D8012841EB010C1CF5001F0CD8FC
:102560000ED14FEAD17C15F5001F0CEB4C0C0CF191
:10257000020C08BF4CEBD37C04E04FF0080C01E0E8
:102580004FEAD37C0CEB4C0526FA05F606F007065D
:10259000B6F1040C06D20EEB860CBDE870404CF090
:1025A000010C6047DFE80CF0090B02024FF000411C
:1025B0004FF00000A1F5002170BD1946104601281A
:1025C00051EB010418BFD4F5001484BF002001F0C2
:1025D000004170BD0808A0F500114FEA31017047B5
:1025E00091EA030F10B581F000413FF503AD83F090
:1025F000004300F009B8000010B591EA030F48BF8E
:1026000083F000433FF5F6AC841A71EB030C07D25C
:1026100012198CF0004C43EB0C03001B61EB0C0116
:10262000DFF8A4E14FEA1154A4EB135C1EEA430F58
:1026300018BF9EEA445F00F0B08023EA6E03524266
:1026400021EA0451C3EB6E0338BF5B1EDCF1200EA0
:1026500025D322FA0CFE10EB0E0043FA0CFE41EBE0
:102660000E01CCF1200E03FA0EFE10EB0E0051F11C
:102670000001CCF1200E29D412FA0EF201EB045124
:10268000BDE8104058BF7047401C1CBFB2F1004F5E
:10269000704700280CBF491C20F00100704712EB66
:1026A000020E43EB030218BF4FF0010E4EEA420246
:1026B000ACF1200CDCF11E0E54D943FA0CFE10EBE9
:1026C0000E0051F1FF31CCF11E0ED5D50EF1010EE9
:1026D00012FA0EFE404141EB010101EB445C5FEA5E
:1026E0005C5C10D910EBDE7001EB045138BFBEF119
:1026F000004FBDE8104018BF704700280CBF491CB0
:1027000020F00100704730D24FEAD42C11F50011AF
:1027100024F400641BD0B1FA81F20B3AA41AA41E6F
:10272000D2F12003914030FA03F31943904001EBBA
:10273000CC71002C01EB0451BDE81040A8BF7047DC
:1027400001F1C0414FF0000001F000417047B0FAC4
:1027500080F310FA03F100D110BDE41A173C4805CC
:10276000C90AE4E701EB045110BD491001EB045123
:10277000BDE810404FEA300002E04FF00001704722
:102780004A0008BF0042F8D0B2F5001F28BF7047CA
:1027900001F000414FF0000070479EEA445F07D00F
:1027A00011EA5E0FBDE8104004BF00210020704711
:1027B000BDE8104070B5FFF7BFFE00BF40DFF63E3A
:1027C00083F00041104670470000E0FF43004FEAED
:1027D000D30C4FEA3C0C43401FBF40070CF1605143
:1027E00013F0FE4F70471CF0006F03D100200CF077
:1027F000004170470CF0004343EA507010B540EAC6
:10280000CC0000F022F800BF000000924FEA000167
:10281000FFF7E0BE4FF000414FF00000A1F50021AE
:1028200070470000B0FA80F310FA03F2C3F19D0381
:102830000AD0D90501EB1220530638BF704700F1CA
:10284000010008BF20F0010070470EF1020E2EF0CB
:10285000030E5EF8044B244204D44FEA4102B2F165
:102860007F4F11D84FEA4003B3F17F4F0CD80ED100
:102870004FEAD07CB2F17F4F0CEB4C0C0CF1020C08
:1028800008BF4CEBD17C04E04FF0080C01E04FEAAC
:10289000D17C0CEB4C0324FA03F404F00704B4F1EC
:1028A000040C06D20EEB840CBDE810404CF0010C79
:1028B0006047DFE80CF0070802024FF00040A0F587
:1028C000800010BD0846420018BFD2F1807288BF58
:1028D00000F0004010BDFF2141EAD050C005704714
:1028E000FDF7BDBE0400000800000000000000026B
:1028F000000100001000000002400000000000A0E5
:102900000000000005400000000000C800000000BA
:102910000C4000000000409C000000001940000036
:102920000020BCBE0000000034400000BFC91B8E68
:1029300000000004B5400000504BCFD06607E2CF46
:10294000010000006C4100003E8251AADFEEA73476
:1029500001000000D9420000DCB5A0E23A301F9728
:10296000FFFFFFFFB4450000FD25A0C8E9A3C14F4C
:10297000FFFFFFFFFF3F000000000080000000009D
:10298000FF3F00000000008000000000C829000890
:10299000000000202C0000005C010008F429000861
:1029A0002C00002094060000780100081C000000A4
:1029B00043000000F8FFFFFF0C0000000E000000C5
:1029C0000F0000002E0000000000000000000000CA
:1029D00000000000000000000000000000000000F7
:1029E00000010203040102030406070809020406A9
:0429F00008000000DB
:04000005080001DD11
:00000001FF
