:020000040800F2
:1000000000200020C10100081102000811020008B0
:10001000110200081102000811020008000000008F
:1000200000000000000000000000000011020008B5
:10003000110200080000000011020008110200086F
:100040001102000811020008110200081102000844
:100050001102000811020008110200081102000834
:100060001102000811020008110200081102000824
:100070001102000811020008110200081102000814
:10008000110200081102000811020008000000001F
:100090000000000000000000000000001102000845
:1000A00011020008110200081102000811020008E4
:1000B00011020008110200081102000811020008D4
:1000C00011020008110200081102000811020008C4
:1000D00011020008110200081102000811020008B4
:1000E00011020008110200081102000811020008A4
:1000F00011020008110200080000000000000000CA
:10010000110200080000000011020008110200089E
:100110001102000811020008110200081102000873
:100120001102000811020008110200081102000863
:1001300010B5054C237833B9044B13B10448AFF321
:1001400000800123237010BD00000020000000008B
:100150005C02000808B5034B1BB103490348AFF329
:10016000008008BD00000000040000205C020008C0
:1001700080B485B000AF0F4BFB600F4BBB600F4BE3
:100180007B60FB681B6843F01002FB681A60BB6869
:100190001B6843F00302BB681A60BB681B6823F04E
:1001A0000C02BB681A607B681B6843F480727B6832
:1001B0001A60FEE718100240041001400C100140C4
:1001C0000D488546AFF300800C480D490D4A0023C9
:1001D00002E0D458C4500433C4188C42F9D30A4AFC
:1001E0000A4C002301E013600432A242FBD300F06A
:1001F00011F8FFF7BDFFFEE70020002000000020FF
:10020000000000207C020008000000201C000020EC
:10021000FEE7000070B500260C4D0D4C641BA410C9
:10022000A64209D100F01AF800260A4D0A4C641BB8
:10023000A410A64205D170BD55F8043B984701367D
:10024000EEE755F8043B98470136F2E774020008E0
:10025000740200087402000878020008F8B500BFB4
:10026000F8BC08BC9E467047F8B500BFF8BC08BC97
:040270009E467047EF
:040274005501000828
:040278003101000848
:04000005080001C12D
:00000001FF
