:020000040800F2
:100000000020002071010008BD010008BD010008AA
:10001000BD010008BD010008BD010008000000008E
:10002000000000000000000000000000BD0100080A
:10003000BD01000800000000BD010008BD0100086E
:10004000BD010008BD010008BD010008BD01000898
:10005000BD010008BD010008BD010008BD01000888
:10006000BD010008BD010008BD010008BD01000878
:10007000BD010008BD010008BD010008BD01000868
:10008000BD010008BD010008BD010008000000001E
:10009000000000000000000000000000BD0100089A
:1000A000BD010008BD010008BD010008BD01000838
:1000B000BD010008BD010008BD010008BD01000828
:1000C000BD010008BD010008BD010008BD01000818
:1000D000BD010008BD010008BD010008BD01000808
:1000E000BD010008BD010008BD010008BD010008F8
:1000F000BD010008BD010008000000000000000074
:10010000BD01000800000000BD010008BD0100089D
:10011000BD010008BD010008BD010008BD010008C7
:10012000BD010008BD010008BD010008BD010008B7
:1001300010B5054C237833B9044B13B10448AFF321
:1001400000800123237010BD00000020000000008B
:100150000802000808B5034B1BB103490348AFF37D
:10016000008008BD00000000040000200802000814
:100170000C488546AFF300800B480C490C4A00231D
:1001800002E0D458C4500433C4188C42F9D3094A4D
:10019000094C002301E013600432A242FBD300F0BB
:1001A0000FF8FEE7002000200000002000000020E3
:1001B00028020008000000201C000020FEE70000CC
:1001C00070B500260C4D0D4C641BA410A64209D13D
:1001D00000F01AF800260A4D0A4C641BA410A6422F
:1001E00005D170BD55F8043B98470136EEE755F848
:1001F000043B98470136F2E720020008200200087D
:100200002002000824020008F8B500BFF8BC08BCB2
:100210009E467047F8B500BFF8BC08BC9E467047C4
:04022000550100087C
:04022400310100089C
:04000005080001717D
:00000001FF
