:020000040800F2
:1000000098060020C5010008CD010008CF010008B6
:10001000D1010008D3010008D5010008000000004C
:10002000000000000000000000000000D7010008F0
:10003000D901000800000000DB010008DD01000814
:10004000DF010008DF010008DF010008DF01000810
:10005000DF010008DF010008DF010008DF01000800
:10006000DF010008DF010008DF010008DF010008F0
:10007000DF010008DF010008DF010008DF010008E0
:10008000DF010008DF01000875040008000000001F
:10009000000000000000000000000000DF01000878
:1000A000DF010008DF010008DF010008DF010008B0
:1000B000DF010008DF010008DF010008DF010008A0
:1000C000DF010008DF010008DF010008DF01000890
:1000D000DF010008DF010008DF010008DF01000880
:1000E000DF010008DF010008DF0100080000000058
:1000F0000000000000000000000000000000000000
:1001000000000000000000000000000000000000EF
:100110000000000000000000DF010008DF0100080F
:1001200000F002F800F03FF80AA090E8000C8244CA
:100130008344AAF10107DA4501D100F034F8AFF2A7
:10014000090EBAE80F0013F0010F18BFFB1A43F0B5
:1001500001031847100C0000300C0000103A24BFB7
:1001600078C878C1FAD8520724BF30C830C144BF1C
:1001700004680C607047000000230024002500265E
:10018000103A28BF78C1FBD8520728BF30C148BFFA
:100190000B607047642900F07D80002070471FB518
:1001A0001FBD10B510BD00F02AF91146FFF7F7FF8B
:1001B00000F022FD00F048F903B4FFF7F2FF03BCA2
:1001C00000F050F90948804709480047FEE7FEE77C
:1001D000FEE7FEE7FEE7FEE7FEE7FEE7FEE7FEE7F7
:1001E00004480549054A064B704700008D09000880
:1001F00021010008980000209806002098020020A5
:10020000980200200FB41CB5074B06AA7B44694630
:100210000090059800F0DBF80020694600F0EAF84D
:100220001CBC5DF814FB0000E50100002DE9F04165
:100230000E460446002020622046E168884730B31D
:10024000252805D0D4E901219047206A401CF2E717
:10025000E168204600278847050018D0A5F1410035
:10026000192802D820354FF4006732462946204627
:100270002760FFF78FFF40B1012804D0F61D26F05C
:1002800007060836D8E7361DD6E72846DAE7206A9B
:10029000BDE8F0812DE9F04106460024106875297B
:1002A000314616A510D0AFF30080002802DA404294
:1002B00013A507E031688A0701D512A502E04907B6
:1002C00004D511A5012401E0AFF3008000210A222A
:1002D00006F1240709E0B0FBF2FCB0FBF2F302FBED
:1002E0001C00303078541846491C0028F3D12346AE
:1002F0002A463046BDE8F04100F00BB8000000008F
:100300002D0000002B000000200000007047704707
:1003100070472DE9F0470D4699469246044600F194
:1003200024080168880604D5E06921F010012160E5
:1003300000E00120A84201DD471B00E00027A16981
:100340007A1902EB0900081AA0612078C00602D4CD
:100350002046AFF30080002608E0D4E901211AF816
:1003600006009047206A401C761C20624E45F4DB54
:100370002078C0060AD52046AFF3008006E0D4E915
:10038000012130209047206A401C2062381EA7F1CE
:100390000107F4DC07E0D4E9012118F805009047D3
:1003A000206A401C2062281EA5F10105F3DC2046CE
:1003B000AFF300802078000602D50220BDE8F08768
:1003C0000120FBE701694A1C02610878704700B50B
:1003D0008FB0CDE901310021059105497944CDE97E
:1003E000031011466846FFF721FF0FB000BD000063
:1003F000E5FFFFFF0A6802F8010B0A6070477546C7
:1004000000F02CF8AE4605006946534620F0070080
:10041000854618B020B5FFF7E3FEBDE820404FF059
:1004200000064FF000074FF000084FF0000B21F0DE
:100430000701AC46ACE8C009ACE8C009ACE8C009AB
:10044000ACE8C0098D46704710B50446AFF3008094
:100450002046BDE81040FFF7AFBE000000487047DF
:100460003400002001491820ABBEFEE72600020040
:100470007047000010B5054800F023F804490880D3
:1004800004480088401C0349088010BD0024014036
:10049000020000200000002021B1826842F0010229
:1004A000826003E0826822F00102826070470146A8
:1004B00000208A6802F004020AB1012000E0002056
:1004C00070470146C86C80B27047014600208A68B8
:1004D00002F008020AB1012000E00020704710B5C8
:1004E0000023CBB21AB144681C43446002E0446864
:1004F0009C43446010BD000030B50246002000233C
:1005000050680F4C20400D790C6844EA05242043C4
:10051000506090680B4C2040D1E902542C434D7937
:1005200044EA450420439060D06A20F470000C7CBB
:10053000641EE4B2234340EA0350D06230BD0000A1
:10054000FFFEF0FFFDF7F1FFF0B504460D46002079
:100550000021092D11DDE068A5F10A0606EB46072A
:10056000072606FA07F18843A5F10A0606EB4606B8
:1005700003FA06F10843E0600CE0206905EB45074B
:10058000072606FA07F1884305EB450603FA06F14C
:1005900008432061072A0FDA606B561E06EB8607B8
:1005A0001F2606FA07F18843561E06EB860605FA53
:1005B00006F10843606322E00D2A0FDA206BD61F94
:1005C00006EB86071F2606FA07F18843D61F06EBBF
:1005D000860605FA06F10843206310E0E06AA2F1FE
:1005E0000D0606EB86071F2606FA07F18843A2F1DF
:1005F0000D0606EB860605FA06F10843E062F0BD3B
:10060000816841F008018160704721B1826842F43D
:10061000A002826003E0826822F4A0028260704738
:10062000816841F00401816070472DE9F041024684
:1006300000250026002000230024002791F803C095
:100640000CF00F0591F803C00CF0100CBCF1000F7A
:1006500003D091F802C04CEA050591F800C0BCF146
:10066000000F31D0146800202BE04FF0010C0CFA81
:1006700000F3B1F800C00CEA03069E4220D18300CB
:100680004FF00F0C0CFA03F7BC4305FA03FC4CEADD
:10069000040491F803C0BCF1280F06D14FF0010CFF
:1006A0000CFA00FCC2F814C00AE091F803C0BCF1D7
:1006B000480F05D14FF0010C0CFA00FCC2F810C035
:1006C000401C0828D1D31460B1F800C0BCF1FF0F62
:1006D00034DD546800202EE000F1080C4FF00108D2
:1006E00008FA0CF3B1F800C00CEA03069E4221D1CF
:1006F00083004FF00F0C0CFA03F7BC4305FA03FC20
:100700004CEA040491F803C0BCF1280F05D100F1B4
:10071000080C08FA0CF8C2F8148091F803C0BCF178
:10072000480F07D100F1080C4FF0010808FA0CF847
:10073000C2F81080401C0828CED35460BDE8F08178
:10074000416170470161704708B512208DF80000C3
:1007500000208DF801008DF8020001208DF80300C3
:10076000684600F001F808BD70B5002100230F2293
:10077000C47804B3154C246804F4E064C4F5E06460
:10078000210AC1F10403CA40447804FA03F18478D1
:100790001440214309010E4C0678A155047804F059
:1007A0001F050124AC4005786D11AD0005F1E02571
:1007B000C5F8004109E0047804F01F050124AC40AD
:1007C000044D0678761145F8264070BD0CED00E02A
:1007D00000E400E080E100E029B1064A92690243AA
:1007E000044B9A6104E0034A92698243014B9A6187
:1007F000704700000010024070B500210023002463
:10080000002200252C4E766806F00C0121B1042947
:1008100005D0082921D105E0284E066020E0274EAA
:1008200006601DE0244E766806F47013224E76684A
:1008300006F48034022606EB93431CB9204E5E4337
:10084000066009E01C4EF66A06F00F06751C1B4E8A
:10085000B6FBF5F65E43066002E0184E066000BF88
:1008600000BF154E766806F0F0010909154E725C5E
:100870000668D6404660104E766806F4E061090AC4
:10088000104E725C4668D64086600B4E766806F461
:100890006051C90A0B4E725C4668D640C660064E6F
:1008A000766806F44041890B074E725CC668B6FB59
:1008B000F2F6066170BD00000010024000127A00DE
:1008C00000093D00040000201400002010B500F0D5
:1008D00001F810BD0CB50020019000902A48006876
:1008E00040F480302849086000BF2748006800F4C1
:1008F000003000900198401C0190009818B90198B0
:10090000B0F5A06FF1D12048006800F4003010B1BC
:100910000120009001E0002000900098012831D1D2
:1009200019484068184948600846406848600846C9
:10093000406848600846406820F47C1048600846DB
:10094000406840F4981048600846006840F08070A5
:10095000086000BF0C48006800F000700028F9D063
:100960000948406820F0030007494860084640688D
:1009700040F00200486000BF0348406800F00C00EF
:100980000828F9D10CBD00000010024010B5144831
:10099000006840F0010012490860084640681149AB
:1009A00008400F494860084600680F4908400C4954
:1009B00008600846006820F4802008600846406807
:1009C00020F4FE0048604FF41F0088600020C862D9
:1009D000FFF77CFF4FF000600449086010BD000085
:1009E000001002400000FFF8FFFFF6FE08ED00E0F7
:1009F00021B1828942F40052828104E082894DF65D
:100A0000FF731A40828170472DE9F04786B0054692
:100A10000E460024A24600BFA1460027B08900B1BF
:100A200000BF2F462C8A4CF6FF700440F088044328
:100A30002C82AC894EF6F3100440B088318908430B
:100A4000718908430443AC81AC8A4FF6FF400440EF
:100A5000B0890443AC8201A8FFF7CEFE1F4887424D
:100A600002D1DDF810A001E0DDF80CA0A88900F4A7
:100A7000004040B10AEBCA0000EB0A10316849009F
:100A8000B0FBF1F807E00AEBCA0000EB0A1031688E
:100A90008900B0FBF1F86420B8FBF0F004012009F4
:100AA000642101FB1089A88900F4004040B1322084
:100AB00000EBC900B0FBF1F000F00700044308E0D0
:100AC000322000EB09106421B0FBF1F000F00F00C0
:100AD00004432C8106B0BDE8F087000000380140D7
:100AE000C1F308028280704700B585B00121480239
:100AF000FFF772FE01208DF80500002003904FF4EF
:100B0000602002900020009001208DF8100000204D
:100B10008DF8040069461548FFF7EEFC01211348E3
:100B2000FFF7BAFC0523012200211048FFF70CFD56
:100B300001210E48FFF769FD01224FF408710B48AF
:100B4000FFF7CDFC0948FFF75BFD00BF0748FFF743
:100B5000BCFC0028FAD10548FFF762FD00BF03483E
:100B6000FFF7A5FC0028FAD105B000BD0024014024
:100B700000BF011EA0F10100FBD1704708B50121A3
:100B80001020FFF729FE01210420FFF725FE102089
:100B90008DF803004FF4E060ADF8000003208DF8FD
:100BA000020069461248FFF740FD00208DF803005F
:100BB0000120ADF8000069460E48FFF736FD182009
:100BC0008DF803004FF40070ADF8000003208DF89D
:100BD000020069460748FFF728FD04208DF803004E
:100BE0000002ADF8000069460248FFF71EFD08BD8F
:100BF0000010014000080140FFF7C0FF00F07CF842
:100C0000FFF772FFFFF7A0FD56E02C4803882C4841
:100C100002882CA13548FFF7F5FA344800F08CF82B
:100C20003348FFF7A5FF2648008840F24651884226
:100C30000ADA4FF480712F48FFF784FD4FF4C0614A
:100C40002C48FFF77DFD37E01D48008840F24651F3
:100C5000884210DB1A48008840F6543188420ADA8C
:100C60004FF400712348FFF76DFD4FF4A061214858
:100C7000FFF766FD20E01248008840F654318842B4
:100C800010DB0F48008840F6FF7188420ADA4FF403
:100C900080611848FFF756FD4FF440711548FFF783
:100CA0004FFD09E01348C06880F4E0601149C86056
:100CB00048F6A040FFF75CFFA7E700000000002017
:100CC00002000020504F545F61646356616C75658B
:100CD000203D202564207C7C20636F756E746572D6
:100CE000203D202564200D0A00000000180000208F
:100CF000A0860100001001401FB501218803FFF705
:100D00006BFD4FF4165000900020ADF80C000C2045
:100D1000ADF80A000020ADF80800ADF80600ADF807
:100D2000040069460348FFF76FFE01210148FFF701
:100D30005FFE1FBD0038014010B504460BE000BF48
:100D40000748008800F040000028F9D021780448C6
:100D5000FFF7C6FE641C20780028F0D110BD00000B
:100D600000380140840D0008000000201800000039
:100D70005C0100089C0D000818000020800600009F
:100D800078010008000000000000000001020304D8
:0C0D90000102030406070809020406081B
:04000005080001C529
:00000001FF
