:020000040800F2
:1000000000200020D102000821030008210300087D
:10001000210300082103000821030008000000005C
:1000200000000000000000000000000021030008A4
:10003000210300080000000021030008210300083C
:100040002103000821030008210300082103000800
:1000500021030008210300087102000821030008A1
:1000600021030008210300082103000821030008E0
:1000700021030008210300082103000821030008D0
:1000800021030008210300082103000800000000EC
:100090000000000000000000000000002103000834
:1000A00021030008210300082103000821030008A0
:1000B0002103000821030008210300082103000890
:1000C0002103000821030008210300082103000880
:1000D0002103000821030008210300082103000870
:1000E0002103000821030008210300082103000860
:1000F00021030008210300080000000000000000A8
:10010000210300080000000021030008210300086B
:10011000210300082103000821030008210300082F
:10012000210300082103000821030008210300081F
:1001300010B5054C237833B9044B13B10448AFF321
:1001400000800123237010BD20000020000000006B
:100150006C03000808B5034B1BB103490348AFF318
:10016000008008BD00000000240000206C0300088F
:1001700080B500AF00F044F800F01CF8044B1B6899
:100180001A68034B1B6842F4E0621A60F6E700BF8E
:100190000800002080B483B000AF786000BF7B68A7
:1001A0005A1E7A60002BFAD100BF00BF0C37BD4643
:1001B00080BC704780B400AF0F4B1B681A680E4BB1
:1001C0001B6842F010021A600C4B1B681B680B4A3C
:1001D000126843F44C7343F003031360074B1B682E
:1001E0001B68064A126823F44C6323F00C03136067
:1001F00000BFBD4680BC7047000000200400002006
:1002000080B400AF154B1B681A68144B1B6842F092
:1002100001021A60124B1B681A68114B1B6842F0EE
:1002200001021A600F4B1B681A680E4B1B6842F0E4
:1002300001021A600C4B1B681A680B4B1B6842F0DA
:1002400040021A60094B1B681A68084B1B6842F091
:1002500002021A6000BFBD4680BC7047000000204B
:1002600014000020100000201C0000200C000020C2
:1002700080B582B000AF124B1B680133104A136087
:1002800000237B600DE00F4B1B681A680D4B1B6849
:1002900082F4E0621A600C48FFF77CFF7B68013350
:1002A0007B607B68032BEEDD084B1B681A68074BED
:1002B0001B6842F001021A6000BF0837BD4680BDCE
:1002C0003C0000200800002020A1070018000020AA
:1002D0000D488546AFF300800C480D490D4A0023B8
:1002E00002E0D458C4500433C4188C42F9D30A4AEB
:1002F0000A4C002301E013600432A242FBD300F059
:1003000011F8FFF735FFFEE7002000200000002075
:10031000200000208C030008200000204000002066
:10032000FEE7000070B500260C4D0D4C641BA410B8
:10033000A64209D100F01AF800260A4D0A4C641BA7
:10034000A410A64205D170BD55F8043B984701366C
:10035000EEE755F8043B98470136F2E784030008BE
:10036000840300088403000888030008F8B500BF70
:10037000F8BC08BC9E467047F8B500BFF8BC08BC86
:040380009E467047DE
:040384005501000817
:040388003101000837
:10038C0018100240041001400C10014008000140FC
:10039C0000040140080401401404014000E100E0A5
:04000005080002D11C
:00000001FF
