:020000040800F2
:1000000000200020B1040008550400085B0400082B
:1000100061040008670400086D0400080000000087
:100020000000000000000000000000007304000851
:100030007F040008000000008B04000897040008FB
:10004000F9040008F9040008F9040008F90400089C
:10005000F9040008F9040008F9040008F90400088C
:10006000F9040008F9040008F9040008F90400087C
:10007000F9040008F9040008F9040008F90400086C
:10008000F9040008F9040008F90400080000000061
:10009000000000000000000000000000F90400085B
:1000A000F9040008F9040008F9040008F90400083C
:1000B000F9040008F9040008F9040008F90400082C
:1000C000F90400080000000000000000F904000826
:1000D000F9040008F9040008F9040008F90400080C
:1000E000F9040008F9040008F90400080000000001
:1000F0000000000000000000000000000000000000
:1001000000000000000000000000000000000000EF
:100110000000000000000000F9040008F9040008D5
:1001200000000000000000000000000000000000CF
:1001300000000000000000000000000000000000BF
:1001400000000000000000000000000000000000AF
:10015000000000000000000000000000000000009F
:10016000000000000000000000000000000000008F
:10017000000000000000000000000000000000007F
:10018000000000000000000000000000000000006F
:10019000000000000000000000000000000000005F
:1001A000000000000000000000000000000000004F
:1001B000000000000000000000000000000000003F
:1001C0000000000000000000000000005FF808F1DF
:1001D00010B5054C237833B9044B13B10448AFF381
:1001E00000800123237010BD1800002000000000D3
:1001F0008C16000808B5034B1BB103490348AFF345
:10020000008008BD000000001C0000208C160008C3
:1002100080B500AF00F071F900F01AF800F054F862
:10022000084B1B68084A12681146184600F098F8F7
:10023000044B1B68184600F0C9F80346034A1360D4
:10024000FEE700BF00000020040000203400002072
:1002500080B590B000AF07F118032822002118469E
:1002600001F00CFA3B1D00221A605A609A60DA60B5
:100270001A610223BB610123BB621023FB620023CE
:100280007B6307F11803184600F01AFE0346002BA3
:1002900001D000F0A8F80F237B600023BB6000238F
:1002A000FB6000233B6100237B613B1D002118465E
:1002B00001F088F80346002B01D000F094F800BF4D
:1002C0004037BD4680BD000080B588B000AF07F163
:1002D000100300221A605A609A60DA601E4B9B6914
:1002E0001D4A43F0100393611B4B9B6903F01003FD
:1002F000FB60FB68184B9B69174A43F0200393612E
:10030000154B9B6903F02003BB60BB68124B9B69D4
:10031000114A43F0040393610F4B9B6903F00403FC
:100320007B607B6800224FF440710C4800F0B0FD08
:100330004FF440733B6101237B610023BB610223C7
:10034000FB6107F110031946044800F01DFC00BFD3
:100350002037BD4680BD00BF0010024000100140A4
:10036000B0B584B000AF7860396000F073FA154B17
:1003700040F23512DA60144B00221A60124A7B6890
:100380009360114B0122DA6007F10C0319460E4805
:1003900000F052FB0346002B03D000F091FA034615
:1003A0000CE03B6800221C46154622462B46796825
:1003B000022000F0DFF900F073FA0023184610372E
:1003C000BD46B0BD002002403800002080B485B09A
:1003D00000AF78607B681B68FB60FB6818461437C9
:1003E000BD4680BC704780B400AF72B600BFFEE768
:1003F00080B485B000AF154B9B69144A43F00103EC
:100400009361124B9B6903F00103BB60BB680F4B08
:10041000DB690E4A43F08053D3610C4BDB6903F078
:1004200080537B607B680A4B5B68FB60FB6823F052
:10043000E063FB60FB6843F00073FB60044AFB6809
:10044000536000BF1437BD4680BC704700100240A7
:100450000000014080B400AFFEE780B400AFFEE7CB
:1004600080B400AFFEE780B400AFFEE780B400AF19
:10047000FEE780B400AF00BFBD4680BC704780B4CB
:1004800000AF00BFBD4680BC704780B400AF00BF66
:10049000BD4680BC704780B500AF00F06BF800BF70
:1004A00080BD80B400AF00BFBD4680BC7047000077
:1004B0000C480D490D4A002302E0D458C4500433BF
:1004C000C4188C42F9D30A4A0A4C002301E0136095
:1004D0000432A242FBD3FFF7E4FF01F0ABF8FFF7D1
:1004E00097FE70470000002014000020DC16000872
:1004F0001800002070000020FEE780B500AF032048
:1005000000F004F9002000F005F8FFF771FF002368
:10051000184680BD80B582B000AF7860124B1A6873
:10052000124B1B7819464FF47A73B3FBF1F3B2FB0D
:10053000F3F3184600F011F90346002B01D0012314
:100540000EE07B680F2B0AD8002279684FF0FF304D
:1005500000F0E7F8064A7B681360002300E00123FF
:1005600018460837BD4680BD080000201000002056
:100570000C00002080B400AF054B1B781A46054BD9
:100580001B681344034A136000BFBD4680BC70471C
:10059000100000204800002080B400AF024B1B6810
:1005A0001846BD4680BC70474800002080B485B026
:1005B00000AF78607B6803F00703FB600C4BDB68DF
:1005C000BB60BA684FF6FF031340BB60FB681A02BA
:1005D000BB68134343F0BF6343F40033BB60044A7A
:1005E000BB68D36000BF1437BD4680BC704700BFF6
:1005F00000ED00E080B400AF044BDB681B0A03F0A1
:1006000007031846BD4680BC704700BF00ED00E000
:1006100080B483B000AF03463960FB7197F90730AF
:10062000002B0ADB3B68DAB20C4997F9073012015C
:10063000D2B20B4483F800230AE03B68DAB20849DF
:10064000FB7903F00F03043B1201D2B20B441A767C
:1006500000BF0C37BD4680BC704700BF00E100E022
:1006600000ED00E080B489B000AFF860B9607A6056
:10067000FB6803F00703FB61FB69C3F10703042B6D
:1006800028BF0423BB61FB690433062B02D9FB6935
:10069000033B00E000237B614FF0FF32BB6902FAAD
:1006A00003F3DA43BB681A407B699A404FF0FF318D
:1006B0007B6901FA03F3D9437B680B401343184667
:1006C0002437BD4680BC704780B582B000AF7860EB
:1006D0007B68013BB3F1807F01D301230FE00A4A1D
:1006E0007B68013B53600F214FF0FF30FFF790FF15
:1006F000054B00229A60044B07221A60002318461B
:100700000837BD4680BD00BF10E000E080B582B074
:1007100000AF78607868FFF749FF00BF0837BD4633
:1007200080BD80B586B000AF0346B9607A60FB73C8
:1007300000237B61FFF75EFF78617A68B9687869AA
:10074000FFF790FF024697F90F3011461846FFF762
:100750005FFF00BF1837BD4680BD80B582B000AFD7
:1007600078607868FFF7B0FF034618460837BD4643
:1007700080BD0000F0B587B000AFF860B960C7E990
:1007800000230123FB750023BB7500237B752F4BD2
:100790001B7E012B01D1022354E02C4B01221A763F
:1007A0004CF2503000F0B2F80346FB75FB7D002B95
:1007B00044D1FB68012B02D101237B7507E0FB6864
:1007C000022B02D102237B7501E004237B750023F9
:1007D000BB752DE0BB7D5A00BB6802EB030CBB7DF3
:1007E0001901D7E90023C1F12006A1F1200022FA66
:1007F00001F403FA06F6344323FA00F0044323FA23
:1008000001F5A3B21946604600F064F84CF250308E
:1008100000F07CF80346FB750D4B1B690C4A23F076
:1008200001031361FB7D002B07D1BB7D0133BB7539
:10083000BA7D7B7D9A42CDD300E000BF034B0022FE
:100840001A76FB7D18461C37BD46F0BD50000020CF
:100850000020024080B483B000AF0023FB710D4B39
:100860001B6903F08003002B0DD00A4B0A4A5A6023
:10087000084B0A4A5A60074B1B6903F08003002BA0
:1008800001D00123FB71FB7918460C37BD4680BCB3
:10089000704700BF0020024023016745AB89EFCDC0
:1008A00080B400AF054B1B69044A43F08003136119
:1008B00000231846BD4680BC704700BF00200240A0
:1008C00080B400AF024BDB691846BD4680BC704760
:1008D0005000002080B483B000AF78600B467B806E
:1008E000084B0022DA61084B1B69074A43F00103F9
:1008F00013617B687A881A8000BF0C37BD4680BCC4
:10090000704700BF500000200020024080B584B036
:1009100000AF7860FFF740FEF86010E07B68B3F14D
:10092000FF3F0CD07B68002B07D0FFF735FE024657
:10093000FB68D31A7A689A4201D2032325E0154B4B
:10094000DB6803F00103002BE8D1124BDB6803F0F6
:100950002003002B02D00F4B2022DA600D4BDB6806
:1009600003F01003002B0BD10A4BDB6903F00103EA
:10097000002B05D1074BDB6803F00403002B03D0E9
:1009800000F00AF8012300E0002318461037BD46A6
:1009900080BD00BF0020024080B483B000AF0023C0
:1009A0007B60234BDB6803F01003002B09D0214B45
:1009B000DB6943F002031F4AD3617B6843F01003F5
:1009C0007B601B4BDB6803F00403002B09D0194B41
:1009D000DB6943F00103174AD3617B6843F00403EA
:1009E0007B60134BDB6903F00103002B0BD0114B31
:1009F000DB6943F004030F4AD3610D4BDB690C4AFA
:100A000023F00103D3617B6840F20112934206D1C7
:100A1000074BDB69064A23F00103D36102E0044A75
:100A20007B68D36000BF0C37BD4680BC704700BFF9
:100A3000002002405000002080B584B000AF7860F4
:100A400039600123FB730023BB602F4B1B7E012BFE
:100A500001D1022353E02C4B01221A767B681B68DC
:100A6000022B16D14CF25030FFF750FF0346002BFB
:100A700041D1012000F04CF84CF25030FFF746FF16
:100A80000346FB73214B1B69204A23F004031361C7
:100A900031E04CF25030FFF739FF0346002B2AD1EA
:100AA0003B684FF0FF321A607B689B68BB6019E0BF
:100AB000B86800F049F84CF25030FFF727FF0346C2
:100AC000FB73124B1B69114A23F002031361FB7B7A
:100AD000002B03D03B68BA681A600CE0BB6803F5D2
:100AE0008063BB607B68DB689A027B689B68134409
:100AF000BA689A42DCD3044B00221A76FB7B184674
:100B00001037BD4680BD00BF5000002000200240CD
:100B100080B483B000AF7860094B0022DA61094BE2
:100B20001B69084A43F004031361064B1B69054A1D
:100B300043F04003136100BF0C37BD4680BC7047D3
:100B4000500000200020024080B483B000AF7860E5
:100B50000B4B0022DA610B4B1B690A4A43F002037C
:100B60001361084A7B685361064B1B69054A43F0D1
:100B70004003136100BF0C37BD4680BC704700BF07
:100B8000500000200020024080B48BB000AF78609D
:100B9000396000237B6200233B6269E101227B6AAA
:100BA00002FA03F3FB613B681B68FA691340BB61FF
:100BB000BA69FB699A4240F058813B685B689A4A7F
:100BC00093425ED0984A934275D8984A934258D03F
:100BD000964A93426FD8964A934252D0944A93428F
:100BE00069D8944A93424CD0924A934263D8924A2D
:100BF000934246D0904A93425DD8122B2AD8122BAA
:100C000059D801A252F823F0830C00085D0C0008AB
:100C10006F0C0008B10C0008B70C0008B70C0008F6
:100C2000B70C0008B70C0008B70C0008B70C000898
:100C3000B70C0008B70C0008B70C0008B70C000888
:100C4000B70C0008B70C0008B70C0008650C0008CA
:100C5000790C0008794A934213D02CE03B68DB689A
:100C60003B6229E03B68DB6804333B6224E03B687D
:100C7000DB6808333B621FE03B68DB680C333B6298
:100C80001AE03B689B68002B02D104233B6213E00F
:100C90003B689B68012B05D108233B627B68FA699E
:100CA0001A6109E008233B627B68FA695A6103E034
:100CB00000233B6200E000BFBB69FF2B01D87B68CB
:100CC00001E07B6804337B61BB69FF2B02D87B6A40
:100CD0009B0002E07B6A083B9B003B617B691A68D2
:100CE0000F213B6901FA03F3DB431A40396A3B6980
:100CF00001FA03F31A437B691A603B685B6803F0EF
:100D00008053002B00F0B1804D4B9B694C4A43F05F
:100D1000010393614A4B9B6903F00103BB60BB680D
:100D2000484A7B6A9B08023352F82330FB607B6A97
:100D300003F003039B000F2202FA03F3DB43FA687C
:100D40001340FB607B68404A934213D07B683F4A64
:100D500093420DD07B683E4A934207D07B683D4A60
:100D6000934201D1032306E0042304E0022302E0BE
:100D7000012300E000237A6A02F00302920093400C
:100D8000FA681343FB602F497B6A9B080233FA68B9
:100D900041F823203B685B6803F48033002B06D0C6
:100DA0002D4B1A682C49BB6913430B6006E02A4B94
:100DB0001A68BB69DB43284913400B603B685B68DA
:100DC00003F40033002B06D0234B5A682249BB6939
:100DD00013434B6006E0204B5A68BB69DB431E4956
:100DE00013404B603B685B6803F48013002B06D014
:100DF000194B9A681849BB6913438B6006E0164B80
:100E00009A68BB69DB43144913408B603B685B689D
:100E100003F40013002B21D00F4BDA680E49BB6995
:100E20001343CB6021E000BF0000321000003110FE
:100E3000000022100000211000001210000011100C
:100E4000001002400000014000080140000C014079
:100E50000010014000140140000401400B4BDA680F
:100E6000BB69DB4309491340CB607B6A01337B627A
:100E70003B681A687B6A22FA03F3002B7FF48EAE7C
:100E800000BF00BF2C37BD4680BC70470004014046
:100E900080B483B000AF78600B467B8013467B70D4
:100EA0007B78002B03D07A887B681A6103E07B880B
:100EB0001A047B681A6100BF0C37BD4680BC7047BE
:100EC00080B586B000AF78607B68002B01D101232C
:100ED00072E27B681B6803F00103002B00F087803F
:100EE000924B5B6803F00C03042B0CD08F4B5B68B8
:100EF00003F00C03082B12D18C4B5B6803F4803396
:100F0000B3F5803F0BD1894B1B6803F40033002BF2
:100F10006CD07B685B68002B68D101234CE27B6856
:100F20005B68B3F5803F06D1804B1B687F4A43F472
:100F3000803313602EE07B685B68002B0CD17B4B09
:100F40001B687A4A23F480331360784B1B68774A16
:100F500023F4802313601DE07B685B68B3F5A02F4A
:100F60000CD1724B1B68714A43F4802313606F4BA2
:100F70001B686E4A43F4803313600BE06B4B1B68B5
:100F80006A4A23F480331360684B1B68674A23F472
:100F9000802313607B685B68002B13D0FFF7FCFA9B
:100FA000386108E0FFF7F8FA02463B69D31A642B70
:100FB00001D9032300E25D4B1B6803F40033002BCF
:100FC000F0D014E0FFF7E8FA386108E0FFF7E4FA40
:100FD00002463B69D31A642B01D90323ECE1534B3E
:100FE0001B6803F40033002BF0D100E000BF7B68E6
:100FF0001B6803F00203002B63D04C4B5B6803F0CB
:101000000C03002B0BD0494B5B6803F00C03082B3F
:101010001CD1464B5B6803F48033002B16D1434B45
:101020001B6803F00203002B05D07B681B69012BB2
:1010300001D00123C0E13D4B1B6823F0F8027B681F
:101040005B69DB00394913430B603AE07B681B693D
:10105000002B20D0364B01221A60FFF79DFA386131
:1010600008E0FFF799FA02463B69D31A022B01D92F
:101070000323A1E12D4B1B6803F00203002BF0D0EA
:101080002A4B1B6823F0F8027B685B69DB00274969
:1010900013430B6015E0264B00221A60FFF77CFA21
:1010A000386108E0FFF778FA02463B69D31A022B51
:1010B00001D9032380E11D4B1B6803F00203002BC1
:1010C000F0D17B681B6803F00803002B3AD07B68E3
:1010D0009B69002B19D0174B01221A60FFF75CFAAD
:1010E000386108E0FFF758FA02463B69D31A022B31
:1010F00001D9032360E10D4B5B6A03F00203002B6F
:10110000F0D0012000F078FA1CE00A4B00221A60AF
:10111000FFF742FA38610FE0FFF73EFA02463B69FB
:10112000D31A022B08D9032346E100BF0010024066
:101130000000424280044242924B5B6A03F0020389
:10114000002BE9D17B681B6803F00403002B00F03F
:10115000A6800023FB758B4BDB6903F08053002BCB
:101160000DD1884BDB69874A43F08053D361854BAF
:10117000DB6903F08053BB60BB680123FB75824BC6
:101180001B6803F48073002B18D17F4B1B687E4AC9
:1011900043F480731360FFF7FFF9386108E0FFF74D
:1011A000FBF902463B69D31A642B01D9032303E1FF
:1011B000754B1B6803F48073002BF0D07B68DB68F1
:1011C000012B06D16F4B1B6A6E4A43F00103136279
:1011D0002DE07B68DB68002B0CD16A4B1B6A694AE7
:1011E00023F001031362674B1B6A664A23F0040372
:1011F00013621CE07B68DB68052B0CD1614B1B6A1A
:10120000604A43F0040313625E4B1B6A5D4A43F07D
:10121000010313620BE05B4B1B6A5A4A23F0010384
:101220001362584B1B6A574A23F0040313627B680E
:10123000DB68002B15D0FFF7AFF938610AE0FFF744
:10124000ABF902463B69D31A41F28832934201D985
:101250000323B1E04B4B1B6A03F00203002BEED0DB
:1012600014E0FFF799F938610AE0FFF795F90246B3
:101270003B69D31A41F28832934201D903239BE0A0
:10128000404B1B6A03F00203002BEED1FB7D012BC8
:1012900005D13C4BDB693B4A23F08053D3617B682B
:1012A000DB69002B00F08780364B5B6803F00C0392
:1012B000082B61D07B68DB69022B46D1334B0022BF
:1012C0001A60FFF769F9386108E0FFF765F902462F
:1012D0003B69D31A022B01D903236DE0294B1B680C
:1012E00003F00073002BF0D17B681B6AB3F5803FDD
:1012F00008D1244BDB6A23F00F027B689B682149ED
:101300001343CB621F4B5B6823F474127B68196A2A
:101310007B685B6A0B431B4913434B601B4B0122E9
:101320001A60FFF739F9386108E0FFF735F902462E
:101330003B69D31A022B01D903233DE0114B1B68F3
:1013400003F00073002BF0D035E0104B00221A6040
:10135000FFF722F9386108E0FFF71EF902463B6902
:10136000D31A022B01D9032326E0064B1B6803F096
:101370000073002BF0D11EE07B68DB69012B07D1E5
:10138000012319E00010024000700040600042425A
:101390000B4B5B68FB60FB6803F480327B681B6A65
:1013A0009A4206D1FB6803F470127B685B6A9A422A
:1013B00001D0012300E0002318461837BD4680BD48
:1013C0000010024080B584B000AF786039607B685F
:1013D000002B01D10123A0E07B681B6803F002030E
:1013E000002B20D07B681B6803F00403002B05D082
:1013F0004C4B5B684B4A43F4E06353607B681B686B
:1014000003F00803002B05D0464B5B68454A43F4C4
:1014100060535360434B5B6823F0F0027B689B682A
:10142000404913434B607B681B6803F00103002BAA
:1014300040D07B685B68012B07D13A4B1B6803F4F3
:101440000033002B15D1012367E07B685B68022B1A
:1014500007D1344B1B6803F00073002B09D1012323
:101460005BE0304B1B6803F00203002B01D101232A
:1014700053E02C4B5B6823F003027B685B682949CF
:1014800013434B60FFF788F8F8600AE0FFF784F831
:101490000246FB68D31A41F28832934201D90323F2
:1014A0003BE0204B5B6803F00C027B685B689B00B1
:1014B0009A42EBD17B681B6803F00403002B08D031
:1014C000184B5B6823F4E0627B68DB6815491343C3
:1014D0004B607B681B6803F00803002B09D0114B9D
:1014E0005B6823F460527B681B69DB000D49134382
:1014F0004B6000F01FF802460A4B5B681B0903F0C3
:101500000F030949CB5C22FA03F3084A1360084B26
:101510001B681846FEF7FEFF002318461037BD462D
:1015200080BD00BF00100240C41600080800002063
:101530000C00002090B48EB000AF2A4B07F11404C9
:101540000FCB84E80F00284B3C1D0FCB84E80F0025
:101550000023FB620023BB6200237B6300237B62CA
:1015600000233B63214B5B68FB62FB6A03F00C03C7
:10157000042B02D0082B03D02AE01D4B3B632AE04A
:10158000FB6A9B0C03F00F0338333B4413F8243CF5
:101590007B62FB6A03F48033002B11D0134BDB6AB0
:1015A00003F00F0338333B4413F8343CBB627B6ACF
:1015B0000F4A03FB02F2BB6AB2FBF3F37B6304E066
:1015C0007B6A0C4A02FB03F37B637B6B3B6302E0A9
:1015D000074B3B6300BF3B6B18463837BD4690BC9A
:1015E000704700BFA4160008B4160008001002409F
:1015F00000127A0000093D0080B485B000AF786029
:101600000A4B1B680A4AA2FB03235B0A7A6802FBA7
:1016100003F3FB6000BFFB685A1EFA60002BF9D190
:1016200000BF00BF1437BD4680BC704708000020D3
:10163000D34D621070B500260C4D0D4C641BA410E8
:10164000A64209D100F022F800260A4D0A4C641B7C
:10165000A410A64205D170BD55F8043B9847013649
:10166000EEE755F8043B98470136F2E7D416000838
:10167000D4160008D4160008D81600080346024401
:10168000934200D1704703F8011BF9E7F8B500BF9A
:10169000F8BC08BC9E467047F8B500BFF8BC08BC53
:0416A0009E467047AB
:1016A40002030405060708090A0B0C0D0E0F10109F
:1016B4000102030405060708090A0B0C0D0E0F109E
:1016C40000000000000000000102030406070809EE
:0416D400F501000814
:0416D800D101000834
:1016DC0000FC0108560000000024F400100000007B
:0416EC0001000000F9
:04000005080004B13A
:00000001FF
