:020000040800F2
:1000000000200020051A0008291800082F180008F1
:10001000351800083B1800084118000800000000CF
:100020000000000000000000000000004718000869
:1000300053180008000000005F1800086B18000843
:100040004D1A00084D1A00084D1A00084D1A0008F4
:100050004D1A00084D1A00084D1A00084D1A0008E4
:100060004D1A00084D1A00084D1A00084D1A0008D4
:100070004D1A00084D1A00084D1A00084D1A0008C4
:100080004D1A00084D1A00084D1A00080000000023
:100090000000000000000000000000004D1A0008F1
:1000A0004D1A00084D1A00084D1A00084D1A000894
:1000B0004D1A00084D1A00084D1A00084D1A000884
:1000C0004D1A000800000000000000004D1A000852
:1000D0004D1A00084D1A00084D1A00084D1A000864
:1000E0004D1A00084D1A00084D1A000800000000C3
:1000F0000000000000000000000000000000000000
:1001000000000000000000000000000000000000EF
:1001100000000000000000004D1A00084D1A000801
:1001200000000000000000000000000000000000CF
:1001300000000000000000000000000000000000BF
:1001400000000000000000000000000000000000AF
:10015000000000000000000000000000000000009F
:10016000000000000000000000000000000000008F
:10017000000000000000000000000000000000007F
:10018000000000000000000000000000000000006F
:10019000000000000000000000000000000000005F
:1001A000000000000000000000000000000000004F
:1001B000000000000000000000000000000000003F
:1001C0000000000000000000000000005FF808F1DF
:1001D00010B5054C237833B9044B13B10448AFF381
:1001E00000800123237010BD1402002000000000D5
:1001F000686B000808B5034B1BB103490348AFF314
:10020000008008BD0000000018020020686B000894
:10021000034613F8012B002AFBD1181A0138704746
:1002200081F0004102E000BF83F0004330B54FEAA7
:1002300041044FEA430594EA050F08BF90EA020F14
:100240001FBF54EA000C55EA020C7FEA645C7FEAA7
:10025000655C00F0E2804FEA5454D4EB5555B8BFCA
:100260006D420CDD2C4480EA020281EA030382EA3B
:10027000000083EA010180EA020281EA0303362DCD
:1002800088BF30BD11F0004F4FEA01314FF4801CA0
:100290004CEA113102D0404261EB410113F0004FB2
:1002A0004FEA03334CEA133302D0524263EB430369
:1002B00094EA050F00F0A780A4F10104D5F1200E07
:1002C0000DDB02FA0EFC22FA05F2801841F1000162
:1002D00003FA0EF2801843FA05F359410EE0A5F136
:1002E00020050EF1200E012A03FA0EFC28BF4CF067
:1002F000020C43FA05F3C01851EBE37101F000451D
:1003000007D54FF0000EDCF1000C7EEB00006EEB29
:100310000101B1F5801F1BD3B1F5001F0CD34908B3
:100320005FEA30004FEA3C0C04F101044FEA44520A
:1003300012F5800F80F09A80BCF1004F08BF5FEA91
:10034000500C50F1000041EB045141EA050130BD71
:100350005FEA4C0C404141EB0101013C28BFB1F583
:10036000801FE9D291F0000F04BF01460020B1FACE
:1003700081F308BF2033A3F10B03B3F120020CDAA1
:100380000C3208DD02F1140CC2F10C0201FA0CF07F
:1003900021FA02F10CE002F11402D8BFC2F1200CE4
:1003A00001FA02F120FA0CFCDCBF41EA0C0190409A
:1003B000E41AA2BF01EB0451294330BD6FEA0404E3
:1003C0001F3C1CDA0C340EDC04F11404C4F12002CE
:1003D00020FA04F001FA02F340EA030021FA04F3E0
:1003E00045EA030130BDC4F10C04C4F1200220FA37
:1003F00002F001FA04F340EA0300294630BD21FA75
:1004000004F0294630BD94F0000F83F4801306BF3A
:1004100081F480110134013D4EE77FEA645C18BF2E
:100420007FEA655C29D094EA050F08BF90EA020FC5
:1004300005D054EA000C04BF1946104630BD91EABD
:10044000030F1EBF0021002030BD5FEA545C05D1C0
:100450004000494128BF41F0004130BD14F58004FF
:100460003CBF01F5801130BD01F0004545F0FE4173
:1004700041F470014FF0000030BD7FEA645C1ABFA8
:10048000194610467FEA655C1CBF0B46024650EADF
:10049000013406BF52EA033591EA030F41F400210B
:1004A00030BD00BF90F0000F04BF0021704730B591
:1004B0004FF4806404F132044FF000054FF0000166
:1004C00050E700BF90F0000F04BF0021704730B527
:1004D0004FF4806404F1320410F0004548BF4042FC
:1004E0004FF000013EE700BF42004FEAE2014FEA51
:1004F00031014FEA02701FBF12F07F4393F07F4F2C
:1005000081F06051704732F07F4208BF704793F02E
:100510007F4F04BF41F40021704730B54FF4607441
:1005200001F0004521F000411CE700BF50EA010244
:1005300008BF704730B54FF000050AE050EA0102ED
:1005400008BF704730B511F0004502D5404261EB5D
:1005500041014FF4806404F132045FEA915C3FF49E
:10056000D8AE4FF003025FEADC0C18BF03325FEA3B
:10057000DC0C18BF033202EBDC02C2F1200300FAEC
:1005800003FC20FA02F001FA03FE40EA0E0021FA11
:1005900002F11444BDE600BF70B54FF0FF0C4CF4FF
:1005A000E06C1CEA11541DBF1CEA135594EA0C0FB1
:1005B00095EA0C0F00F0DEF82C4481EA030621EAEC
:1005C0004C5123EA4C5350EA013518BF52EA033527
:1005D00041F4801143F4801338D0A0FB02CE4FF0D9
:1005E0000005E1FB02E506F00042E0FB03E54FF009
:1005F0000006E1FB03569CF0000F18BF4EF0010E01
:10060000A4F1FF04B6F5007F64F5407404D25FEAFC
:100610004E0E6D4146EB060642EAC62141EA5551AF
:100620004FEAC52040EA5E504FEACE2EB4F1FD0CF1
:1006300088BFBCF5E06F1ED8BEF1004F08BF5FEA6F
:10064000500E50F1000041EB045170BD06F0004621
:1006500046EA010140EA020081EA0301B4EB5C04CE
:10066000C2BFD4EB0C0541EA045170BD41F48011C6
:100670004FF0000E013C00F3AB8014F1360FDEBFEB
:10068000002001F0004170BDC4F10004203C35DAC7
:100690000C341BDC04F11404C4F1200500FA05F34A
:1006A00020FA04F001FA05F240EA020001F00042EB
:1006B00021F0004110EBD37021FA04F642EB060161
:1006C0005EEA430E08BF20EAD37070BDC4F10C048B
:1006D000C4F1200500FA04F320FA05F001FA04F24F
:1006E00040EA020001F0004110EBD37041F100013B
:1006F0005EEA430E08BF20EAD37070BDC4F1200546
:1007000000FA05F24EEA020E20FA04F301FA05F2AD
:1007100043EA020321FA04F001F0004121FA04F255
:1007200020EA020000EBD3705EEA430E08BF20EA25
:10073000D37070BD94F0000F0FD101F0004640005F
:1007400041EB010111F4801F08BF013CF7D041EAE1
:10075000060195F0000F18BF704703F000465200E5
:1007600043EB030313F4801F08BF013DF7D043EAB6
:100770000603704794EA0C0F0CEA135518BF95EA6C
:100780000C0F0CD050EA410618BF52EA4306D1D1F3
:1007900081EA030101F000414FF0000070BD50EA12
:1007A000410606BF1046194652EA430619D094EA9C
:1007B0000C0F02D150EA013613D195EA0C0F05D186
:1007C00052EA03361CBF104619460AD181EA0301DA
:1007D00001F0004141F0FE4141F470014FF0000092
:1007E00070BD41F0FE4141F4780170BD70B54FF02D
:1007F000FF0C4CF4E06C1CEA11541DBF1CEA1355AD
:1008000094EA0C0F95EA0C0F00F0A7F8A4EB05048E
:1008100081EA030E52EA03354FEA013100F0888085
:100820004FEA03334FF0805545EA131343EA12634E
:100830004FEA022245EA111545EA10654FEA002603
:100840000EF000419D4208BF964244F1FD0404F5BC
:10085000407402D25B084FEA3202B61A65EB030518
:100860005B084FEA32024FF480104FF4002CB6EBD5
:10087000020E75EB030E22BFB61A754640EA0C0055
:100880005B084FEA3202B6EB020E75EB030E22BF95
:10089000B61A754640EA5C005B084FEA3202B6EBD6
:1008A000020E75EB030E22BFB61A754640EA9C0095
:1008B0005B084FEA3202B6EB020E75EB030E22BF65
:1008C000B61A754640EADC0055EA060E18D04FEA23
:1008D000051545EA16754FEA06164FEAC30343EAC3
:1008E00052734FEAC2025FEA1C1CC0D111F4801F90
:1008F0000BD141EA00014FF000004FF0004CB6E789
:1009000011F4801F04BF01430020B4F1FD0C88BF27
:10091000BCF5E06F3FF6AFAEB5EB030C04BFB6EB32
:10092000020C5FEA500C50F1000041EB045170BD25
:100930000EF0004E4EEA113114EB5C04C2BFD4EB52
:100940000C0541EA045170BD41F480114FF0000ED6
:10095000013C90E645EA060E8DE60CEA135594EA52
:100960000C0F08BF95EA0C0F3FF43BAF94EA0C0F55
:100970000AD150EA01347FF434AF95EA0C0F7FF4CA
:1009800025AF104619462CE795EA0C0F06D152EA1E
:1009900003353FF4FDAE1046194622E750EA410602
:1009A00018BF52EA43067FF4C5AE50EA41047FF413
:1009B0000DAF52EA43057FF4EBAE12E74FF0FF3C78
:1009C00006E000BF4FF0010C02E000BF4FF0010C49
:1009D0004DF804CD4FEA410C7FEA6C5C4FEA430CC2
:1009E00018BF7FEA6C5C1BD001B050EA410C0CBF11
:1009F00052EA430C91EA030F02BF90EA020F002073
:100A0000704710F1000F91EA030F58BF994208BFD9
:100A100090422CBFD8176FEAE37040F00100704796
:100A20004FEA410C7FEA6C5C02D150EA013C07D1ED
:100A30004FEA430C7FEA6C5CD6D152EA033CD3D038
:100A40005DF8040B704700BF8446104662468C4632
:100A50001946634600E000BF01B5FFF7B7FF002865
:100A600048BF10F1000F01BD4DF808EDFFF7F4FF8E
:100A70000CBF012000205DF808FB00BF4DF808ED19
:100A8000FFF7EAFF34BF012000205DF808FB00BF3C
:100A90004DF808EDFFF7E0FF94BF012000205DF85E
:100AA00008FB00BF4DF808EDFFF7CEFF94BF012013
:100AB00000205DF808FB00BF4DF808EDFFF7C4FF0C
:100AC00034BF012000205DF808FB00BF4FEA410C55
:100AD0007FEA6C5C02D150EA013C0AD14FEA430C38
:100AE0007FEA6C5C02D152EA033C02D14FF0000075
:100AF00070474FF0010070474FEA410212F50012B3
:100B000015D211D56FF47873B3EB625212D94FEA54
:100B1000C12343F0004343EA505311F0004F23FA3E
:100B200002F018BF404270474FF00000704750EA93
:100B3000013005D111F0004008BF6FF00040704750
:100B40004FF00000704700BF80B483B000AF034691
:100B50000A46FB801346BB80FA88BB8813443F2BB0
:100B600001DCFB8803E0BB88C3F140039BB218465D
:100B70000C37BD4680BC704780B58EB004AFBA60FC
:100B80001A460346FB810B46BB811346FB800623B6
:100B9000FB61FB89FB84FA88BB891344002B00DAD4
:100BA0003F339B119AB2FB8913447B837A8BFB8C76
:100BB000D31A9BB201333B830023BB8400233B62E7
:100BC00034E0FA8CFB6902FA03F31AB2B7F90C307D
:100BD00013431BB2FB82BA89FB8811461846FFF704
:100BE000B3FF0346BB82BB8CBA681344F98A4FF447
:100BF0007A720292BA8A0192009302230A46A021D5
:100C00000F4801F063FCFB8C0133FB840023BB81A4
:100C1000FA88BB8AD31AFB80BA8CBB8A1344BB8484
:100C2000052000F06DFF3B6A01333B623B8B3A6A63
:100C30009A42C6DB00BF00BF2837BD4680BD00BF5B
:100C40003402002080B485B000AF786039603B6822
:100C5000BB600023FB730BE0FA7BFB7B79680B44E2
:100C600010323A4412F8082C1A70FB7B0133FB73E4
:100C7000FB7B032BF0D900BF00BF1437BD4680BCFF
:100C8000704780B487B000AF78600023FB750BE03D
:100C9000FB7D7A681A44FB7D127818333B4403F8D5
:100CA0000C2CFB7D0133FB75FB7D032BF0D9FB681E
:100CB0003B613B6918461C37BD4680BC704700004D
:100CC00080B582B000AF03463A60FB800B46BB8024
:100CD00039680648FFF7B6FFB988F8880423034A45
:100CE000FFF74AFF00BF0837BD4680BD3002002035
:100CF00080B584B000AF03460A46FB801346BB8034
:100D000007F10C02B988F888042300F00BF807F10A
:100D10000C031846FFF7B5FF034618461037BD46CB
:100D200080BD000080B58EB004AFBA601A4603469D
:100D3000FB810B46BB811346FB800623FB61FB89CD
:100D4000FB84FA88BB891344002B00DA3F339B11E4
:100D50009AB2FB8913447B837A8BFB8CD31A9BB2A8
:100D600001333B830023BB8400233B6231E0FA8CD8
:100D7000FB6902FA03F31AB2B7F90C3013431BB242
:100D8000FB82BA89FB8811461846FFF7DDFE034651
:100D9000BB82BB8CBA681344F98A4FF47A72029210
:100DA000BA8A0192009302230A46A0210D4801F05D
:100DB00087FCFB8C0133FB840023BB81FA88BB8A50
:100DC000D31AFB80BA8CBB8A1344BB843B6A0133C1
:100DD0003B623B8B3A6A9A42C9DB00BF00BF2837AF
:100DE000BD4680BD3402002080B598B004AF0346F4
:100DF000FB800623FB64FA88FB6C02FA03F3A7F876
:100E00004A3007F108034022FF21184602F0CCFFC8
:100E1000B7F84A204FF47A7302934023019307F105
:100E2000080300930223A021044801F04FFB052092
:100E300000F066FE00BF5037BD4680BD3402002082
:100E400080B582B000AF00F002FE00F09FF800F025
:100E500007F900F0D7F800F0B3F90021002000F006
:100E600017FB01223F49404800F0A8FB00F06CFA54
:100E700001224FF480613D4801F0CEF84FF4FA7042
:100E800000F03EFE00224FF48061384801F0C4F8C3
:100E900000237B6007E07B689BB21846FFF7A4FF46
:100EA0007B6801337B607B68B3F5007FF3DB304800
:100EB000FFF7AEF903469BB22D4A00210320FFF74E
:100EC0005BFE2C48FFF7A4F903469BB2294A142184
:100ED0000520FFF751FE284B1B681A46002106200B
:100EE000FFF7EEFE3223254A00210320FFF71AFF09
:100EF0003223234A14210520FFF714FF0021062086
:100F0000FFF7F6FE03461F4A136000F07CFB0A2140
:100F1000012000F0BDFA012212491B4800F04EFBEF
:100F20000A21302000F0B4FA164B1B68184600F076
:100F3000EFF81921012000F0ABFA012209490F480E
:100F400000F03CFB2821012000F0A2FA0122054913
:100F50000B4800F033FB00F0F7F90821012000F006
:100F6000F8F8FEE700000020806B00080010014048
:100F70000800002020000020340000209C020020F7
:100F80000003002064030020906B000880B590B03F
:100F900000AF07F1180328220021184602F004FFD1
:100FA0003B1D00221A605A609A60DA601A610223BF
:100FB000BB610123BB621023FB6200237B6307F14B
:100FC0001803184602F0EEFA0346002B01D000F099
:100FD000BBF80F237B600023BB600023FB60002372
:100FE0003B6100237B613B1D0021184602F05CFD44
:100FF0000346002B01D000F0A7F800BF4037BD46E4
:1010000080BD000080B500AF124B134A1A60114B2F
:10101000124A5A600F4B00229A600E4B0022DA608F
:101020000C4B4FF480421A610A4B00225A61094B63
:1010300000229A61074B0022DA61064B00221A62F5
:10104000044801F001F80346002B01D000F07CF8C1
:1010500000BF80BD3402002000540040801A06000A
:1010600080B588B000AF07F1100300221A605A6003
:101070009A60DA60244B9B69234A43F01003936122
:10108000214B9B6903F01003FB60FB681E4B9B69BF
:101090001D4A43F0200393611B4B9B6903F020031F
:1010A000BB60BB68184B9B69174A43F0040393610C
:1010B000154B9B6903F004037B607B68124B9B69B3
:1010C000114A43F0080393610F4B9B6903F0080337
:1010D0003B603B6800224FF4E0610C4800F09CFF4D
:1010E0004FF4E0633B6101237B610023BB6102237A
:1010F000FB6107F110031946044800F009FE00BF28
:101100002037BD4680BD00BF0010024000100140E6
:1011100080B582B000AF78607868FFF7E5F90246E5
:101120000B460649064803F0A7FA01220549044880
:1011300000F044FA00BF0837BD4680BD986B000838
:10114000880200200000002080B400AF72B600BF0B
:10115000FEE780B582B000AF03460A46FB71134636
:10116000BB7127220021782000F0D0FA0022002154
:10117000782000F0CBFAFB791A460021782000F0A5
:10118000C5FA00220021782000F0C0FABB791A4687
:101190000021782000F0BAFA00220021782000F027
:1011A000B5FAFF220021782000F0B0FA2F220021AA
:1011B000782000F0ABFA00BF0837BD4680BD0000C4
:1011C00080B582B000AF00F027FA44F62063012218
:1011D00078215B4801F0DCFC0346002B01D00023A2
:1011E000A9E040F6C4137B6002E07B68013B7B60B2
:1011F0007B68002BF9D1AE220021782000F086FA1E
:1012000020220021782000F081FA1022002178208D
:1012100000F07CFAB0220021782000F077FAC82292
:101220000021782000F072FA00220021782000F0DE
:101230006DFA10220021782000F068FA4022002187
:10124000782000F063FA81220021782000F05EFA15
:10125000FF220021782000F059FAA12200217820F5
:1012600000F054FAA6220021782000F04FFAA822BC
:101270000021782000F04AFA3F220021782000F077
:1012800045FAA4220021782000F040FAD322002160
:10129000782000F03BFA00220021782000F036FA96
:1012A000D5220021782000F031FAF02200217820A8
:1012B00000F02CFAD9220021782000F027FA22220F
:1012C0000021782000F022FADA220021782000F0B4
:1012D0001DFA12220021782000F018FADB220021EA
:1012E000782000F013FA20220021782000F00EFA76
:1012F0008D220021782000F009FA142200217820A4
:1013000000F004FAAF220021782000F0FFF92E222D
:101310000021782000F0FAF9002000F043F800F0F6
:1013200013F8084B00221A80064B00225A80054B06
:1013300001225A71012318460837BD4680BD00BFFF
:10134000340200206807002080B582B000AF00237F
:10135000FB711DE0FB79503BDBB21A46002178207F
:1013600000F0D4F900220021782000F0CFF91022FB
:101370000021782000F0CAF9FB79DB01084A1A4401
:1013800080234021782000F05BF9FB790133FB7169
:10139000FB79072BDED900BF00BF0837BD4680BDF3
:1013A0006803002080B582B000AF0346FB71FB7973
:1013B000002B01D1002300E0FF234FF48062194687
:1013C000034802F0F1FC00BF0837BD4680BD00BFF6
:1013D0006803002080B483B000AF0346FB800B4657
:1013E000BB801346FB70FB887F2B48D8BB883F2B04
:1013F00045D8254B1B79002B06D0FB78002B0CBF62
:1014000001230023DBB2FB70FB78012B1AD1FA8891
:10141000BB88DB0898B20346DB0113441B4AD35C4C
:101420005AB2BB8803F00703012101FA03F35BB250
:10143000134359B2FA880346DB011344C9B2134A75
:10144000D1541DE0FA88BB88DB0898B20346DB0163
:1014500013440E4AD35C5AB2BB8803F00703012140
:1014600001FA03F35BB2DB435BB2134059B2FA8873
:101470000346DB011344C9B2044AD15400E000BF63
:101480000C37BD4680BC7047680700206803002009
:1014900080B483B000AF03460A46FB801346BB808E
:1014A000054AFB881380044ABB88538000BF0C3771
:1014B000BD4680BC704700BF6807002080B586B07D
:1014C00000AF03463960FB711346BB713A4B1B8872
:1014D0001A463B681B7813447F2B07DC364B5B882E
:1014E0001A463B685B7813443F2B01DD00235EE026
:1014F00000237B614BE03B685A68FB79203B3968ED
:10150000497801FB03F319467B690B445B001344E4
:101510001B88FB6000233B6130E0FA683B6902FAFC
:1015200003F303F40043002B10D0234B1A883B69CC
:101530009BB2134498B2204B5A887B699BB21344E8
:101540009BB2BA791946FFF745FF14E01A4B1A8887
:101550003B699BB2134498B2174B5A887B699BB284
:10156000134499B2BB79002B0CBF01230023DBB2DB
:101570001A46FFF72FFF3B6901333B613B681B783D
:101580001A463B699342C8D37B6901337B613B6850
:101590005B781A467B699342ADD3074B1A883B6848
:1015A0001B789BB213449AB2034B1A80FB791846FE
:1015B0001837BD4680BD00BF6807002080B584B0E5
:1015C00000AFF860B9601346FB7112E0FB681B784E
:1015D000FA79B9681846FFF771FF03461A46FB68A7
:1015E0001B789A4202D0FB681B7808E0FB68013345
:1015F000FB60FB681B78002BE8D1FB681B78184662
:101600001037BD4680BD80B500AF0020FFF7CAFE91
:10161000FFF79AFE00BF80BD80B483B000AF074BD8
:101620007B6002E07B68013B7B607B68002BF9D12B
:1016300000BF00BF0C37BD4680BC704790D0030090
:1016400090B5C7B002AF0446084607F58871A1F50A
:1016500088710A60194607F58873A3F209132246B8
:101660001A7007F58873A3F5857302461A7007F59B
:101670008873A3F586730A461A8007F58873A3F565
:10168000827307F58872A2F5857212781A700023AA
:1016900087F80F3115E097F80F3107F58872A2F53A
:1016A000887212681A4497F80F310133117807F5E0
:1016B0008872A2F58272D15497F80F31013387F8FE
:1016C0000F3197F80F319BB207F58872A2F5867239
:1016D00012889A42DFD807F58873A3F209131B78A2
:1016E00099B207F58873A3F586731B8801339BB203
:1016F00007F10C020A200090034800F0E9FD00BF4A
:1017000007F58A77BD4690BD3402002080B586B0CB
:1017100002AF0346FB710B46BB7113467B71BB796D
:101720003B737B797B73FB7999B207F10C020A2337
:1017300000930223034800F0CBFD00BF1037BD46E5
:1017400080BD00BF3402002080B485B000AF154BCF
:101750009B69144A43F001039361124B9B6903F0A8
:101760000103BB60BB680F4BDB690E4A43F080533B
:10177000D3610C4BDB6903F080537B607B680A4BC1
:101780005B68FB60FB6823F0E063FB60FB6843F091
:101790000073FB60044AFB68536000BF1437BD460A
:1017A00080BC7047001002400000014080B588B046
:1017B00000AF786007F1100300221A605A609A6047
:1017C000DA607B681B68154A934223D1144B9B69EE
:1017D000134A43F008039361114B9B6903F008031C
:1017E000FB60FB68C0233B6112237B610323FB6129
:1017F00007F1100319460B4800F08AFA084BDB6921
:10180000074A43F40013D361054BDB6903F400136B
:10181000BB60BB6800BF2037BD4680BD00540040A0
:1018200000100240000C014080B400AFFEE780B41D
:1018300000AFFEE780B400AFFEE780B400AFFEE784
:1018400080B400AFFEE780B400AF00BFBD4680BCEF
:10185000704780B400AF00BFBD4680BC704780B405
:1018600000AF00BFBD4680BC704780B500AF00F040
:101870002BF900BF80BD80B400AF01231846BD46E0
:1018800080BC704780B582B000AF7860396002F0EC
:1018900061FA034616221A604FF0FF3318460837E4
:1018A000BD4680BD80B582B000AF78604FF0FF319B
:1018B0007868FFF7E7FFFEE780B586B000AFF86015
:1018C000B9607A6000237B610AE0AFF300800146D3
:1018D000BB685A1CBA60CAB21A707B6901337B615B
:1018E0007A697B689A42F0DB7B6818461837BD46F8
:1018F00080BD80B586B000AFF860B9607A60002323
:101900007B6109E0BB685A1CBA601B781846AFF3CC
:1019100000807B6901337B617A697B689A42F1DBE5
:101920007B6818461837BD4680BD80B483B000AFD1
:1019300078604FF0FF3318460C37BD4680BC7047C7
:1019400080B483B000AF786039603B684FF40052D8
:101950005A60002318460C37BD4680BC704780B4DF
:1019600083B000AF7860012318460C37BD4680BCB9
:10197000704780B485B000AFF860B9607A6000232A
:1019800018461437BD4680BC7047000080B586B04D
:1019900000AF7860144A154BD31A7B617B693B61B9
:1019A000134B1B68002B02D1114B124A1A60104BCB
:1019B0001A687B6813443A699A4207D202F0CAF95E
:1019C00003460C221A604FF0FF3309E0084B1B68F6
:1019D000FB60074B1A687B681344054A1360FB6879
:1019E00018461837BD4680BD0020002000040000C6
:1019F000700700208807002080B400AF00BFBD46FC
:101A000080BC70470C480D490D4A002302E0D458B1
:101A1000C4500433C4188C42F9D30A4A0A4C002338
:101A200001E013600432A242FBD3FFF7E5FF02F0AE
:101A300097F9FFF705FA7047000000201402002014
:101A4000247700081402002088070020FEE780B5F4
:101A500000AF032000F028F9002000F005F8FFF7A0
:101A600073FE0023184680BD80B582B000AF786059
:101A7000124B1A68124B1B7819464FF47A73B3FB5A
:101A8000F1F3B2FBF3F3184600F035F90346002BEF
:101A900001D001230EE07B680F2B0AD80022796861
:101AA0004FF0FF3000F00BF9064A7B68136000230B
:101AB00000E0012318460837BD4680BD38000020ED
:101AC000400000203C00002080B400AF054B1B7894
:101AD0001A46054B1B681344034A136000BFBD46FA
:101AE00080BC7047400000207407002080B400AF25
:101AF000024B1B681846BD4680BC70477407002027
:101B000080B584B000AF7860FFF7F0FFB8607B6805
:101B1000FB60FB68B3F1FF3F05D00A4B1B781A4608
:101B2000FB681344FB6000BFFFF7E0FF0246BB68A1
:101B3000D31AFA689A42F7D800BF00BF1037BD46E3
:101B400080BD00BF4000002080B485B000AF786049
:101B50007B6803F00703FB600C4BDB68BB60BA6873
:101B60004FF6FF031340BB60FB681A02BB681343C8
:101B700043F0BF6343F40033BB60044ABB68D360E7
:101B800000BF1437BD4680BC704700BF00ED00E0C9
:101B900080B400AF044BDB681B0A03F00703184650
:101BA000BD4680BC704700BF00ED00E080B483B04C
:101BB00000AF03463960FB7197F90730002B0ADB51
:101BC0003B68DAB20C4997F907301201D2B20B44E4
:101BD00083F800230AE03B68DAB20849FB7903F096
:101BE0000F03043B1201D2B20B441A7600BF0C372C
:101BF000BD4680BC704700BF00E100E000ED00E0A2
:101C000080B489B000AFF860B9607A60FB6803F017
:101C10000703FB61FB69C3F10703042B28BF0423FF
:101C2000BB61FB690433062B02D9FB69033B00E06F
:101C300000237B614FF0FF32BB6902FA03F3DA4302
:101C4000BB681A407B699A404FF0FF317B6901FA0B
:101C500003F3D9437B680B40134318462437BD4632
:101C600080BC704780B582B000AF78607B68013B74
:101C7000B3F1807F01D301230FE00A4A7B68013B67
:101C800053600F214FF0FF30FFF790FF054B00220C
:101C90009A60044B07221A60002318460837BD4695
:101CA00080BD00BF10E000E080B582B000AF78607A
:101CB0007868FFF749FF00BF0837BD4680BD80B593
:101CC00086B000AF0346B9607A60FB7300237B6186
:101CD000FFF75EFF78617A68B9687869FFF790FF6F
:101CE000024697F90F3011461846FFF75FFF00BF15
:101CF0001837BD4680BD80B582B000AF7860786887
:101D0000FFF7B0FF034618460837BD4680BD000008
:101D100080B48BB000AF7860396000237B62002311
:101D20003B6269E101227B6A02FA03F3FB613B68D3
:101D30001B68FA691340BB61BA69FB699A4240F0BB
:101D400058813B685B689A4A93425ED0984A9342B6
:101D500075D8984A934258D0964A93426FD8964A7B
:101D6000934252D0944A934269D8944A93424CD0B9
:101D7000924A934263D8924A934246D0904A934201
:101D80005DD8122B2AD8122B59D801A252F823F071
:101D90000B1E0008E51D0008F71D0008391E00088D
:101DA0003F1E00083F1E00083F1E00083F1E00089F
:101DB0003F1E00083F1E00083F1E00083F1E00088F
:101DC0003F1E00083F1E00083F1E00083F1E00087F
:101DD0003F1E0008ED1D0008011E0008794A9342CD
:101DE00013D02CE03B68DB683B6229E03B68DB6892
:101DF00004333B6224E03B68DB6808333B621FE04E
:101E00003B68DB680C333B621AE03B689B68002B45
:101E100002D104233B6213E03B689B68012B05D190
:101E200008233B627B68FA691A6109E008233B6278
:101E30007B68FA695A6103E000233B6200E000BF5F
:101E4000BB69FF2B01D87B6801E07B6804337B61B1
:101E5000BB69FF2B02D87B6A9B0002E07B6A083BD0
:101E60009B003B617B691A680F213B6901FA03F310
:101E7000DB431A40396A3B6901FA03F31A437B6971
:101E80001A603B685B6803F08053002B00F0B18060
:101E90004D4B9B694C4A43F0010393614A4B9B694C
:101EA00003F00103BB60BB68484A7B6A9B080233AE
:101EB00052F82330FB607B6A03F003039B000F2280
:101EC00002FA03F3DB43FA681340FB607B68404A85
:101ED000934213D07B683F4A93420DD07B683E4AC1
:101EE000934207D07B683D4A934201D1032306E029
:101EF000042304E0022302E0012300E000237A6AC5
:101F000002F0030292009340FA681343FB602F49EA
:101F10007B6A9B080233FA6841F823203B685B68C0
:101F200003F48033002B06D02D4B1A682C49BB6973
:101F300013430B6006E02A4B1A68BB69DB43284950
:101F400013400B603B685B6803F40033002B06D042
:101F5000234B5A682249BB6913434B6006E0204B70
:101F60005A68BB69DB431E4913404B603B685B68A2
:101F700003F48013002B06D0194B9A681849BB69EB
:101F800013438B6006E0164B9A68BB69DB43144928
:101F900013408B603B685B6803F40013002B21D077
:101FA0000F4BDA680E49BB691343CB6021E000BFD9
:101FB000000032100000311000002210000021103B
:101FC000000012100000111000100240000001403B
:101FD00000080140000C01400010014000140140C5
:101FE000000401400B4BDA68BB69DB43094913402D
:101FF000CB607B6A01337B623B681A687B6A22FA9A
:1020000003F3002B7FF48EAE00BF00BF2C37BD461C
:1020100080BC70470004014080B483B000AF78609A
:102020000B467B8013467B707B78002B03D07A882D
:102030007B681A6103E07B881A047B681A6100BF21
:102040000C37BD4680BC704780B584B000AF786067
:102050007B68002B01D101232BE17B6893F83D3095
:10206000DBB2002B06D17B68002283F83C20786825
:10207000FFF79CFB7B68242283F83D207B681B686C
:102080001A687B681B6822F001021A607B681B6873
:102090001A687B681B6842F400421A607B681B6800
:1020A0001A687B681B6822F400421A6001F020FE67
:1020B000F8607B685B68814A934207D8FB68804A76
:1020C000934294BF01230023DBB206E0FB687D4A04
:1020D000934294BF01230023DBB2002B01D00123E4
:1020E000E7E0FB68784AA2FB03239B0CBB607B689C
:1020F0001B685B6823F03F017B681B68BA680A4372
:102100005A607B681B681B6A23F03F017B685B6831
:102110006A4A934202D8BB68013309E0BB684FF4B6
:10212000967202FB03F3694AA2FB03239B09013366
:102130007A6812680B4313627B681B68DB6923F4BF
:102140004F4222F0FF027B685B685C498B4219D8E2
:10215000FB68591E7B685B685B00B1FBF3F3591C9D
:1021600040F6FC730B40002B0AD0FB68591E7B68BD
:102170005B685B00B1FBF3F30133C3F30B0351E086
:1021800004234FE07B689B68002B11D1FB68581E2D
:102190007B6859680B465B000B44B0FBF3F30133DB
:1021A000C3F30B03002B0CBF01230023DBB212E0AF
:1021B000FB68581E7B6859680B469B000B449900CE
:1021C0000B44B0FBF3F30133C3F30B03002B0CBF41
:1021D00001230023DBB2002B01D0012322E07B6826
:1021E0009B68002B0ED1FB68581E7B6859680B4614
:1021F0005B000B44B0FBF3F30133C3F30B0343F475
:1022000000430FE0FB68581E7B6859680B469B0033
:102210000B4499000B44B0FBF3F30133C3F30B03FE
:1022200043F44043796809681343CB617B681B68BA
:102230001B6823F0C0017B68DA697B681B6A1A435C
:102240007B681B680A431A607B681B689B6823F4E1
:10225000034323F0FF037A6811697A68D268114357
:102260007A6812680B4393607B681B68DB6823F015
:10227000FF017B685A697B689B691A437B681B680E
:102280000A43DA607B681B681A687B681B6842F047
:1022900001021A607B6800221A647B68202283F89E
:1022A0003D207B6800221A637B68002283F83E2071
:1022B000002318461037BD4680BD00BFA086010030
:1022C0007F841E00FF083D0083DE1B43D34D621058
:1022D00080B588B002AFF8607A601A460B467B8101
:1022E00013463B81FFF702FC7861FB6893F83D30B1
:1022F000DBB2202B40F0E0807B69009319230122A0
:102300007049F86800F072FF0346002B01D00223E9
:10231000D3E0FB6893F83C30012B01D10223CCE0E1
:10232000FB68012283F83C20FB681B681B6803F0F4
:102330000103012B07D0FB681B681A68FB681B6848
:1023400042F001021A60FB681B681A68FB681B6890
:1023500022F400621A60FB68212283F83D20FB68AA
:10236000102283F83E20FB6800221A64FB687A681A
:102370005A62FB683A895A85FB685B8D9AB2FB68A2
:102380001A85FB68504ADA6279897B693A6AF8688B
:1023900000F02CFD0346002B01D001238DE000232B
:1023A0003B61FB681B685B693B61FB681B689B6961
:1023B0003B613B6966E07A69396AF86800F0ECFFD6
:1023C0000346002B0DD0FB681B6C042B07D1FB6868
:1023D0001B681A68FB681B6842F400721A600123CC
:1023E0006BE0FB685B6A1A78FB681B681A61FB6824
:1023F0005B6A5A1CFB685A62FB685B8D9BB2013BAF
:102400009AB2FB685A85FB681B8D013B9AB2FB6848
:102410001A85FB681B685B6903F00403042B1BD15E
:10242000FB681B8D002B17D0FB685B6A1A78FB6872
:102430001B681A61FB685B6A5A1CFB685A62FB687E
:102440005B8D9BB2013B9AB2FB685A85FB681B8D82
:10245000013B9AB2FB681A857A69396AF86800F01C
:10246000DCFF0346002B0DD0FB681B6C042B07D14F
:10247000FB681B681A68FB681B6842F400721A60EC
:1024800001231AE0FB681B8D002B94D1FB681B68AD
:102490001A68FB681B6842F400721A60FB6820220D
:1024A00083F83D20FB68002283F83E20FB68002271
:1024B00083F83C20002300E0022318461837BD466D
:1024C00080BD00BF020010000000FFFF80B588B093
:1024D00002AFF860084611461A4603467B810B4658
:1024E0003B811346FB80FFF701FB7861FB6893F8A3
:1024F0003D30DBB2202B40F0D9807B69009319235B
:1025000001226D49F86800F071FE0346002B01D0EE
:102510000223CCE0FB6893F83C30012B01D102236D
:10252000C5E0FB68012283F83C20FB681B681B6840
:1025300003F00103012B07D0FB681B681A68FB68D6
:102540001B6842F001021A60FB681B681A68FB688E
:102550001B6822F400621A60FB68212283F83D2088
:10256000FB68402283F83E20FB6800221A64FB6867
:102570003A6A5A62FB68BA8C5A85FB685B8D9AB2DC
:10258000FB681A85FB684D4ADA62F8883A897989CE
:102590007B690193BB6A00930346F86800F0A8FCCE
:1025A0000346002B52D0012381E07A69B96AF868AA
:1025B00000F0F2FE0346002B0DD0FB681B6C042BD1
:1025C00007D1FB681B681A68FB681B6842F400723D
:1025D0001A6001236BE0FB685B6A1A78FB681B6872
:1025E0001A61FB685B6A5A1CFB685A62FB681B8DA8
:1025F000013B9AB2FB681A85FB685B8D9BB2013B7D
:102600009AB2FB685A85FB681B685B6903F0040398
:10261000042B1BD1FB681B8D002B17D0FB685B6A5A
:102620001A78FB681B681A61FB685B6A5A1CFB68B6
:102630005A62FB681B8D013B9AB2FB681A85FB68E6
:102640005B8D9BB2013B9AB2FB685A85FB681B8D80
:10265000002BAAD17A69B96AF86800F0DEFE034659
:10266000002B0DD0FB681B6C042B07D1FB681B688B
:102670001A68FB681B6842F400721A60012316E0B6
:10268000FB681B681A68FB681B6842F400721A60DA
:10269000FB68202283F83D20FB68002283F83E205F
:1026A000FB68002283F83C20002300E00223184648
:1026B0001837BD4680BD00BF020010000000FFFFBC
:1026C00080B58CB002AFF860084611461A46034642
:1026D0007B810B463B811346FB8000233B62FFF767
:1026E00005FA7862FB6893F83D30DBB2202B40F0AE
:1026F00044827B6A0093192301228249F86800F022
:1027000075FD0346002B01D0022337E2FB6893F8E6
:102710003C30012B01D1022330E2FB68012283F817
:102720003C20FB681B681B6803F00103012B07D0EA
:10273000FB681B681A68FB681B6842F001021A609C
:10274000FB681B681A68FB681B6822F400621A6049
:10275000FB68222283F83D20FB68402283F83E205C
:10276000FB6800221A64FB683A6B5A62FB68BA8EF7
:102770005A85FB685B8D9AB2FB681A85FB68624AD2
:10278000DA62F8883A8979897B6A0193BB6B009396
:102790000346F86800F042FC0346002B01D00123F9
:1027A000ECE1FB681B8D002B13D10023FB61FB6860
:1027B0001B685B69FB61FB681B689B69FB61FB69CC
:1027C000FB681B681A68FB681B6842F400721A6099
:1027D000C0E1FB681B8D012B1ED1FB681B681A68CA
:1027E000FB681B6822F480621A6072B600BF002387
:1027F000BB61FB681B685B69BB61FB681B689B690D
:10280000BB61BB69FB681B681A68FB681B6842F404
:1028100000721A6062B635E0FB681B8D022B1ED178
:10282000FB681B681A68FB681B6842F400621A6048
:1028300072B600BF00237B61FB681B685B697B612C
:10284000FB681B689B697B617B69FB681B681A6876
:10285000FB681B6822F480621A6062B612E0FB68B3
:102860001B681A68FB681B6842F480621A600023C8
:102870003B61FB681B685B693B61FB681B689B698C
:102880003B613B6966E1FB681B8D032B00F21F81F6
:10289000FB681B8D012B23D17A6AB96BF86800F0B5
:1028A000FDFD0346002B01D0012367E1FB681B6897
:1028B0001A69FB685B6AD2B21A70FB685B6A5A1CC1
:1028C000FB685A62FB681B8D013B9AB2FB681A8554
:1028D000FB685B8D9BB2013B9AB2FB685A8539E17C
:1028E000FB681B8D022B52D17B6A0093BB6B0022CD
:1028F0000649F86800F07AFC0346002B08D0012353
:102900003CE100BF020010000000FFFF04000100D6
:1029100072B600BFFB681B681A68FB681B6842F44C
:1029200000721A60FB681B681A69FB685B6AD2B2A6
:102930001A70FB685B6A5A1CFB685A62FB681B8D45
:10294000013B9AB2FB681A85FB685B8D9BB2013B29
:102950009AB2FB685A8562B600BFFB681B681A69A9
:10296000FB685B6AD2B21A70FB685B6A5A1CFB6830
:102970005A62FB681B8D013B9AB2FB681A85FB68A3
:102980005B8D9BB2013B9AB2FB685A85E2E07B6AA1
:102990000093BB6B00227B49F86800F027FC0346DC
:1029A000002B01D00123E9E0FB681B681A68FB6873
:1029B0001B6822F480621A6072B600BFFB681B6855
:1029C0001A69FB685B6AD2B21A70FB685B6A5A1CB0
:1029D000FB685A62FB681B8D013B9AB2FB681A8543
:1029E000FB685B8D9BB2013B9AB2FB685A85664BD4
:1029F0001B68DB08654AA2FB03231A0A13469B00E7
:102A00001344DA00D31A3B623B6A013B3B623B6AE8
:102A1000002B18D1FB6800221A63FB68202283F880
:102A20003D20FB68002283F83E20FB681B6C43F0CE
:102A30002002FB681A6462B600BFFB68002283F8BC
:102A40003C2001239AE0FB681B685B6903F00403E8
:102A5000042BD9D1FB681B681A68FB681B6842F419
:102A600000721A60FB681B681A69FB685B6AD2B265
:102A70001A70FB685B6A5A1CFB685A62FB681B8D04
:102A8000013B9AB2FB681A85FB685B8D9BB2013BE8
:102A90009AB2FB685A8562B600BFFB681B681A6968
:102AA000FB685B6AD2B21A70FB685B6A5A1CFB68EF
:102AB0005A62FB681B8D013B9AB2FB681A85FB6862
:102AC0005B8D9BB2013B9AB2FB685A8542E07A6A01
:102AD000B96BF86800F0E2FC0346002B01D001233B
:102AE0004CE0FB681B681A69FB685B6AD2B21A701B
:102AF000FB685B6A5A1CFB685A62FB681B8D013BD2
:102B00009AB2FB681A85FB685B8D9BB2013B9AB257
:102B1000FB685A85FB681B685B6903F00403042BA0
:102B200018D1FB681B681A69FB685B6AD2B21A701D
:102B3000FB685B6A5A1CFB685A62FB681B8D013B91
:102B40009AB2FB681A85FB685B8D9BB2013B9AB217
:102B5000FB685A85FB681B8D002B7FF494AEFB68E5
:102B6000202283F83D20FB68002283F83E20FB688A
:102B7000002283F83C20002300E002231846283777
:102B8000BD4680BD040001003800002089B5F8145E
:102B900080B58AB002AFF8607A603B600B467B81FB
:102BA000FEF7A4FFF8610123BB61FB6893F83D3099
:102BB000DBB2202B40F01181FB6900931923012225
:102BC0008849F86800F012FB0346002B01D002236D
:102BD00004E1FB6893F83C30012B01D10223FDE0B6
:102BE000FB68012283F83C20FB681B681B6803F02C
:102BF0000103012B07D0FB681B681A68FB681B6880
:102C000042F001021A60FB681B681A68FB681B68C7
:102C100022F400621A60FB68242283F83D20FB68DE
:102C200000221A64FB68704ADA62FB681B681A6843
:102C3000FB681B6842F480721A60FB6900933B6872
:102C400000224FF00111F86800F0D0FA0346002B83
:102C50000DD0FB681B681B6803F48073B3F5807F9D
:102C600003D1FB684FF400721A640323B6E07B893A
:102C7000DBB21A46FB681B6802F0FE021A61FEF71F
:102C800035FFF861FB681B685B6903F00203022BE8
:102C90000CBF01230023DBB2FB75FB681B685B697B
:102CA00003F48063B3F5806F0CBF01230023DBB214
:102CB000BB7525E0FEF71AFF0246FB69D31A3A6896
:102CC0009A4202D33B68002B03D1FB68A02283F811
:102CD0003D20FB681B685B6903F00203022B0CBFFD
:102CE00001230023DBB2FB75FB681B685B6903F4FF
:102CF0008063B3F5806F0CBF01230023DBB2BB758B
:102D0000FB6893F83D30DBB2A02B05D0FB7D002B98
:102D100002D1BB7D002BCDD0FB68202283F83D2063
:102D2000FB681B685B6903F00203022B29D1FB6877
:102D30001B681A68FB681B6842F400721A60002363
:102D40003B61FB681B685B693B61FB681B689B69B7
:102D50003B613B69FB690093192301222149F86813
:102D600000F044FA0346002B01D0012336E0FB6853
:102D7000202283F83D20FB68002283F83C200023BA
:102D80002CE0FB681B681A68FB681B6842F4007241
:102D90001A60FB681B686FF480625A61FB690093DC
:102DA000192301220F49F86800F020FA0346002B8E
:102DB00001D0012312E0BB690133BB61BA697B68B2
:102DC0009A42FFF432AFFB68202283F83D20FB6873
:102DD000002283F83C20012300E00223184620371C
:102DE000BD4680BD020010000000FFFF80B588B026
:102DF00002AFF8607A603B600B467B81FB68DB6A60
:102E00007B617B69082B06D07B69012B03D07B6932
:102E100013F5803F08D1FB681B681A68FB681B68C4
:102E200042F480721A600BE0FB681B6B122B07D117
:102E3000FB681B681A68FB681B6842F480721A60A2
:102E40003B6800937B6800224FF00111F86800F0A6
:102E5000CDF90346002B0DD0FB681B681B6803F4FB
:102E60008073B3F5807F03D1FB684FF400721A645E
:102E7000032335E0FB681B69B3F5804F08D17B89DC
:102E8000DBB21A46FB681B6802F0FE021A611BE007
:102E90007B89DB11DBB203F00603DBB263F00F03C7
:102EA000DAB2FB681B681A613B687A680E49F868F9
:102EB00000F0F3F90346002B01D0012310E07B89D9
:102EC000DAB2FB681B681A613B687A680749F868E0
:102ED00000F0E3F90346002B01D0012300E00023BA
:102EE00018461837BD4680BD0800010002000100E9
:102EF00080B588B002AFF860084611461A4603460E
:102F00007B810B463B811346FB80FB681B681A687C
:102F1000FB681B6842F480721A607B6A00933B6A0C
:102F200000224FF00111F86800F060F90346002B11
:102F30000DD0FB681B681B6803F48073B3F5807FBA
:102F400003D1FB684FF400721A6403235FE07B89AE
:102F5000DBB21A46FB681B6802F0FE021A617B6A4C
:102F60003A6A2D49F86800F098F90346002B01D021
:102F700001234CE000237B61FB681B685B697B617C
:102F8000FB681B689B697B617B697A6A396AF868B0
:102F900000F002FA0346002B0DD0FB681B6C042BDB
:102FA00007D1FB681B681A68FB681B6842F4007253
:102FB0001A6001232BE0FB88012B05D13B89DAB293
:102FC000FB681B681A6121E03B891B0A9BB2DAB2DD
:102FD000FB681B681A617A6A396AF86800F0DCF9E4
:102FE0000346002B0DD0FB681B6C042B07D1FB683C
:102FF0001B681A68FB681B6842F400721A600123A0
:1030000005E03B89DAB2FB681B681A6100231846A9
:103010001837BD4680BD00BF0200010080B588B0F2
:1030200002AFF860084611461A4603467B810B46FC
:103030003B811346FB80FB681B681A68FB681B68B2
:1030400042F480621A60FB681B681A68FB681B68A0
:1030500042F480721A607B6A00933B6A00224FF050
:103060000111F86800F0C2F80346002B0DD0FB6890
:103070001B681B6803F48073B3F5807F03D1FB6882
:103080004FF400721A640323AAE07B89DBB21A466C
:10309000FB681B6802F0FE021A617B6A3A6A5249B9
:1030A000F86800F0FAF80346002B01D0012397E0FE
:1030B00000237B61FB681B685B697B61FB681B68A5
:1030C0009B697B617B697A6A396AF86800F064F908
:1030D0000346002B0DD0FB681B6C042B07D1FB684B
:1030E0001B681A68FB681B6842F400721A600123AF
:1030F00076E0FB88012B05D13B89DAB2FB681B68BF
:103100001A6121E03B891B0A9BB2DAB2FB681B689B
:103110001A617A6A396AF86800F03EF90346002BB2
:103120000DD0FB681B6C042B07D1FB681B681A6869
:10313000FB681B6842F400721A60012350E03B896F
:10314000DAB2FB681B681A617A6A396AF86800F0BB
:1031500023F90346002B0DD0FB681B6C042B07D111
:10316000FB681B681A68FB681B6842F400721A60EF
:10317000012335E0FB681B681A68FB681B6842F492
:1031800080721A607B6A00933B6A00224FF0011143
:10319000F86800F02BF80346002B0DD0FB681B6885
:1031A0001B6803F48073B3F5807F03D1FB684FF491
:1031B00000721A64032313E07B89DBB243F001033E
:1031C000DAB2FB681B681A617B6A3A6A0649F868DA
:1031D00000F063F80346002B01D0012300E0002338
:1031E00018461837BD4680BD0200010080B584B086
:1031F00000AFF860B9603B601346FB7125E03B68A7
:10320000B3F1FF3F21D0FEF771FC0246BB69D31A30
:103210003A689A4202D33B68002B16D1FB68002221
:103220001A63FB68202283F83D20FB68002283F8A4
:103230003E20FB681B6C43F02002FB681A64FB68AD
:10324000002283F83C20012323E0BB681B0CDBB287
:10325000012B0DD1FB681B685B69DA43BB68134027
:103260009BB2002B0CBF01230023DBB21A460CE0FB
:10327000FB681B689B69DA43BB6813409BB2002B59
:103280000CBF01230023DBB21A46FB799A42B6D069
:10329000002318461037BD4680BD80B584B000AF0E
:1032A000F860B9607A603B6051E0FB681B685B695D
:1032B00003F48063B3F5806F23D1FB681B681A6841
:1032C000FB681B6842F400721A60FB681B686FF4AD
:1032D00080625A61FB6800221A63FB68202283F82F
:1032E0003D20FB68002283F83E20FB681B6C43F006
:1032F0000402FB681A64FB68002283F83C20012367
:1033000046E07B68B3F1FF3F21D0FEF7EFFB0246BA
:103310003B68D31A7A689A4202D37B68002B16D195
:10332000FB6800221A63FB68202283F83D20FB68BB
:10333000002283F83E20FB681B6C43F02002FB68F0
:103340001A64FB68002283F83C20012320E0BB685C
:103350001B0CDBB2012B0CD1FB681B685B69DA43E9
:10336000BB6813409BB2002B14BF01230023DBB2C8
:103370000BE0FB681B689B69DA43BB6813409BB298
:10338000002B14BF01230023DBB2002B8DD10023BF
:1033900018461037BD4680BD80B584B000AFF860D8
:1033A000B9607A602DE0F86800F0CEF80346002B93
:1033B00001D001232DE0BB68B3F1FF3F21D0FEF720
:1033C00095FB02467B68D31ABA689A4202D3BB685F
:1033D000002B16D1FB6800221A63FB68202283F8B9
:1033E0003D20FB68002283F83E20FB681B6C43F005
:1033F0002002FB681A64FB68002283F83C2001234A
:1034000007E0FB681B685B6903F08003802BCAD16F
:10341000002318461037BD4680BD80B584B000AF8C
:10342000F860B9607A602DE0F86800F08DF8034626
:10343000002B01D001232DE0BB68B3F1FF3F21D069
:10344000FEF754FB02467B68D31ABA689A4202D34D
:10345000BB68002B16D1FB6800221A63FB68202290
:1034600083F83D20FB68002283F83E20FB681B6C3C
:1034700043F02002FB681A64FB68002283F83C20BA
:10348000012307E0FB681B685B6903F00403042B5E
:10349000CAD1002318461037BD4680BD80B584B020
:1034A00000AFF860B9607A6042E0FB681B685B6956
:1034B00003F01003102B19D1FB681B686FF010028A
:1034C0005A61FB6800221A63FB68202283F83D20C2
:1034D000FB68002283F83E20FB681A6CFB681A64C4
:1034E000FB68002283F83C20012329E0FEF7FEFA66
:1034F00002467B68D31ABA689A4202D3BB68002B93
:1035000016D1FB6800221A63FB68202283F83D2055
:10351000FB68002283F83E20FB681B6C43F020020E
:10352000FB681A64FB68002283F83C20012307E053
:10353000FB681B685B6903F04003402BB5D1002397
:1035400018461037BD4680BD80B483B000AF7860A8
:103550007B681B685B6903F48063B3F5806F1BD1E4
:103560007B681B686FF480625A617B6800221A6373
:103570007B68202283F83D207B68002283F83E2070
:103580007B681B6C43F004027B681A647B68002232
:1035900083F83C20012300E0002318460C37BD4689
:1035A00080BC704780B586B000AF78607B68002B28
:1035B00001D1012372E27B681B6803F00103002B39
:1035C00000F08780924B5B6803F00C03042B0CD057
:1035D0008F4B5B6803F00C03082B12D18C4B5B689C
:1035E00003F48033B3F5803F0BD1894B1B6803F4A0
:1035F0000033002B6CD07B685B68002B68D1012303
:103600004CE27B685B68B3F5803F06D1804B1B685A
:103610007F4A43F4803313602EE07B685B68002BA5
:103620000CD17B4B1B687A4A23F480331360784BB0
:103630001B68774A23F4802313601DE07B685B6876
:10364000B3F5A02F0CD1724B1B68714A43F4802351
:1036500013606F4B1B686E4A43F4803313600BE0BA
:103660006B4B1B686A4A23F480331360684B1B68FA
:10367000674A23F4802313607B685B68002B13D0B8
:10368000FEF734FA386108E0FEF730FA02463B698B
:10369000D31A642B01D9032300E25D4B1B6803F4AA
:1036A0000033002BF0D014E0FEF720FA386108E078
:1036B000FEF71CFA02463B69D31A642B01D9032397
:1036C000ECE1534B1B6803F40033002BF0D100E016
:1036D00000BF7B681B6803F00203002B63D04C4BD8
:1036E0005B6803F00C03002B0BD0494B5B6803F0C5
:1036F0000C03082B1CD1464B5B6803F48033002B72
:1037000016D1434B1B6803F00203002B05D07B68E6
:103710001B69012B01D00123C0E13D4B1B6823F045
:10372000F8027B685B69DB00394913430B603AE0C0
:103730007B681B69002B20D0364B01221A60FEF7F4
:10374000D5F9386108E0FEF7D1F902463B69D31A92
:10375000022B01D90323A1E12D4B1B6803F00203C7
:10376000002BF0D02A4B1B6823F0F8027B685B69C2
:10377000DB00274913430B6015E0264B00221A603B
:10378000FEF7B4F9386108E0FEF7B0F902463B698C
:10379000D31A022B01D9032380E11D4B1B6803F0D0
:1037A0000203002BF0D17B681B6803F00803002B99
:1037B0003AD07B689B69002B19D0174B01221A6005
:1037C000FEF794F9386108E0FEF790F902463B698C
:1037D000D31A022B01D9032360E10D4B5B6A03F07E
:1037E0000203002BF0D0012000F096FA1CE00A4BF7
:1037F00000221A60FEF77AF938610FE0FEF776F9D9
:1038000002463B69D31A022B08D9032346E100BFC5
:10381000001002400000424280044242924B5B6A28
:1038200003F00203002BE9D17B681B6803F004035B
:10383000002B00F0A6800023FB758B4BDB6903F0A7
:103840008053002B0DD1884BDB69874A43F08053AE
:10385000D361854BDB6903F08053BB60BB680123F8
:10386000FB75824B1B6803F48073002B18D17F4BD0
:103870001B687E4A43F480731360FEF737F93861A2
:1038800008E0FEF733F902463B69D31A642B01D9ED
:10389000032303E1754B1B6803F48073002BF0D006
:1038A0007B68DB68012B06D16F4B1B6A6E4A43F0C5
:1038B000010313622DE07B68DB68002B0CD16A4B9F
:1038C0001B6A694A23F001031362674B1B6A664A4D
:1038D00023F0040313621CE07B68DB68052B0CD12A
:1038E000614B1B6A604A43F0040313625E4B1B6A20
:1038F0005D4A43F0010313620BE05B4B1B6A5A4ABB
:1039000023F001031362584B1B6A574A23F0040348
:1039100013627B68DB68002B15D0FEF7E7F838618F
:103920000AE0FEF7E3F802463B69D31A41F2883217
:10393000934201D90323B1E04B4B1B6A03F002030E
:10394000002BEED014E0FEF7D1F838610AE0FEF764
:10395000CDF802463B69D31A41F28832934201D92D
:1039600003239BE0404B1B6A03F00203002BEED1C4
:10397000FB7D012B05D13C4BDB693B4A23F0805397
:10398000D3617B68DB69002B00F08780364B5B6876
:1039900003F00C03082B61D07B68DB69022B46D156
:1039A000334B00221A60FEF7A1F8386108E0FEF7F9
:1039B0009DF802463B69D31A022B01D903236DE01F
:1039C000294B1B6803F00073002BF0D17B681B6A46
:1039D000B3F5803F08D1244BDB6A23F00F027B68EC
:1039E0009B6821491343CB621F4B5B6823F474121D
:1039F0007B68196A7B685B6A0B431B4913434B6006
:103A00001B4B01221A60FEF771F8386108E0FEF7DF
:103A10006DF802463B69D31A022B01D903233DE01E
:103A2000114B1B6803F00073002BF0D035E0104BF6
:103A300000221A60FEF75AF8386108E0FEF756F8DF
:103A400002463B69D31A022B01D9032326E0064B19
:103A50001B6803F00073002BF0D11EE07B68DB696C
:103A6000012B07D1012319E0001002400070004033
:103A7000600042420B4B5B68FB60FB6803F48032E2
:103A80007B681B6A9A4206D1FB6803F470127B685C
:103A90005B6A9A4201D0012300E0002318461837E0
:103AA000BD4680BD0010024080B584B000AF786094
:103AB00039607B68002B01D10123A0E07B681B6883
:103AC00003F00203002B20D07B681B6803F0040383
:103AD000002B05D04C4B5B684B4A43F4E0635360CA
:103AE0007B681B6803F00803002B05D0464B5B681E
:103AF000454A43F460535360434B5B6823F0F00244
:103B00007B689B68404913434B607B681B6803F0EC
:103B10000103002B40D07B685B68012B07D13A4B37
:103B20001B6803F40033002B15D1012367E07B6889
:103B30005B68022B07D1344B1B6803F00073002B2A
:103B400009D101235BE0304B1B6803F00203002B1B
:103B500001D1012353E02C4B5B6823F003027B6807
:103B60005B68294913434B60FDF7C0FFF8600AE02A
:103B7000FDF7BCFF0246FB68D31A41F2883293423C
:103B800001D903233BE0204B5B6803F00C027B6808
:103B90005B689B009A42EBD17B681B6803F00403CF
:103BA000002B08D0184B5B6823F4E0627B68DB686D
:103BB000154913434B607B681B6803F00803002B17
:103BC00009D0114B5B6823F460527B681B69DB00F2
:103BD0000D4913434B6000F01FF802460A4B5B6827
:103BE0001B0903F00F030949CB5C22FA03F3084ACF
:103BF0001360084B1B681846FDF736FF0023184674
:103C00001037BD4680BD00BF001002402C73000875
:103C1000380000203C00002090B48EB000AF2A4B4A
:103C200007F114040FCB84E80F00284B3C1D0FCB89
:103C300084E80F000023FB620023BB6200237B6348
:103C400000237B6200233B63214B5B68FB62FB6AC2
:103C500003F00C03042B02D0082B03D02AE01D4BE9
:103C60003B632AE0FB6A9B0C03F00F0338333B44B1
:103C700013F8243C7B62FB6A03F48033002B11D0E1
:103C8000134BDB6A03F00F0338333B4413F8343C27
:103C9000BB627B6A0F4A03FB02F2BB6AB2FBF3F31F
:103CA0007B6304E07B6A0C4A02FB03F37B637B6B60
:103CB0003B6302E0074B3B6300BF3B6B1846383762
:103CC000BD4690BC704700BFA06B0008B06B0008F9
:103CD0000010024000127A0000093D0080B400AFDD
:103CE000024B1B681846BD4680BC70473800002058
:103CF00080B500AFFFF7F2FF0246054B5B681B0A79
:103D000003F007030349CB5C22FA03F3184680BD96
:103D1000001002403C73000880B485B000AF7860AA
:103D20000A4B1B680A4AA2FB03235B0A7A6802FB60
:103D300003F3FB6000BFFB685A1EFA60002BF9D149
:103D400000BF00BF1437BD4680BC7047380000205C
:103D5000D34D6210014B1868704700BF440000202B
:103D600070B500260C4D0D4C641BA410A64209D161
:103D700002F0FAFE00260A4D0A4C641BA410A6426B
:103D800005D170BD55F8043B98470136EEE755F86C
:103D9000043B98470136F2E71C7700081C770008BF
:103DA0001C7700082077000803460244934200D1A4
:103DB000704703F8011BF9E7002B2DE9F0471F4678
:103DC000BBBF03F100431F4600232D2388B01446D8
:103DD000129A109D1370149BDDF84CA023F020085C
:103DE000B8F1460F05D0B8F1450F00D101350223D7
:103DF00000E0032307AA049206AACDE902A2CDE9B6
:103E0000003522463B4600F0E3FCB8F1470F06467A
:103E100002D1119BDB0722D5B8F1460F06EB05094D
:103E200010D13378302B0AD10022002320463946A6
:103E3000FCF71AFE18B9C5F10105CAF80050DAF806
:103E4000003099440022002320463946FCF70CFE3E
:103E500008B1CDF81C903022079B4B4507D3304664
:103E6000079B159A9B1B136008B0BDE8F087591C8F
:103E700007911A70F0E70346F7B5002903F8022B03
:103E8000B6BF2D222B224942092942702BDD0DF1AC
:103E90000704A4460A2791FBF7F60A46A64607FB45
:103EA0001615632A05F13005314604F1FF340EF88A
:103EB000015CF0DC3031AEF1020504F8011C29464A
:103EC000441C61450AD30DF10902A2EB0E026545BF
:103ED00088BF00221344181A03B0F0BD11F8012B5B
:103EE00004F8012FEDE7302330318370C170031DDA
:103EF000F1E700002DE9F04F91B00C46DDF8688045
:103F000016461F46054601F051FA03681846099304
:103F1000FCF77EF900230E93D8F800300A9007339F
:103F200023F0070303F1080294F81890D4F800B0C6
:103F3000C8F80020D3E90023C4E91223D4E9128A87
:103F40002AF000430B934FF0FF3240469C4B0B99F5
:103F5000FCF7BCFD70BB4FF0FF324046984B0B990D
:103F6000FCF796FD30BB0022002340465146FCF78B
:103F700085FD10B12D2384F84330924B9248B9F15E
:103F8000470F94BF9846804603234FF0000A2361F1
:103F90002BF00403236033462146284600970FAADE
:103FA00000F0D4F9013040F090804FF0FF3011B0B4
:103FB000BDE8F08F4246534640465146FCF786FD29
:103FC00048B1BAF1000FB8BF2D238048B8BF84F8BC
:103FD00043307F4BD3E7636809F0DF015A1C42D1BD
:103FE00006236360002206920EAACDE904920DAA70
:103FF0004BF4806303920DF13302CDE9013223606B
:10400000636842460093284653460B91FFF7D4FE5F
:104010000B99804647290D9908D1C81C02DB6368BB
:10402000994240DDA9F102095FFA89F9B9F1650FFA
:104030001FD84A46013904F150000D91FFF71BFFCC
:104040000E9A82461318012A236102DC2268D207E5
:1040500001D5013323619DF83330002B9BD02D23F4
:1040600084F8433097E74729BCD1002BBAD101230C
:10407000B7E7B9F1660F18D1002963680BDD21613C
:1040800013B92268D00702D501330B4423614FF0E6
:10409000000AA165DFE713B92268D20701D5023310
:1040A000F4E70123F2E74FF067090E9B994205DB25
:1040B00023682161D807EAD54B1CE7E70029CCBF6C
:1040C0000122C1F102021344E0E723685A0507D434
:1040D0002369424631462846B84701302BD164E770
:1040E000B9F1650F40F2DD80D4E91201002200230E
:1040F000FCF7BAFC002833D0012331462846354A64
:10410000B84701303FF451AFDDE90D239A4202DB9D
:104110002368D8070FD5DDE9092331462846B8477B
:1041200001303FF442AF4FF0000804F11A090E9B32
:10413000013B434509DC23689B0700F10281E068ED
:104140000F9B9842B8BF184631E701234A463146D3
:104150002846B84701303FF428AF08F10108E6E7E8
:104160000D9B002B38DC012331462846194AB847FD
:1041700001303FF41AAFDDE90D23134302D1236868
:10418000D907D8D5DDE9092331462846B84701309B
:104190003FF40BAF4FF0000904F11A0A0D9B5B428C
:1041A0004B4501DC0E9B94E70123524631462846DD
:1041B000B84701303FF4F9AE09F10109EEE700BF5D
:1041C000FFFFEF7F487300084C730008547300082A
:1041D00050730008587300080E9AA36D9A42A8BF46
:1041E0001A46002A914637DC4FF0000B29EAE9799C
:1041F00004F11A02D4F858A0AAEB09035B4533DC9A
:10420000DDE90D239A423BDB2368DA0738D40E9BA5
:104210000D99A3EB0A02A3EB01099145A8BF9146B2
:10422000B9F1000F34DC4FF0000829EAE97904F114
:104230001A0ADDE90D239B1AA3EB090343457FF717
:104240007AAF0123524631462846B84701303FF441
:10425000ACAE08F10108ECE7134631464246284669
:10426000B8470130C0D1A0E60123314628460B9261
:10427000B84701303FF499AE0B9A0BF1010BB9E747
:104280003146DDE909232846B8470130BFD18CE625
:104290004B463146284608EB0A02B8470130C2D1E6
:1042A00083E60E9A012A01DCDB0737D5012342465B
:1042B00031462846B84701303FF477AEDDE909239F
:1042C00031462846B84701303FF46FAED4E91201B9
:1042D00000220023FCF7C8FBD8B90E9B08F10102AD
:1042E000013B31462846B84701300ED15DE6012337
:1042F0004A4631462846B84701303FF456AE08F1E9
:1043000001080E9B013B4345F1DC534604F150028A
:10431000E0E64FF0000804F11A09F2E701234246F3
:10432000DFE701234A4631462846B84701303FF4CB
:104330003CAE08F10108E3680F995B1A4345F0DCD5
:10434000FDE64FF0000804F11909F4E72DE9F04704
:10435000164699468A680B6907469342B8BF1346CA
:10436000336091F843200C46DDF820800AB1013318
:1043700033602368990642BF33680233336025688F
:1043800015F0060506D104F1190AE36832689B1A94
:10439000AB4228DC94F84320131E226818BF012387
:1043A00092062DD44946384604F14302C0470130F5
:1043B00020D02368E56803F00603042B18BF00250E
:1043C00032684FF00006A36808BFAD1A226908BF23
:1043D00025EAE5759342C4BF9B1AED181A34B5421D
:1043E0001AD1002008E00123524649463846C0470A
:1043F000013003D14FF0FF30BDE8F0870135C4E74D
:104400003020E11881F843005A1C94F845102244EA
:10441000023382F84310C5E7012322464946384655
:10442000C0470130E6D00136D9E700002DE9FF474B
:104430000F7E9146782F80460C469A460C9D01F1DE
:10444000430207D8622F0AD8002F00F0D980582FD6
:1044500000F0A48004F1420584F842703AE0A7F12C
:104460006303152BF6D801A151F823F0C5440008C9
:10447000D944000855440008554400085544000834
:1044800055440008D9440008554400085544000824
:104490005544000855440008E74500080945000850
:1044A000C94500085544000855440008094600085D
:1044B00055440008094500085544000855440008C3
:1044C000D14500082B681A1D1B682A6004F14205BB
:1044D00084F842300123A4E020682968060601F12F
:1044E00004030AD50E682B60002E03DA2D237642D2
:1044F00084F843300A235E4819E00E6810F0400F3C
:104500002B6018BF36B2EFE72B682068191D2960B1
:10451000010601D51E6802E04606FBD51E886F2FF6
:104520000CBF08230A235248002184F84310656811
:10453000002DA8BF2168A560A4BF21F0040121605F
:104540000EB9002D4DD01546B6FBF3F103FB1167F4
:10455000C75D05F8017D3746BB420E46F4D9082BEE
:104560000BD12368DE0708D5236961689942DEBF55
:10457000302305F8013C05F1FF35521B22614B4603
:1045800021464046CDF800A003AAFFF7DFFE013028
:104590004CD14FF0FF3004B0BDE8F087344881F8CB
:1045A00045702968236851F8046B29601D0614D5ED
:1045B000DF0744BF43F0200323601EB9236823F0C4
:1045C000200323601023AFE7236843F02003236018
:1045D0007823284884F84530E3E7590648BFB6B247
:1045E000E6E71546BBE72B682668181D6169286059
:1045F00035061B6801D5196002E07006FBD51980ED
:10460000002315462361BAE72B6800211A1D2A6092
:104610001D686268284600F0D5FE08B1401B606046
:1046200063682361002384F84330A8E72A4649469B
:1046300040462369D0470130ABD023689B0713D491
:10464000E068039B9842B8BF1846A4E701233246AE
:1046500049464046D04701309BD00135E368039975
:104660005B1AAB42F2DCEBE7002504F11906F5E733
:104670005A7300086B7300080EB46FF0004100B568
:104680009CB01DAB0290069007910491084809491F
:1046900053F8042B0591006802A9019301F07CFBFB
:1046A0000022029B1A701CB05DF804EB03B0704747
:1046B000440000200802FFFF2DE9F74F03690C6951
:1046C0000746A342C0F28280013C00F1140501F1CB
:1046D000140805EB8403019358F8243055F824207E
:1046E00001339A42B2FBF3F64FEA840B08EB8409DC
:1046F00031D34FF0000E4046AC46F24650F8042B42
:1047000093B206FB03E3120C4FEA134E9BB206FB77
:1047100002E2AAEB0303DCF800A04FEA124E1FFAF4
:104720008AFA5344DCF800A092B2C2EB1A4202EBC0
:1047300023429BB243EA024381454FEA224A4CF8A6
:10474000043BDBD255F80B302BB9019B043B9D4257
:104750001A462FD33C61384601F0CEF8002825DBFD
:1047600028464FF0000C013658F8041BD0F800E042
:104770008BB2ACEB03031FFA8EF213440A0CC2EBAC
:104780001E4202EB23429BB243EA0243C1454FEA79
:10479000224C40F8043BE7D255F8242005EB840373
:1047A00022B9043B9D421A460AD33C61304603B00D
:1047B000BDE8F08F1268043B002ACBD1013CC6E76C
:1047C0001268043B002AF0D1013CEBE70020EEE741
:1047D0002DE9F04F16461F46446A99B00546CDE9CB
:1047E0000467DDF8948074B9102000F0E3FD024600
:1047F000686220B9EA21A84BA84801F0DDFBC0E9B6
:1048000001440460C4606B6A196851B15A6801239D
:1048100093404A608B60284600F030FE00226B6AAD
:104820001A603B1EAFBF0023012223F00043059313
:10483000A8BFC8F80030DDF81490994BB8BFC8F88D
:10484000002033EA090319D142F20F73249A13604E
:10485000C9F31303334300F07F85269B53B9914B73
:1048600022E0914B03930833269A1360039819B002
:10487000BDE8F08F8B4B03930333F5E7DDE9043498
:10488000CDE90C34DDE90C0100220023FCF7ECF843
:10489000804658B10123249A1360269B002B00F018
:1048A000588582481860431E0393DFE716AB0193D7
:1048B00017AB00932846DDE90C2301F0C5F8C9F3D6
:1048C0000A548346002C7FD0DDE90C010D9BA4F235
:1048D000FF34C3F3130343F07F5141F44011CDF88B
:1048E0004C800022724BFBF79FFC65A3D3E90023A9
:1048F000FBF752FE64A3D3E90023FBF797FC0646BF
:1049000020460F46FBF7DEFD61A3D3E90023FBF74A
:1049100043FE02460B4630463946FBF787FC064607
:104920000F46FCF7E9F8002282460023304639465C
:10493000FCF7A4F848B15046FBF7C4FD32463B46AD
:10494000FCF792F808B90AF1FF3ABAF1160F58D8F5
:10495000DDE90C01574B03EBCA03D3E90023FCF755
:104960008DF800284FD000230AF1FF3A0F93169BD1
:104970001C1B631E099349BFC4F101030023069366
:10498000002354BF06930993BAF1000F3DDB099B46
:10499000CDF838A05344099300230A93229B092B96
:1049A00000F28C80052BC4BF043B2293229BC8BF1E
:1049B0000024A3F10203D8BF0124032B00F28A8054
:1049C000DFE803F02D4F4D5BDDE916431C4404F294
:1049D0003243202BC3BFC3F1400304F2124009FA53
:1049E00003F3C3F12003C6BF26FA00F0184306FA0A
:1049F00003F0FBF757FD0123A1F1F871013C13937C
:104A00006FE70123B2E70F90B1E7069BA3EB0A0320
:104A10000693CAF100030A9300230E93BEE7002316
:104A20000B93239B002B58DC4FF001094B46CDF82C
:104A30002090CDF88C900022686A4260042202F136
:104A400014069E4241684ED9284600F0D7FC0390D8
:104A500000284CD102464FF4D571174BCCE6012308
:104A6000DEE700230B93239B0AEB030909F1010303
:104A7000012B0893B8BF0123DDE70123F2E700BF54
:104A800061436F63A787D23FB3C8608B288AC63F54
:104A9000FB799F501344D33F89730008A07300082B
:104AA0000000F07F857300087C73000859730008CC
:104AB0000000F83F90740008FB73000801240023F5
:104AC0000B9422934FF0FF3900221223CDF820904F
:104AD0002392B0E701230B93F4E7DDF88C904B466B
:104AE000CDF82090A7E7013141605200A7E76B6A3B
:104AF000039A1A60089B0E2B00F2A880002C00F08D
:104B0000A580BAF1000F34DD9A4A0AF00F0302EBD8
:104B1000C3031AF4807FD3E90034CDE910344FEA9F
:104B20002A1416D0DDE90C01934B0327D3E908239F
:104B3000FBF75CFECDE9040104F00F048E4E54B97E
:104B4000DDE91023DDE90401FBF750FECDE90401A6
:104B500029E00227F2E7E10708D5DDE91001D6E9EF
:104B60000023FBF719FDCDE9100101376410083669
:104B7000E5E700F0A580DDE90C01CAF100047D4BFA
:104B800004F00F0203EBC203D3E90023FBF704FD9B
:104B900002270023CDE90401774E2411002C40F0B8
:104BA0008480002BD2D10F9B002B00F08B80DDE99D
:104BB0000434CDE91034DDE9100100226F4BFBF71E
:104BC0005DFF00287ED0089B002B7BD0B9F1000F41
:104BD00038DDDDE910010022694BFBF7DDFC4C46B6
:104BE000CDE904010AF1FF3801373846FBF76AFCCA
:104BF000DDE90423FBF7D0FC0022624BFBF716FB38
:104C0000A1F15076CDE910011196002C5DD1DDE9BE
:104C1000040100225C4BFBF707FB02460B46CDE983
:104C200004233346109AFBF747FF002840F09C828C
:104C3000DDE90401109A06F10043FBF71FFF00288D
:104C400040F09082DDE90C34CDE90434179B002B51
:104C5000C0F25281BAF10E0F00F34E81454B03EBC7
:104C6000CA03D3E90034CDE90634239B002B80F23C
:104C7000DB80089B002B00F3D78040F07282DDE9D7
:104C800006010022404BFBF787FCDDE90423FBF71C
:104C900009FF089C2646002840F048823123039FE4
:104CA0000AF1010A07F8013B44E2E20705D5D6E91B
:104CB0000023FBF771FC01230137641008366DE710
:104CC000022770E7D046089C8FE70399294B2144BF
:104CD00012910B9903EBC403DDE9106753E902233A
:104CE000002955D000202949FBF780FD3B4632467C
:104CF000FBF79AFACDE91001039FDDE90401FBF708
:104D0000FBFE0446FBF7DEFB02460B46DDE9040131
:104D1000FBF78AFA02460B463034CDE90423DDE97D
:104D2000102307F8014BFBF7A9FE002874D1DDE939
:104D3000042300201149FBF777FADDE91023FBF784
:104D40009DFE002840F0B780129B9F423FF47AAF4F
:104D5000DDE9100100220A4BFBF71EFC0022CDE921
:104D60001001DDE90401064BFBF716FCCDE9040157
:104D7000C3E700BF90740008687400080000F03FAB
:104D80000000244000001C40000014400000E03FF0
:104D900030463946FBF700FC129BCDE91001039C1D
:104DA0001493DDE90401FBF7A7FE1590FBF78AFBDE
:104DB00002460B46DDE90401FBF736FA159B064671
:104DC000303304F8013B129B0F469C424FF0000227
:104DD00024D1DDE91001B04BFBF728FA02460B465F
:104DE00030463946FBF768FE002863D1DDE9102321
:104DF0000020A949FBF718FA02460B46304639460F
:104E0000FBF73CFE00283FF41DAF149F7B1E14935C
:104E100017F8013C302BF8D0C2463BE09F4BFBF724
:104E2000BBFBCDE90401BCE7039FDDE90489DDE9B3
:104E3000062340464946FBF7D9FCFBF75DFE0446D6
:104E4000FBF740FBDDE90623FBF7A6FB02460B461A
:104E500040464946FBF7E8F904F1300607F8016BD4
:104E6000039EDDF820C0BE1BB44502460B4636D17A
:104E7000FBF7DCF9DDE9062380468946FBF71CFEDB
:104E800058BBDDE9062340464946FBF7EDFD08B176
:104E9000E10722D42846594600F0F0FA00233B707F
:104EA000249B0AF101001860269B002B3FF4DEAC26
:104EB0001F60DBE427463B461F4613F8012D392AC5
:104EC00007D1039A9A42F7D13022039908F10108D9
:104ED0000A701A7801321A709EE7D046EBE700227A
:104EE0006E4BFBF759FB0022002380468946FBF7F7
:104EF000BBFD00289BD0CDE70B9A002A00F0D080A4
:104F0000229A012A00F3AE80139A002A00F0A680AC
:104F100003F233430A9C069F069A01211A44069223
:104F2000099A28461A44099200F05EFB0646002FB3
:104F30000CDD099B002B09DDBB42A8BF3B46069A4E
:104F4000FF1AD21A0692099AD31A09930A9BF3B14F
:104F50000B9B002B00F0A880002C10DD3146224670
:104F6000284600F0FFFB5A4601460646284600F058
:104F700051FB80465946284600F080FAC3460A9BFA
:104F80001A1B04D05946284600F0ECFB8346012149
:104F9000284600F029FB0E9B0446002B40F3868038
:104FA0001A460146284600F0DDFB229B0446012BF1
:104FB0007FDD4FF00008236904EB8303186900F0DC
:104FC000C5FAC0F12000099B184410F01F0000F042
:104FD0009280C0F12003042B40F38A80C0F11C00B2
:104FE000069B074403440693099B03440993069BCD
:104FF000002B05DD59461A46284600F00DFC834675
:10500000099B002B05DD21461A46284600F004FCCA
:1050100004460F9B002B70D02146584600F06CFCD4
:1050200000286ADA002359460A22284600F048FA86
:105030000B9B83460AF1FF3A002B00F09481314626
:1050400000230A22284600F03BFAB9F1000F064679
:1050500000F39380229B022B57DC8EE0169BC3F15A
:10506000360357E7089B5C1E0A9BA342B7BF0A9B07
:105070001C1BE21A0E9BBEBF0A949B180E93089B42
:10508000B8BF0024002BBBBF069B089A069F9F1A3F
:10509000ACBF089B00233FE70000E03F0000244036
:1050A0000A9C069F0B9E42E70A9A6BE7229B012B04
:1050B00019DC049BBBB9059BC3F313039BB9059B88
:1050C00023F000431B0D1B0583B14FF00108069B25
:1050D00001330693099B013309930E9B002B7FF448
:1050E0006AAF01206FE74FF00008F6E79846F4E753
:1050F0003FF47DAF18461C3072E7089B002B36DC6E
:10510000229B022B33DDDDF82090B9F1000F0DD189
:1051100021464B460522284600F0D2F901460446B6
:10512000584600F0E9FB00283FF7B8AD239B039FEA
:105130006FEA030A4FF000082146284600F09EF966
:10514000002E3FF4A7AEB8F1000F05D0B04503D054
:105150004146284600F092F93146284600F08EF983
:1051600098E600242646E1E7C246264696E50B9BD4
:10517000DDF82090002B00F0FD80002F05DD31468A
:105180003A46284600F048FB0646B8F1000F5CD0CE
:105190002846716800F032F9074628B9024640F205
:1051A000EA217F4BFFF728BB326906F10C0102327E
:1051B00092000C3000F014F901223946284600F024
:1051C0002BFBB0460646039B01330893039B4B44DD
:1051D0000A93049B03F001030993089B2146013BBA
:1051E00058460493FFF768FA034641463033069069
:1051F00058460B9300F080FB3246814621462846F4
:1052000000F096FBC26807460B9B02BB014658465E
:1052100000F072FB02460B9B39462846CDE90B3263
:1052200000F02CF9229B0C9A089F43EA0201099B8B
:105230000B430B9B0DD1392B29D0B9F1000F01DDA8
:10524000069B3133049A137076E73046B9E70122A2
:10525000E2E7B9F1000F06DB229941EA0909099951
:1052600059EA010120D1002AECDD594601222846E5
:10527000089300F0D1FA2146834600F03DFB002858
:10528000089B02DCDED1DA07DCD5392BD8D13923F3
:10529000049A13703B461F4617F8012C013B392A2C
:1052A00050D001321A7047E7002A03DD392BEED0C7
:1052B0000133C7E7089A0A9902F8013C8A422AD0CA
:1052C000594600230A22284600F0FAF8B0458346E2
:1052D0004FF000034FF00A024146284607D100F084
:1052E000EFF880460646089B0133089375E700F007
:1052F000E7F83146804600230A22284600F0E0F80D
:105300000646F0E7B9F1000FCCBF4F4601274FF03A
:105310000008039A1744594601222846089300F0D2
:105320007BFA2146834600F0E7FA0028B2DC02D17E
:10533000089BDB07AED43B461F4613F8012D302AED
:10534000FAD0F9E6039A9A42A5D131230AF1010A6B
:1053500079E7144BFFF7A8BA269B002B7FF481AAAC
:10536000114BFFF7A1BAB9F1000F03DC229B022B0E
:105370003FF7CBAE039F21465846FFF79DF9039AAE
:1053800000F1300307F8013BBA1A9145BADD5946DE
:1053900000230A22284600F093F88346EBE700BF7B
:1053A000FB730008587300087C73000800487047BE
:1053B00098010020024B0146186800F01DBC00BF98
:1053C00044000020034610B5C9B202449342184677
:1053D00001D1002003E0047801338C42F6D110BDE6
:1053E0000A44914200F1FF3300D1704710B511F823
:1053F000014B914203F8014FF9D110BD70B5466AD7
:1054000004460D4676B91020FFF7D4FF02466062CD
:1054100020B96621174B184800F0CEFDC0E901669F
:105420000660C660666AF36883B1636ADB6853F836
:105430002500B8B9012101FA05F6721D2046920037
:1054400000F05EFB60B1C0E901560EE021220421AC
:10545000204600F055FB636AF060DB68002BE4D166
:10546000002070BD026843F825200023C0E9033303
:10547000F7E700BF897300080C74000870B5466A2E
:1054800005460C4676B91020FFF794FF0246686285
:1054900020B98A21084B094800F08EFDC0E9016659
:1054A0000660C6603CB16B6A6268DB6853F8221024
:1054B000216043F8224070BD897300080C74000815
:1054C0002DE9F04107460C461E4600200D6901F10A
:1054D000140CDCF80030013099B202FB01611E0CA3
:1054E0000B0C02FB063389B201EB034185424FEA04
:1054F00013464CF8041BECDC0EB3A368AB4219DC7A
:10550000616838460131FFF779FF804628B90246C5
:10551000B5210C4B0C4800F04FFD226904F10C0141
:10552000023292000C30FFF75BFF21463846FFF74E
:10553000A5FF444604EB850301355E6125612046E5
:10554000BDE8F081FB7300080C740008020C120423
:105550000346CAB90304102013F07F4F04BF1B0297
:10556000083013F0704F04BF1B01043013F0404F9C
:1055700004BF9B000230002B05DB13F0804F00F1CD
:10558000010008BF202070470020E5E703680246BD
:1055900013F007000BD0D90721D4980749BF5B0847
:1055A0009B08012013605CBF02201360704799B212
:1055B00009B910201B0CD9B209B908301B0A190708
:1055C00004BF1B090430990704BF9B080230D907A8
:1055D00003D45B0800F1010003D013607047002082
:1055E000704720207047000010B50C460121FFF7DE
:1055F00005FF024628B94FF4A071044B044800F09F
:10560000DBFC01234461036110BD00BFFB73000894
:105610000C7400082DE9F04F91460A69D9F8103052
:105620000C469A42BEBF0B464C4699462769D9F8AC
:1056300010A0A368616807EB0A06B34285B0B8BF43
:105640000131FFF7DBFE30B9024640F25D11434BFA
:10565000434800F0B1FC00F114052B46002205EB95
:105660008608434521D304F1140303EB870709F1AE
:10567000140303EB8A0202923A1B153A22F003024A
:10568000043204F115018F4238BF04220192029ABC
:1056900003939A420CD8002E03DD58F8043D002BEA
:1056A00059D0066105B0BDE8F08F43F8042BD8E768
:1056B000B3F800A0BAF1000F23D0A9464FF0000CB8
:1056C00004F1140E5EF8042BD9F800101FFA82FBC7
:1056D00089B20AFB0B116144D9F800C0120C4FEAE1
:1056E0001C4C0AFB02C202EB114289B241EA0241A0
:1056F00077454FEA124C49F8041BE3D8019A45F864
:1057000002C0039A0433B2F80290B9F1000F20D01E
:10571000AE464FF0000A296804F1140CBCF800B042
:10572000BEF8022089B209FB0B22924441EA0A41E9
:105730004EF8041B5CF8042BBEF80010120C09FB99
:105740000211674501EB1A414FEA114AE6D8019A66
:10575000A95004359BE7013E9DE700BFFB7300089D
:105760000C7400082DE9F843154612F003020646B2
:105770000F4607D0254C013A002354F82220FFF7AA
:105780009FFE0746AD103DD0746A7CB91020FFF72C
:1057900011FE0246706228B94FF4D7711C4B1D48A8
:1057A00000F00AFCC0E901440460C460D6F824801B
:1057B000D8F808404CB940F271213046FFF714FF89
:1057C00000230446C8F8080003604FF00009EB0707
:1057D0000AD5394622463046FFF71CFF8046394637
:1057E0003046FFF74BFE47466D100BD0206838B9A6
:1057F000224621463046FFF70DFF2060C0F800909A
:105800000446E4E73846BDE8F88300BF5875000851
:10581000897300080C7400082DE9F0470C46074610
:1058200091462369496803EB6218A3684FEA621A3C
:1058300008F10106B3420BDB3846FFF7DFFD0546F2
:1058400048B9024640F2D911294B2A4800F0B4FB6E
:1058500001315B00EEE7002300F1140100F11002BA
:105860001846534537DB20692AEAEA7A04F1140323
:1058700019F01F0901EB8A0103EB80002FD08A4643
:105880004FF0000CC9F1200E1A6802FA09F242EA40
:105890000C024AF8042B53F8042B984222FA0EFC0F
:1058A000F2D8031B153B23F00303043304F1150264
:1058B000904238BF042341F803C0BCF1000F01D06F
:1058C00008F10206013E384621462E61FFF7D6FD5B
:1058D0002846BDE8F08742F8040F0133C1E70439D8
:1058E00053F8042B984241F8042FF9D8EAE700BF97
:1058F000FB7300080C74000803460A69006930B5A0
:10590000801A0DD11433143103EB820401EB8201B0
:1059100054F8045D51F8042D954202D004D30120BF
:1059200030BDA342F4D3FBE74FF0FF30F8E70000AF
:105930002DE9F84F0D460746114628461446FFF755
:10594000DBFF061E11D131463846FFF757FD0246F0
:1059500028B940F232213A4B3A4800F02DFB01239E
:10596000C0E904361046BDE8F88FA4BF23462C4694
:1059700038466168A6BF1D4600260126FFF73EFD9A
:10598000024618B94FF410712D4BE5E702F11408E7
:10599000C2464FF0000C2769C6602E6904F114005E
:1059A00005F1140900EB870E09EB8606103454F854
:1059B00004BF59F8043B1FFA8BF18C4499B21B0CBD
:1059C000ACEB0101C3EB1B4303EB214389B24FEA6C
:1059D000234C4E4541EA03434AF8043BE7D8731B86
:1059E000153B23F0030315350433AE4238BF0423BF
:1059F000184443441E46054675450ED30EF1030177
:105A0000091A21F003010338864538BF00211944E3
:105A100051F8043D8BB11761A4E755F8048B1FFAC8
:105A200088F161440C1404EB184489B241EA044142
:105A30004FEA244C46F8041BDEE7013FE8E700BFCD
:105A4000FB7300080C7400082DE9F3410121DDE926
:105A5000087690461D46FFF7D1FC044630B9024651
:105A600040F20A31244B254800F0A6FAC5F313038F
:105A7000C5F30A552DBB0193B8F1000326D0684643
:105A80000093FFF783FD0099F0B1019AC0F1200364
:105A900002FA03F30B43C24063610192019B002BA6
:105AA00014BF02210121A3612161C5B1A5F23345D3
:105AB0000544C0F135003D603060204602B0BDE8CD
:105AC000F08143F48013D6E76161E7E701A8FFF7AF
:105AD0005DFD0121019B216163612030E5E704EB5D
