:020000040800F2
:1000000000200020ED1000083D1100083D110008FF
:100010003D1100083D1100083D11000800000000DE
:100020000000000000000000000000003D1100087A
:100030003D110008000000003D1100083D110008BE
:100040003D1100083D1100083D1100083D11000858
:100050003D1100083D1100083D1100083D11000848
:100060003D1100083D1100083D1100083D11000838
:100070003D1100083D1100083D1100083D11000828
:100080003D1100083D1100083D110008000000006E
:100090000000000000000000000000003D1100080A
:1000A0003D1100083D1100083D1100083D110008F8
:1000B0003D1100083D1100083D11000829100008FD
:1000C0003D1000083D1100083D1100083D110008D9
:1000D0003D1100083D1100083D1100083D110008C8
:1000E0003D1100083D1100083D1100083D110008B8
:1000F0003D1100083D110008000000000000000054
:100100003D110008000000003D1100083D110008ED
:100110003D1100083D1100083D1100083D11000887
:100120003D1100083D1100083D1100083D11000877
:1001300010B5054C237833B9044B13B10448AFF321
:1001400000800123237010BD380000200000000053
:100150008811000808B5034B1BB103490348AFF3EE
:10016000008008BD000000003C000020881100084D
:10017000034613F8012B002AFBD1181A01387047E7
:1001800080B483B000AF78600B46FB70FB78002B27
:1001900036D07B68384A934206D1384B9B69374A40
:1001A00043F00403936161E07B68354A934206D1D2
:1001B000324B9B69314A43F00803936156E07B68F8
:1001C000304A934206D12D4B9B692C4A43F01003D1
:1001D00093614BE07B682C4A934206D1274B9B6985
:1001E000264A43F02003936140E07B68274A93420C
:1001F0003CD1224B9B69214A43F04003936135E097
:100200007B681D4A934206D11C4B9B691B4A23F015
:10021000040393612AE07B68194A934206D1174B85
:100220009B69164A23F0080393611FE07B68154A17
:10023000934206D1114B9B69104A23F0100393613E
:1002400014E07B68104A934206D10C4B9B690B4A21
:1002500023F02003936109E07B680C4A934205D1A7
:10026000064B9B69054A23F04003936100BF0C379E
:10027000BD4680BC704700BF00080140001002402E
:10028000000C014000100140001401400018014022
:1002900080B584B000AF78607B681B680121184688
:1002A000FFF76EFF7B689B681C2B40F29C807B688D
:1002B0009B68242B17D1994B9B687A68526801215F
:1002C00001FA02F21146954A0B439360934BDB68A7
:1002D0007A685268012101FA02F2D24311468F4A2C
:1002E0000B40D36035E07B689B68442B17D18B4B68
:1002F000DB687A685268012101FA02F21146874AE6
:100300000B43D360854B9B687A685268012101FAE0
:1003100002F2D2431146814A0B40936019E07B6898
:100320009B68842B15D17D4B9B687A6852680121AC
:1003300001FA02F21146794A0B439360774BDB686E
:100340007A685268012101FA02F21146734A0B439E
:10035000D3607B685B689B08FB737B685B68DBB280
:1003600003F00303BB737B681B686D4A93421DD087
:100370007B681B686B4A934216D07B681B686A4A8D
:1003800093420FD07B681B68684A934208D07B6811
:100390001B68674A934201D1042308E0002306E06A
:1003A000032304E0022302E0012300E000237B7327
:1003B000604B9B695F4A43F0010393617A7BBB7B8F
:1003C0009B0002FA03F15C4AFB7B023342F82310E4
:1003D000524B1B687A685268012101FA02F21146F9
:1003E0004E4A0B4313600023BB607B689B6803F09D
:1003F0001003002B06D07B689A687B68DB681A4381
:100400007B689A607B685B68072B61D87B689B6818
:10041000282B1BD17B681B685A697B685B680121AC
:1004200001FA03F3DB4319467B681B680A405A61F3
:100430007B681B685A697B685B68012101FA03F3DA
:1004400019467B681B680A435A611EE07B689B68FB
:10045000482B1AD17B681B681A697B685B6801218D
:1004600001FA03F3DB4319467B681B680A401A61F3
:100470007B681B681A697B685B68012101FA03F3DA
:1004800019467B681B680A431A617B689B6803F006
:100490000F027B685B689B0002FA03F3BA681343A0
:1004A000BB607B681B681A687B685B689B000F21D8
:1004B00001FA03F3DB4319467B681B680A401A60A4
:1004C0007B681B6819687B681B68BA680A431A60F6
:1004D0007B685B68072B75D90023BB607B689B68D2
:1004E000282B2BD17B681B685A697B685B680121CC
:1004F00001FA03F3DB4319467B681B680A405A6123
:100500007B681B685A697B685B68012101FA03F309
:1005100019467B681B680A435A612EE000040140BB
:1005200000080140000C014000100140001401408F
:100530000018014000100240000001407B689B68E9
:10054000482B1AD17B681B681A697B685B6801219C
:1005500001FA03F3DB4319467B681B680A401A6102
:100560007B681B681A697B685B68012101FA03F3E9
:1005700019467B681B680A431A617B689B6803F015
:100580000F027B685B68083B9B0002FA03F3BA68C2
:100590001343BB607B681B685A687B685B68083BD9
:1005A0009B000F2101FA03F3DB4319467B681B68AC
:1005B0000A405A607B681B6859687B681B68BA6888
:1005C0000A435A6000BF1037BD4680BD80B483B077
:1005D00000AF78600B46FB70FB785B00FB70FB782C
:1005E00023F00103FB70FA787B681A6100BF0C37B7
:1005F000BD4680BC704780B483B000AF78600B46C6
:10060000FB70FB785B00FB70FB7843F00103FB7031
:10061000FA787B681A6100BF0C37BD4680BC704712
:1006200080B584B000AF78607B681B689B6903F07D
:100630000103002B1FD07B681B7F012B12D17B682D
:100640001B6A012B1FD17B681B680021184600F034
:100650006BF97B681B685B69FB607B681B689B6947
:10066000FB6010E07B681B685B69FB607B681B6854
:100670009B69FB6007E07B681B685B69FB607B68CC
:100680001B689B69FB6000BF1037BD4680BD80B40E
:1006900083B000AF78607B681B6843F400727B68AE
:1006A0001A6000BF0C37BD4680BC704780B483B071
:1006B00000AF78600B46FB70FB78002B06D0094B2F
:1006C000DB69084A43F40013D36105E0054BDB699D
:1006D000044A23F40013D36100BF0C37BD4680BC2D
:1006E000704700BF0010024080B485B000AF224BBD
:1006F0005B689B08DBB203F003033B723B7A002B81
:1007000002D11E4BFB6004E03B7A012B01D11C4B54
:10071000FB60194B5B681B09DBB203F00F03FB7135
:10072000FB79072B02D801237B8105E0FB79083B8D
:10073000144A32F813307B810F4B5B681B0ADBB223
:1007400003F00703FB71FB79032B02D801237B72B3
:1007500004E0FB79043B0C4AD35C7B817B89FA681B
:10076000B2FBF3F27B7AB2FBF3F33B603B681846D3
:100770001437BD4680BC70470010024000127A005A
:1007800000093D00000000201400002080B483B068
:1007900000AF78600B46FB70FB78002B06D07B68BF
:1007A0001B6843F001027B681A6005E07B681B68E8
:1007B00023F001027B681A6000BF0C37BD4680BC85
:1007C0007047000080B584B000AF78607B681B681C
:1007D00001211846FFF76AFF0023FB607B685B7A04
:1007E0009B021A46FB681343FB607B681B68FA6830
:1007F0001A600023FB60FFF777FF0346474AA2FB1E
:1008000003239B0CFA681343FB607B681B68FA6840
:1008100002F03F025A600023FB607B681B7A5B009A
:100820001A46FB681343FB60FB6843F48043FB609C
:100830007B681B68FA689A6000237B810023FB6059
:100840007B685B68364A93420FD8FFF74DFF02463C
:100850007B685B685B00B2FBF3F37B817B89C3F34E
:100860000B03FA681343FB602DE0FB6843F400437D
:10087000FB607B689B7A9B031A46FB681343FB6013
:100880007B689B7A002B0BD1FFF72EFF01467B681C
:100890005A6813465B001344B1FBF3F37B810CE011
:1008A000FFF722FF01467B685A6813469B001344FA
:1008B0009A001344B1FBF3F37B817B89C3F30B03F1
:1008C000FA681343FB607B681B68FA68DA617B682F
:1008D0005B68134A934209D8FFF706FF03460F4AA5
:1008E000A2FB03239B0C0133FB600DE0FFF7FCFE32
:1008F00003464FF4967202FB03F35B0A094AA2FB1C
:100900000323DB090133FB607B681B68FA6802F094
:100910003F021A6200BF1037BD4680BD83DE1B4315
:10092000A0860100834B040080B483B000AF7860E0
:100930000B46FB70FB78012B06D17B681B6843F4E8
:1009400080627B681A6005E07B681B6823F4806224
:100950007B681A6000BF0C37BD4680BC7047000042
:1009600080B483B000AF03460A46FB711346BB71E7
:10097000BB79012B33D1FB791F2B0AD8344B1B6871
:10098000FA79012101FA02F21146314A0B43136050
:1009900059E0FB791F2B0FD9FB793F2B0CD82D4B3E
:1009A0001B68FA7902F01F02012101FA02F21146D6
:1009B000284A0B43136046E0FB79402B43D9FB796F
:1009C0005F2B40D8244B1B68FA7902F03F020121CB
:1009D00001FA02F21146204A0B43136033E0FB791F
:1009E0001F2B0AD81D4B1B68FA79012101FA02F26C
:1009F00011461A4A0B43136025E0FB791F2B0FD9D0
:100A0000FB793F2B0CD8164B1B68FA7902F01F02BA
:100A1000012101FA02F21146114A0B43136012E060
:100A2000FB79402B0FD9FB795F2B0CD80D4B1B6842
:100A3000FA7902F03F02012101FA02F21146094A55
:100A40000B431360FFE700BF0C37BD4680BC704707
:100A500000E100E004E100E008E100E080E100E006
:100A600084E100E088E100E080B483B000AF78600A
:100A70007B685B69002B0FD07B68DB681A787B682A
:100A80001B681A617B685B695A1E7B685A617B68C8
:100A9000DB685A1C7B68DA6000BF0C37BD4680BC3F
:100AA000704780B582B000AF78607B681B6A012B0D
:100AB0000BD17B681B681A697B681B69D2B21A70FC
:100AC0007B689B695A1E7B689A617B681B6A012B55
:100AD0001AD97B689B69022B05D17B681B680021B2
:100AE0001846FFF721FF7B681B681A697B681B6942
:100AF000D2B21A707B681B695A1C7B681A617B68CA
:100B00009B695A1E7B689A617B689B69002B10D198
:100B10007B6893F82430002B04D17B681B6818464F
:100B2000FFF7B5FD786800F008F80121786800F05B
:100B30008FFA00BF0837BD4680BD80B582B000AFD8
:100B400078607B681B685A687B681B6822F4806247
:100B50005A607B681B685A687B681B6822F40072C5
:100B60005A607B6800221A777B6800221A617B68D2
:100B700000229A617B6800221A627B685B7A012BF3
:100B800005D17B681B6801211846FFF7CDFE00BF29
:100B90000837BD4680BD80B483B000AF78607B6805
:100BA0001B685A687B681B6822F480625A607B6805
:100BB0001B685A687B681B6822F400725A607B6865
:100BC00000221A777B680022DA607B6800225A6173
:100BD00000BF0C37BD4680BC704780B483B000AF07
:100BE00078600B46FB70FB78012B12D17B685B6849
:100BF00043F400727B685A607B685B6843F48062F0
:100C00007B685A607B685B6843F480727B685A60DB
:100C100011E07B685B6823F400727B685A607B6834
:100C20005B6823F480627B685A607B685B6823F4AE
:100C300080727B685A6000BF0C37BD4680BC70472D
:100C400080B483B000AF78600B46FB70FA787B68A5
:100C50001A6100BF0C37BD4680BC704780B483B0BA
:100C600000AF78607B681B69DBB218460C37BD4665
:100C700080BC704780B586B000AF78607B681B6829
:100C80005B6803F400737B617B681B685B6803F43B
:100C900080633B617B681B685B6903F00103FB6059
:100CA0007B69002B1BD0FB68002B18D07B681B7F57
:100CB000022B08D17B681A687B685B7F1946104657
:100CC000FFF784FC0BE07B681B7F012B07D17B685F
:100CD0001A687B685B7F19461046FFF78CFC7B68BF
:100CE0001B685B6903F00203FB607B69002B05D086
:100CF000FB68002B02D07868FFF792FC7B681B68CA
:100D00005B6903F00403FB607B69002B22D0FB6866
:100D1000002B1FD07B681B7F022B1BD17B681B68BD
:100D20005B6903F08003002B14D07B685B69002BA8
:100D300010D17B6893F82430002B04D17B681B68AA
:100D40001846FFF7A4FC7868FFF725FF00217868B4
:100D500000F07EF97B681B685B6903F01003FB60A1
:100D60007B69002B0CD0FB68002B09D07B681A68CC
:100D70007B681B6812681A600221786800F068F9C5
:100D80007B681B685B6903F08003FB607B69002B59
:100D90001FD03B69002B1CD0FB68002B19D07B684F
:100DA0001B689B6903F00103002B07D07B681B7F46
:100DB000022B0ED17868FFF757FE0AE07B681B68AC
:100DC0009B6903F00403002B03D00821786800F02E
:100DD0003FF97B681B685B6903F04003FB607B693C
:100DE000002B1FD03B69002B1CD0FB68002B19D0B7
:100DF0007B681B689B6903F00103002B07D07B68AD
:100E00001B7F012B0ED17868FFF74BFE0AE07B6851
:100E10001B689B6903F00403002B03D10921786848
:100E200000F016F900BF1837BD4680BD80B584B00C
:100E300000AF78607B681B685B6803F48073FB60BD
:100E40007B681B685B6903F48073BB60BB68002B25
:100E50000ED0FB68002B0BD07B681B685A697B683F
:100E60001B6822F480725A610321786800F0F0F860
:100E70007B681B685B6903F40073BB60BB68002B75
:100E80000ED0FB68002B0BD07B681B685A697B680F
:100E90001B6822F400725A610421786800F0D8F8C7
:100EA0007B681B685B6903F48063BB60BB68002BD5
:100EB0000ED0FB68002B0BD07B681B685A697B68DF
:100EC0001B6822F480625A610521786800F0C0F83E
:100ED0007B681B685B6903F40063BB60BB68002B25
:100EE0000ED0FB68002B0BD07B681B685A697B68AF
:100EF0001B6822F400625A610621786800F0A8F8A5
:100F00007B681B685B6903F48043BB60BB68002B94
:100F10000ED0FB68002B0BD07B681B685A697B687E
:100F20001B6822F480425A610721786800F090F82B
:100F300000BF1037BD4680BD80B58CB000AF1B4BE5
:100F40003B621C23BB620323FB6206237B6207F127
:100F500020031846FFF79CF907237B6207F1200363
:100F60001846FFF795F9114B3B611023BB61012334
:100F70007B610123FB6107F110031846FFF788F935
:100F800002237B6107F110031846FFF781F9084B34
:100F90003B602823BB6000237B603B461846FFF77D
:100FA00077F900BF3037BD4680BD00BF000C01405F
:100FB0000008014080B500AF094B0A4A1A60084B8F
:100FC00001225A72064B69221A72054B00229A724C
:100FD000034B054A5A600248FFF7F4FB00BF80BD8F
:100FE0005400002000540040A086010080B500AFEE
:100FF000FFF7A2FFFFF7DEFF01211F20FFF7B0FC84
:1010000001212020FFF7ACFC01210648FFF7E5FD98
:1010100001210448FFF7BAFB01210248FFF784FCD5
:10102000FEE700BF0054004080B500AF0248FFF764
:1010300021FE00BF80BD00BF5400002080B500AF7E
:101040000248FFF7F3FE00BF80BD00BF5400002040
:1010500090B583B000AF78600B46FB70FB78082B2F
:1010600023D11F4B1B78512B0BD17B681C681D486B
:10107000FFF77EF80346DBB219462046FFF7E0FD96
:1010800029E0174B1B78522B25D17B681A68164B29
:101090001B78591CC8B2144908701946114B5B5C87
:1010A00019461046FFF7CCFD15E0FB78092B09D156
:1010B0007B681B681846FFF7D1FD03461A46084BAC
:1010C0001A7008E0FB78052B05D1054BFF221A703A
:1010D000054B00221A7000BF0C37BD4690BD00BF03
:1010E0007C000020180000207D0000200D4885466F
:1010F000AFF300800C480D490D4A002302E0D4589C
:10110000C4500433C4188C42F9D30A4A0A4C002351
:1011100001E013600432A242FBD300F011F8FFF7A4
:1011200065FFFEE7002000200000002038000020BE
:10113000A81100083800002080000020FEE7000011
:1011400070B500260C4D0D4C641BA410A64209D1AD
:1011500000F01AF800260A4D0A4C641BA410A6429F
:1011600005D170BD55F8043B98470136EEE755F8B8
:10117000043B98470136F2E7A0110008A0110008CF
:10118000A0110008A4110008F8B500BFF8BC08BC05
:101190009E467047F8B500BFF8BC08BC9E46704735
:0411A00055010008ED
:0411A400310100080D
:1011A8000200040008001000200040008000000138
:1011B800000200000204081054657374696E672009
:1011C80049324320736C617665206D6F64652054E5
:0811D800782E2E2E0A00000003
:04000005080010EDF2
:00000001FF
