:020000040800F2
:10000000002000206D0F0008BD0F0008BD0F000884
:10001000BD0F0008BD0F0008BD0F00080000000064
:10002000000000000000000000000000BD0F0008FC
:10003000BD0F000800000000BD0F0008BD0F000844
:10004000BD0F0008BD0F0008BD0F0008BD0F000860
:10005000BD0F0008BD0F0008550F0008BD0F0008B8
:10006000BD0F0008BD0F0008BD0F0008BD0F000840
:10007000BD0F0008BD0F0008BD0F0008BD0F000830
:10008000BD0F0008BD0F0008BD0F000800000000F4
:10009000000000000000000000000000BD0F00088C
:1000A000BD0F0008BD0F0008BD0F0008BD0F000800
:1000B000BD0F0008BD0F0008BD0F0008BD0F0008F0
:1000C000BD0F0008BD0F0008BD0F0008D50E0008C9
:1000D000BD0F0008BD0F0008BD0F0008BD0F0008D0
:1000E000BD0F0008BD0F0008BD0F0008BD0F0008C0
:1000F000BD0F0008BD0F0008000000000000000058
:10010000BD0F000800000000BD0F0008BD0F000873
:10011000BD0F0008BD0F0008BD0F0008BD0F00088F
:10012000BD0F0008BD0F0008BD0F0008BD0F00087F
:1001300010B5054C237833B9044B13B10448AFF321
:1001400000800123237010BD00000020000000008B
:100150001810000808B5034B1BB103490348AFF35F
:10016000008008BD000000000400002018100008F6
:1001700010F8012B11F8013B012A28BF9A42F7D051
:10018000D01A704780B483B000AF78600B46FB7024
:10019000FB78002B36D07B68384A934206D1384B27
:1001A0009B69374A43F00403936161E07B68354AF9
:1001B000934206D1324B9B69314A43F00803936165
:1001C00056E07B68304A934206D12D4B9B692C4AFE
:1001D00043F0100393614BE07B682C4A934206D1B5
:1001E000274B9B69264A43F02003936140E07B68DC
:1001F000274A93423CD1224B9B69214A43F040035A
:10020000936135E07B681D4A934206D11C4B9B6984
:100210001B4A23F0040393612AE07B68194A934246
:1002200006D1174B9B69164A23F0080393611FE020
:100230007B68154A934206D1114B9B69104A23F003
:100240001003936114E07B68104A934206D10C4B73
:100250009B690B4A23F02003936109E07B680C4AF9
:10026000934205D1064B9B69054A23F040039361F5
:1002700000BF0C37BD4680BC704700BF000801407E
:1002800000100240000C0140001001400014014029
:100290000018014080B584B000AF78607B681B68AF
:1002A00001211846FFF76EFF7B689B681C2B40F20C
:1002B0009C807B689B68242B17D1994B9B687A683C
:1002C0005268012101FA02F21146954A0B439360EC
:1002D000934BDB687A685268012101FA02F2D2433B
:1002E00011468F4A0B40D36035E07B689B68442BF6
:1002F00017D18B4BDB687A685268012101FA02F250
:100300001146874A0B43D360854B9B687A685268D5
:10031000012101FA02F2D2431146814A0B40936057
:1003200019E07B689B68842B15D17D4B9B687A68AC
:100330005268012101FA02F21146794A0B43936097
:10034000774BDB687A685268012101FA02F21146A4
:10035000734A0B43D3607B685B689B08FB737B68C5
:100360005B68DBB203F00303BB737B681B686D4AF9
:1003700093421DD07B681B686B4A934216D07B6802
:100380001B686A4A93420FD07B681B68684A934295
:1003900008D07B681B68674A934201D1042308E0B8
:1003A000002306E0032304E0022302E0012300E02F
:1003B00000237B73604B9B695F4A43F001039361A9
:1003C0007A7BBB7B9B0002FA03F15C4AFB7B023326
:1003D00042F82310524B1B687A685268012101FAD7
:1003E00002F211464E4A0B4313600023BB607B6848
:1003F0009B6803F01003002B06D07B689A687B682B
:10040000DB681A437B689A607B685B68072B61D85E
:100410007B689B68282B1BD17B681B685A697B68AB
:100420005B68012101FA03F3DB4319467B681B6813
:100430000A405A617B681B685A697B685B680121C6
:1004400001FA03F319467B681B680A435A611EE0F0
:100450007B689B68482B1AD17B681B681A697B688C
:100460005B68012101FA03F3DB4319467B681B68D3
:100470000A401A617B681B681A697B685B68012106
:1004800001FA03F319467B681B680A431A617B680B
:100490009B6803F00F027B685B689B0002FA03F322
:1004A000BA681343BB607B681B681A687B685B682B
:1004B0009B000F2101FA03F3DB4319467B681B689D
:1004C0000A401A607B681B6819687B681B68BA68F9
:1004D0000A431A607B685B68072B75D90023BB60F1
:1004E0007B689B68282B2BD17B681B685A697B68CB
:1004F0005B68012101FA03F3DB4319467B681B6843
:100500000A405A617B681B685A697B685B680121F5
:1005100001FA03F319467B681B680A435A612EE00F
:100520000004014000080140000C0140001001409F
:10053000001401400018014000100240000001407A
:100540007B689B68482B1AD17B681B681A697B689B
:100550005B68012101FA03F3DB4319467B681B68E2
:100560000A401A617B681B681A697B685B68012115
:1005700001FA03F319467B681B680A431A617B681A
:100580009B6803F00F027B685B68083B9B0002FAE4
:1005900003F3BA681343BB607B681B685A687B68C7
:1005A0005B68083B9B000F2101FA03F3DB4319460C
:1005B0007B681B680A405A607B681B6859687B68C7
:1005C0001B68BA680A435A6000BF1037BD4680BD39
:1005D00080B483B000AF78600B46FB707B68DB684B
:1005E000FA78012101FA02F25A407B68DA6000BF12
:1005F0000C37BD4680BC704780B483B000AF034663
:100600000A46FB711346BB71BB79012B33D1FB79D1
:100610001F2B0AD8344B1B68FA79012101FA02F228
:100620001146314A0B43136059E0FB791F2B0FD958
:10063000FB793F2B0CD82D4B1B68FA7902F01F0277
:10064000012101FA02F21146284A0B43136046E0E9
:10065000FB79402B43D9FB795F2B40D8244B1B6897
:10066000FA7902F03F02012101FA02F21146204A12
:100670000B43136033E0FB791F2B0AD81D4B1B681B
:10068000FA79012101FA02F211461A4A0B4313606A
:1006900025E0FB791F2B0FD9FB793F2B0CD8164B8C
:1006A0001B68FA7902F01F02012101FA02F21146D9
:1006B000114A0B43136012E0FB79402B0FD9FB79F1
:1006C0005F2B0CD80D4B1B68FA7902F03F02012119
:1006D00001FA02F21146094A0B431360FFE700BF1B
:1006E0000C37BD4680BC704700E100E004E100E04B
:1006F00008E100E080E100E084E100E088E100E062
:1007000080B485B000AF03463960FB71FB799B086C
:10071000FB73FB7903F00303BB73BB7BDB00DBB232
:1007200004337B73FB7B9B0003F1604303F564435D
:1007300019687B7B3A689A40FB7B9B0003F160431E
:1007400003F564430A431A6000BF1437BD4680BCFA
:100750007047000080B483B000AF0346FB710C4BC0
:100760005B69FA79012101FA02F21340002B09D0EA
:10077000074B5B69FA79012101FA02F21146044A3A
:100780000B43536100BF0C37BD4680BC704700BFB0
:100790000004014080B483B000AF78600B46FB706A
:1007A000FB78002B06D0094B9B69084A43F4805321
:1007B000936105E0054B9B69044A23F480539361E0
:1007C00000BF0C37BD4680BC704700BF0010024020
:1007D00080B584B000AF78607B681B680121184643
:1007E000FFF7D8FF0023FB607B681B799B001A464C
:1007F000FB681343FB607B685B79012B04D1FB68CA
:1008000023F40043FB6014E07B685B79022B04D186
:10081000FB6843F40043FB600BE07B685B79032BD0
:1008200007D1FB6823F40043FB60FB6843F480635B
:10083000FB607B689B79DB001A46FB681343FB6017
:100840007B68DB79DB021A46FB681343FB607B683D
:100850001B7A5B001A46FB681343FB607B685B7A7C
:100860001A46FB681343FB607B689B7A5B021A465F
:10087000FB681343FB607B681B68FA681A6000BF63
:100880001037BD4680BD80B483B000AF786039605A
:100890007B689A683B681340002B01D0012300E07D
:1008A000002318460C37BD4680BC704780B483B027
:1008B00000AF78600B46FB70FB78002B06D07B689E
:1008C0001B6843F040027B681A6005E07B681B6888
:1008D00023F040027B681A6000BF0C37BD4680BC25
:1008E000704780B483B000AF78600B46FB70FB7834
:1008F000002B06D07B685B6843F004027B685A607B
:1009000005E07B685B6823F004027B685A6000BFE7
:100910000C37BD4680BC704780B483B000AF03463F
:100920000A46FB711346BB71BB79012B33D1FB79AE
:100930001F2B0AD8344B1B68FA79012101FA02F205
:100940001146314A0B43136059E0FB791F2B0FD935
:10095000FB793F2B0CD82D4B1B68FA7902F01F0254
:10096000012101FA02F21146284A0B43136046E0C6
:10097000FB79402B43D9FB795F2B40D8244B1B6874
:10098000FA7902F03F02012101FA02F21146204AEF
:100990000B43136033E0FB791F2B0AD81D4B1B68F8
:1009A000FA79012101FA02F211461A4A0B43136047
:1009B00025E0FB791F2B0FD9FB793F2B0CD8164B69
:1009C0001B68FA7902F01F02012101FA02F21146B6
:1009D000114A0B43136012E0FB79402B0FD9FB79CE
:1009E0005F2B0CD80D4B1B68FA7902F03F020121F6
:1009F00001FA02F21146094A0B431360FFE700BFF8
:100A00000C37BD4680BC704700E100E004E100E027
:100A100008E100E080E100E084E100E088E100E03E
:100A200080B487B000AFF860B9607A60FB681B7F64
:100A3000FB75FB7D022B10D0FB68BA68DA60FB689F
:100A40007A685A61FB6802221A77FB681B685A6849
:100A5000FB681B6842F080025A60FB7D18461C3719
:100A6000BD4680BC704780B487B000AFF860B96005
:100A70007A60FB685B7FFB75FB7D012B10D0FB6808
:100A8000BA681A61FB687A689A61FB6801225A7732
:100A9000FB681B685A68FB681B6842F040025A609A
:100AA000FB7D18461C37BD4680BC704780B584B0BE
:100AB00000AF78607B681B689B68DBB203F00203C1
:100AC000FB737B681B685B68DBB223F07F03BB733F
:100AD000FB7B002B05D0BB7B002B02D0786800F09D
:100AE00032F87B681B689B68DBB203F00103FB7381
:100AF0007B681B685B68DBB203F04003BB73FB7B66
:100B0000002B05D0BB7B002B02D0786800F05BF88F
:100B10007B681B689B68DBB203F04003FB737B6858
:100B20001B685B68DBB203F02003BB73FB7B002B0D
:100B300005D0BB7B002B02D0786800F086F800BFA0
:100B40001037BD4680BD80B582B000AF78607B684D
:100B50001B681B6803F40063002B15D07B68DB68FF
:100B60001A887B681B68DA607B685B695A1E7B6841
:100B70005A617B685B695A1E7B685A617B68DB68D7
:100B80005A1C7B68DA600FE07B68DB681A787B6848
:100B90001B68DA607B685B695A1E7B685A617B68F8
:100BA000DB685A1C7B68DA607B685B69002B06D1C6
:100BB000786800F062F80121786800F095F900BFCC
:100BC0000837BD4680BD80B582B000AF78607B68D5
:100BD0001B681B6803F40063002B16D07B681B683E
:100BE000DA687B681B6992B21A807B689B699A1EDF
:100BF0007B689A617B681B695A1C7B681A617B68F9
:100C00001B695A1C7B681A6110E07B681B68DA68F4
:100C10007B681B69D2B21A707B689B695A1E7B681D
:100C20009A617B681B695A1C7B681A617B689B69A7
:100C3000002B06D1786800F03AF80221786800F0BD
:100C400053F900BF0837BD4680BD80B584B000AF02
:100C500078607B681B7F022B07D07B681B68DB6892
:100C6000FB737B681B689B68FB730321786800F04B
:100C70003BF900BF1037BD4680BD80B483B000AFE4
:100C800078607B681B685A687B681B6822F080026A
:100C90005A607B680022DA607B6800225A617B68B8
:100CA00000221A7700BF0C37BD4680BC704780B465
:100CB00083B000AF78607B681B685A687B681B68EC
:100CC00022F040025A607B6800221A617B68002291
:100CD0009A617B6800225A7700BF0C37BD4680BC02
:100CE0007047000080B588B000AF1C4B3B611823F3
:100CF000BB610323FB6105237B6107F110031846E9
:100D0000FFF7C8FA06237B6107F110031846FFF7C7
:100D1000C1FA07237B6107F110031846FFF7BAFAFF
:100D200004237B6107F110031846FFF7B3FA0C4B5D
:100D30003B601023BB600123FB6001237B603B46CB
:100D40001846FFF7A7FA02237B603B461846FFF7D9
:100D5000A1FA00BF2037BD4680BD00BF000801409A
:100D6000000C014080B500AF0E4B0F4A1A600D4BCE
:100D700001221A710B4B01225A710A4B0022DA71BF
:100D8000084B04229A71074B00221A72054B00226D
:100D90005A72044B00229A720248FFF719FD00BFF5
:100DA00080BD00BF1C0000200030014080B584B031
:100DB00000AF3B4610220021184600F025F90C4BED
:100DC0003B6000237B604423BB600123FB603B4608
:100DD0001846FFF75FFA00210620FFF791FC01217A
:100DE0000620FFF709FC00BF1037BD4680BD00BFDD
:100DF000000C014080B582B000AFFF23FB71FFF70C
:100E0000D5FFFFF76FFFFFF7ADFF01212948FFF77F
:100E100068FD01212320FFF77FFD01212648FFF710
:100E2000D7FB264B00221A7000BF254B1B78DBB284
:100E3000002BFAD000210620FFF7DEFB01211D4820
:100E4000FFF734FD12E000BFFB1D012219461D48CB
:100E5000FFF7E6FD0346022BF6D000BF01221A4938
:100E60001848FFF700FE0346012BF7D0134B1B7801
:100E7000DBB2002BE7D015491548FFF779F9034697
:100E8000002B03D102210C48FFF7A2FB00BF8021F9
:100E90000848FFF7F8FC0346002BF8D1002105486D
:100EA000FFF704FD064B00221A7001210620FFF710
:100EB000A3FBB2E700300140000C014031020020EA
:100EC000320200201C0000203002002030100008F8
:100ED0003C00002080B500AF0248FFF7E7FD00BFEF
:100EE00080BD00BF1C00002080B483B000AF7860DC
:100EF0000B46FB70FB78022B1FD1124B1B685A1C50
:100F000010490A60104A1278D1B2104AD1540E4BDF
:100F10001B78DBB2002B04D00A4B1B68B3F5FA7FB9
:100F20000BD10B4B01221A70064B1B68013B074A81
:100F30000021D154034B00221A6000BF0C37BD467C
:100F400080BC704734020020300200203C000020AA
:100F50003102002080B500AF0020FFF7FBFB024B01
:100F600001221A7000BF80BD320200200D48854664
:100F7000AFF300800C480D490D4A002302E0D4581D
:100F8000C4500433C4188C42F9D30A4A0A4C0023D3
:100F900001E013600432A242FBD300F011F8FFF726
:100FA00029FFFEE7002000200000002000000020B4
:100FB000401000080000002038020020FEE700007A
:100FC00070B500260C4D0D4C641BA410A64209D12F
:100FD00000F022F800260A4D0A4C641BA410A64219
:100FE00005D170BD55F8043B98470136EEE755F83A
:100FF000043B98470136F2E7381000083810000823
:10100000381000083C10000803460244934200D107
:10101000704703F8011BF9E7F8B500BFF8BC08BC3E
:101020009E467047F8B500BFF8BC08BC9E467047A6
:081030006E6963650000000019
:041038005501000856
:04103C003101000876
:0400000508000F6D73
:00000001FF
