:020000040800F2
:1000000000200020C108000811090008110900089B
:10001000110900081109000811090008000000007A
:1000200000000000000000000000000011090008AE
:10003000110900080000000011090008110900085A
:100040001109000811090008110900081109000828
:100050001109000811090008110900084D080008DD
:100060001109000811090008110900081109000808
:1000700011090008110900081109000811090008F8
:10008000110900081109000811090008000000000A
:10009000000000000000000000000000110900083E
:1000A00011090008110900081109000811090008C8
:1000B00011090008110900081109000811090008B8
:1000C00011090008110900081109000811090008A8
:1000D0001109000811090008110900081109000898
:1000E0001109000811090008110900081109000888
:1000F00011090008110900080000000000000000BC
:100100001109000800000000110900081109000889
:100110001109000811090008110900081109000857
:100120001109000811090008110900081109000847
:1001300010B5054C237833B9044B13B10448AFF321
:1001400000800123237010BD00000020000000008B
:100150006C09000808B5034B1BB103490348AFF312
:10016000008008BD00000000040000206C090008A9
:1001700080B483B000AF78600B46FB70FB78002B37
:1001800036D07B68384A934206D1384B9B69374A50
:1001900043F00403936161E07B68354A934206D1E2
:1001A000324B9B69314A43F00803936156E07B6808
:1001B000304A934206D12D4B9B692C4A43F01003E1
:1001C00093614BE07B682C4A934206D1274B9B6995
:1001D000264A43F02003936140E07B68274A93421C
:1001E0003CD1224B9B69214A43F04003936135E0A7
:1001F0007B681D4A934206D11C4B9B691B4A23F026
:10020000040393612AE07B68194A934206D1174B95
:100210009B69164A23F0080393611FE07B68154A27
:10022000934206D1114B9B69104A23F0100393614E
:1002300014E07B68104A934206D10C4B9B690B4A31
:1002400023F02003936109E07B680C4A934205D1B7
:10025000064B9B69054A23F04003936100BF0C37AE
:10026000BD4680BC704700BF00080140001002403E
:10027000000C014000100140001401400018014032
:1002800080B485B000AF78607B689B681C2B40F21F
:100290009C807B689B68242B17D1994B9B687A685C
:1002A0005268012101FA02F21146954A0B4393600C
:1002B000934BDB687A685268012101FA02F2D2435B
:1002C00011468F4A0B40D36035E07B689B68442B16
:1002D00017D18B4BDB687A685268012101FA02F270
:1002E0001146874A0B43D360854B9B687A685268F6
:1002F000012101FA02F2D2431146814A0B40936078
:1003000019E07B689B68842B15D17D4B9B687A68CC
:100310005268012101FA02F21146794A0B439360B7
:10032000774BDB687A685268012101FA02F21146C4
:10033000734A0B43D3607B685B689B08FB737B68E5
:100340005B68DBB203F00303BB737B681B686D4A19
:1003500093421DD07B681B686B4A934216D07B6822
:100360001B686A4A93420FD07B681B68684A9342B5
:1003700008D07B681B68674A934201D1042308E0D8
:10038000002306E0032304E0022302E0012300E04F
:1003900000237B73604B9B695F4A43F001039361C9
:1003A0007A7BBB7B9B0002FA03F15C4AFB7B023346
:1003B00042F82310524B1B687A685268012101FAF7
:1003C00002F211464E4A0B4313600023BB607B6868
:1003D0009B6803F01003002B06D07B689A687B684B
:1003E000DB681A437B689A607B685B68072B60D880
:1003F0007B689B68282B1BD17B681B685A697B68CC
:100400005B68012101FA03F3DB4319467B681B6833
:100410000A405A617B681B685A697B685B680121E6
:1004200001FA03F319467B681B680A435A611EE010
:100430007B689B68482B1AD17B681B681A697B68AC
:100440005B68012101FA03F3DB4319467B681B68F3
:100450000A401A617B681B681A697B685B68012126
:1004600001FA03F319467B681B680A431A617B682B
:100470009B6803F00F027B685B689B0002FA03F342
:10048000BA681343BB607B681B681A687B685B684B
:100490000F2101FA03F3DB4319467B681B680A400E
:1004A0001A607B681B6819687B681B68BA680A4316
:1004B0001A607B685B68072B74D90023BB607B687C
:1004C0009B68282B2CD17B681B685A697B685B680A
:1004D000012101FA03F3DB4319467B681B680A40DC
:1004E0005A617B681B685A697B685B68012101FA65
:1004F00003F319467B681B680A435A612FE000BF6B
:100500000004014000080140000C014000100140BF
:10051000001401400018014000100240000001409A
:100520007B689B68482B1AD17B681B681A697B68BB
:100530005B68012101FA03F3DB4319467B681B6802
:100540000A401A617B681B681A697B685B68012135
:1005500001FA03F319467B681B680A431A617B683A
:100560009B6803F00F027B685B68083B9B0002FA04
:1005700003F3BA681343BB607B681B685A687B68E7
:100580005B680F2101FA03F3DB4319467B681B68A4
:100590000A405A607B681B6859687B681B68BA68A8
:1005A0000A435A6000BF1437BD4680BC704700BF85
:1005B00080B483B000AF78600B46FB701346BB700D
:1005C000BB78012B09D17B68DB68FA78012101FA3D
:1005D00002F21A437B68DA6009E07B68DB68FA782C
:1005E000012101FA02F2D2431A407B68DA6000BFAF
:1005F0000C37BD4680BC704780B483B000AF7860D4
:100600000B46FB707B68DB68FA78012101FA02F285
:100610005A407B68DA6000BF0C37BD4680BC70472B
:1006200080B483B000AF03460A46FB711346BB712A
:10063000BB79012B33D1FB791F2B0AD8344B1B68B4
:10064000FA79012101FA02F21146314A0B43136093
:1006500059E0FB791F2B0FD9FB793F2B0CD82D4B81
:100660001B68FA7902F01F02012101FA02F2114619
:10067000284A0B43136046E0FB79402B43D9FB79B2
:100680005F2B40D8244B1B68FA7902F03F0201210E
:1006900001FA02F21146204A0B43136033E0FB7962
:1006A0001F2B0AD81D4B1B68FA79012101FA02F2AF
:1006B00011461A4A0B43136025E0FB791F2B0FD913
:1006C000FB793F2B0CD8164B1B68FA7902F01F02FE
:1006D000012101FA02F21146114A0B43136012E0A4
:1006E000FB79402B0FD9FB795F2B0CD80D4B1B6886
:1006F000FA7902F03F02012101FA02F21146094A99
:100700000B431360FFE700BF0C37BD4680BC70474A
:1007100000E100E004E100E008E100E080E100E049
:1007200084E100E088E100E080B485B000AF0346DA
:100730003960FB71FB799B08FB73FB7903F00303C2
:10074000BB73BB7BDB00DBB204337B73FB7B9B00A7
:1007500003F1604303F5644319687B7B3A689A4070
:10076000FB7B9B0003F1604303F564430A431A607B
:1007700000BF1437BD4680BC7047000080B483B012
:1007800000AF0346FB710C4B5B69FA79012101FA5A
:1007900002F21340002B09D0074B5B69FA79012163
:1007A00001FA02F21146044A0B43536100BF0C37B1
:1007B000BD4680BC704700BF0004014080B588B0D2
:1007C00000AF07F1100310220021184600F0C6F810
:1007D0003B4610220021184600F0C0F8114B3B6147
:1007E0001023BB610A237B610223FB6101210D48B9
:1007F000FFF7BEFC07F110031846FFF741FD0A4B57
:100800003B604423BB6001237B6001210648FFF766
:10081000AFFC3B461846FFF733FD00BF2037BD460F
:1008200080BD00BF001001400008014080B483B0CB
:1008300000AF786000BF7B685A1E7A60002BFAD147
:1008400000BF00BF0C37BD4680BC704780B582B08A
:1008500000AF0E4B1B8801339AB20C4B1A80002359
:100860007B6009E00A210A48FFF7C6FE0948FFF746
:10087000DDFF7B6801337B607B68052BF2DD0120A7
:10088000FFF77CFF00BF0837BD4680BD1C0000207D
:1008900000100140400D030080B500AFFFF78EFF50
:1008A00000210720FFF740FF01210720FFF7B8FED6
:1008B00001220A210148FFF77BFEF9E70010014001
:1008C0000D488546AFF300800C480D490D4A0023C2
:1008D00002E0D458C4500433C4188C42F9D30A4AF5
:1008E0000A4C002301E013600432A242FBD300F063
:1008F00011F8FFF7D1FFFEE70020002000000020E4
:10090000000000208C0900080000002020000020CA
:10091000FEE7000070B500260C4D0D4C641BA410C2
:10092000A64209D100F022F800260A4D0A4C641BA9
:10093000A410A64205D170BD55F8043B9847013676
:10094000EEE755F8043B98470136F2E784090008C2
:100950008409000884090008880900080346024445
:10096000934200D1704703F8011BF9E7F8B500BFC7
:10097000F8BC08BC9E467047F8B500BFF8BC08BC80
:040980009E467047D8
:040984005501000811
:040988003101000831
:04000005080008C126
:00000001FF
