:020000040800F2
:1000000000200020A50D0008F50D0008F50D0008E2
:10001000F50D0008F50D0008F50D000800000000C2
:10002000000000000000000000000000F50D0008C6
:10003000F50D000800000000F50D0008F50D0008A2
:10004000F50D0008F50D0008F50D0008F50D000888
:10005000F50D0008F50D0008F50D0008F50D000878
:10006000F50D0008F50D0008F50D0008F50D000868
:10007000F50D0008F50D0008F50D0008F50D000858
:10008000F50D0008F50D0008F50D00080000000052
:10009000000000000000000000000000F50D000856
:1000A000F50D0008F50D0008F50D0008F50D000828
:1000B000F50D0008F50D0008F50D0008F50D000818
:1000C000F50D0008F50D0008F50D0008F50D000808
:1000D000F50D0008F50D0008F50D0008F50D0008F8
:1000E000F50D0008F50D0008F50D0008F50D0008E8
:1000F000F50D0008F50D00080000000000000000EC
:10010000F50D000800000000F50D0008F50D0008D1
:10011000F50D0008F50D0008F50D0008F50D0008B7
:10012000F50D0008F50D0008F50D0008F50D0008A7
:1001300010B5054C237833B9044B13B10448AFF321
:1001400000800123237010BD040000200000000087
:10015000400E000808B5034B1BB103490348AFF339
:10016000008008BD0000000008000020400E0008CC
:10017000034613F8012B002AFBD1181A01387047E7
:1001800080B483B000AF78600B46FB70FB78002B27
:1001900036D07B68384A934206D1384B9B69374A40
:1001A00043F00403936161E07B68354A934206D1D2
:1001B000324B9B69314A43F00803936156E07B68F8
:1001C000304A934206D12D4B9B692C4A43F01003D1
:1001D00093614BE07B682C4A934206D1274B9B6985
:1001E000264A43F02003936140E07B68274A93420C
:1001F0003CD1224B9B69214A43F04003936135E097
:100200007B681D4A934206D11C4B9B691B4A23F015
:10021000040393612AE07B68194A934206D1174B85
:100220009B69164A23F0080393611FE07B68154A17
:10023000934206D1114B9B69104A23F0100393613E
:1002400014E07B68104A934206D10C4B9B690B4A21
:1002500023F02003936109E07B680C4A934205D1A7
:10026000064B9B69054A23F04003936100BF0C379E
:10027000BD4680BC704700BF00080140001002402E
:10028000000C014000100140001401400018014022
:1002900080B584B000AF78607B681B680121184688
:1002A000FFF76EFF7B689B681C2B40F29C807B688D
:1002B0009B68242B17D1994B9B687A68526801215F
:1002C00001FA02F21146954A0B439360934BDB68A7
:1002D0007A685268012101FA02F2D24311468F4A2C
:1002E0000B40D36035E07B689B68442B17D18B4B68
:1002F000DB687A685268012101FA02F21146874AE6
:100300000B43D360854B9B687A685268012101FAE0
:1003100002F2D2431146814A0B40936019E07B6898
:100320009B68842B15D17D4B9B687A6852680121AC
:1003300001FA02F21146794A0B439360774BDB686E
:100340007A685268012101FA02F21146734A0B439E
:10035000D3607B685B689B08FB737B685B68DBB280
:1003600003F00303BB737B681B686D4A93421DD087
:100370007B681B686B4A934216D07B681B686A4A8D
:1003800093420FD07B681B68684A934208D07B6811
:100390001B68674A934201D1042308E0002306E06A
:1003A000032304E0022302E0012300E000237B7327
:1003B000604B9B695F4A43F0010393617A7BBB7B8F
:1003C0009B0002FA03F15C4AFB7B023342F82310E4
:1003D000524B1B687A685268012101FA02F21146F9
:1003E0004E4A0B4313600023BB607B689B6803F09D
:1003F0001003002B06D07B689A687B68DB681A4381
:100400007B689A607B685B68072B61D87B689B6818
:10041000282B1BD17B681B685A697B685B680121AC
:1004200001FA03F3DB4319467B681B680A405A61F3
:100430007B681B685A697B685B68012101FA03F3DA
:1004400019467B681B680A435A611EE07B689B68FB
:10045000482B1AD17B681B681A697B685B6801218D
:1004600001FA03F3DB4319467B681B680A401A61F3
:100470007B681B681A697B685B68012101FA03F3DA
:1004800019467B681B680A431A617B689B6803F006
:100490000F027B685B689B0002FA03F3BA681343A0
:1004A000BB607B681B681A687B685B689B000F21D8
:1004B00001FA03F3DB4319467B681B680A401A60A4
:1004C0007B681B6819687B681B68BA680A431A60F6
:1004D0007B685B68072B75D90023BB607B689B68D2
:1004E000282B2BD17B681B685A697B685B680121CC
:1004F00001FA03F3DB4319467B681B680A405A6123
:100500007B681B685A697B685B68012101FA03F309
:1005100019467B681B680A435A612EE000040140BB
:1005200000080140000C014000100140001401408F
:100530000018014000100240000001407B689B68E9
:10054000482B1AD17B681B681A697B685B6801219C
:1005500001FA03F3DB4319467B681B680A401A6102
:100560007B681B681A697B685B68012101FA03F3E9
:1005700019467B681B680A431A617B689B6803F015
:100580000F027B685B68083B9B0002FA03F3BA68C2
:100590001343BB607B681B685A687B685B68083BD9
:1005A0009B000F2101FA03F3DB4319467B681B68AC
:1005B0000A405A607B681B6859687B681B68BA6888
:1005C0000A435A6000BF1037BD4680BD80B485B075
:1005D00000AF78600B46FB700023FB737B689A6862
:1005E000FB7822FA03F3DBB203F00103FB73FB7B1E
:1005F00018461437BD4680BC704780B483B000AF46
:1006000078600B46FB707B68DB68FA78012101FAA1
:1006100002F25A407B68DA6000BF0C37BD4680BCEE
:100620007047000080B483B000AF78600B46FB7069
:10063000FB78002B06D0094B9B69084A43F4805392
:10064000936105E0054B9B69044A23F48053936151
:1006500000BF0C37BD4680BC704700BF0010024091
:1006600080B584B000AF78607B681B6801211846B4
:10067000FFF7D8FF0023FB607B681B799B001A46BD
:10068000FB681343FB607B685B79012B04D1FB683B
:1006900023F40043FB6014E07B685B79022B04D1F8
:1006A000FB6843F40043FB600BE07B685B79032B42
:1006B00007D1FB6823F40043FB60FB6843F48063CD
:1006C000FB607B689B79DB001A46FB681343FB6089
:1006D0007B68DB79DB021A46FB681343FB607B68AF
:1006E0001B7A5B001A46FB681343FB607B685B7AEE
:1006F0001A46FB681343FB607B689B7A5B021A46D1
:10070000FB681343FB607B681B68FA681A6000BFD4
:100710001037BD4680BD80B483B000AF78603960CB
:100720007B689A683B681340002B01D0012300E0EE
:10073000002318460C37BD4680BC704780B584B096
:1007400000AFF860B9607A6027E000BF0221F86866
:10075000FFF7E1FF0346002BF8D0FB681B6803F4AA
:100760000063002B0ED0BB681B881A46FB68DA605A
:100770007B68013B7B607B68013B7B60BB6801332E
:10078000BB600AE0BB681B781A46FB68DA607B68CE
:10079000013B7B60BB680133BB607B68002BD4D11D
:1007A00000BF00BF1037BD4680BD80B584B000AF2C
:1007B000F860B9607A6027E000BF0121F868FFF7B0
:1007C000AAFF0346002BF8D0FB681B6803F4006304
:1007D000002B0ED0FB68DB689AB2BB681A807B687E
:1007E000013B7B607B68013B7B60BB680133BB6086
:1007F0000AE0FB68DB68DAB2BB681A707B68013B11
:100800007B60BB680133BB607B68002BD4D100BF29
:1008100000BF1037BD4680BD80B483B000AF7860A4
:100820000B46FB70FB78002B06D07B681B6843F0FF
:1008300040027B681A6005E07B681B6823F0400279
:100840007B681A6000BF0C37BD4680BC704780B41F
:1008500083B000AF78600B46FB70FB78002B06D0AE
:100860007B685B6843F004027B685A6005E07B6844
:100870005B6823F004027B685A6000BF0C37BD46FA
:1008800080BC704780B58CB000AF1E4B3B62182314
:10089000BB620123FB6205237B6207F1200318463C
:1008A000FFF7F6FC06237B6207F120031846FFF7EB
:1008B000EFFC07237B6207F120031846FFF7E8FCF3
:1008C00004237B6207F120031846FFF7E1FC0E4B7F
:1008D0003B611023BB6101237B610123FB6107F1B5
:1008E00010031846FFF7D4FC064B3B602823BB607F
:1008F00000237B603B461846FFF7CAFC00BF303739
:10090000BD4680BD00080140000C014080B584B0A8
:1009100000AF0C4B7B6001233B7201237B720023F1
:10092000FB720323BB7200233B7300237B73002302
:10093000BB733B1D1846FFF793FE00BF1037BD4643
:1009400080BD00BF0030014080B483B000AF78604C
:1009500000BF7B685A1E7A60002BFAD100BF00BF2F
:100960000C37BD4680BC704780B500AFFFF78AFFEB
:10097000FFF7CCFF01213648FFF769FF0121354819
:10098000FFF73BFE01213248FFF746FF00BF002181
:100990003148FFF71BFE0346002BF8D001212D48FC
:1009A000FFF72BFE2D48FFF7CFFF00F069F800BFDF
:1009B00000212948FFF70AFE0346002BF8D0012149
:1009C0002448FFF71AFE2548FFF7BEFF00F098F80D
:1009D00000BF00212048FFF7F9FD0346002BF8D0A7
:1009E00001211C48FFF709FE1C48FFF7ADFF00F08E
:1009F000D5F800BF00211848FFF7E8FD0346002B9B
:100A0000F8D001211348FFF7F8FD1448FFF79CFFC9
:100A100000F012F900BF00210F48FFF7D7FD034691
:100A2000002BF8D001210B48FFF7E7FD0B48FFF73B
:100A30008BFF00F06DF900BF80210548FFF76BFECA
:100A40000346002BF8D100210148FFF7E5FE95E7AA
:100A500000300140000C01400008014020A10700C7
:100A600080B483B000AF0346FB71FB79F52B01D155
:100A7000012300E0002318460C37BD4680BC7047B8
:100A800080B500AF184B50221A7001221649174842
:100A9000FFF754FE012216491448FFF786FE012293
:100AA00014491248FFF74AFE012213490F48FFF785
:100AB0007CFE114B1B781846FFF7D2FF0346002B34
:100AC0000FD00E4B09221A700C4B01225A700222D1
:100AD0000A490648FFF732FE022208490348FFF799
:100AE00064FE00BF80BD00BF210000200030014037
:100AF0002000002000000020220000202400002010
:100B000080B582B000AF1F4B51221A7001221D49DF
:100B10001D48FFF713FE01221C491B48FFF745FE45
:100B200001221B491848FFF709FE012219491648FE
:100B3000FFF73BFE174B1B781846FFF791FF034664
:100B4000002B1BD0144B00221A70012212490E48B0
:100B5000FFF7F4FD01220D490B48FFF726FE4CF28A
:100B60005030FFF7F1FE012209490748FFF7E6FD83
:100B7000FB1D012219460448FFF717FE00BF083786
:100B8000BD4680BD21000020003001402000002033
:100B900000000020220000202400002080B582B048
:100BA00000AF1F4B52221A7001221D491D48FFF74A
:100BB000C5FD01221C491B48FFF7F7FD01221B4917
:100BC0001848FFF7BBFD012219491648FFF7EDFD54
:100BD000174B1B781846FFF743FF0346002B1BD02B
:100BE000144B09221A70012212490E48FFF7A6FD84
:100BF00001220D490B48FFF7D8FD4CF25030FFF7AA
:100C0000A3FE012209490748FFF798FDFB1D0122B9
:100C100019460448FFF7C9FD00BF0837BD4680BD2F
:100C200021000020003001402000002000000020B2
:100C30002200002024000020B0B588B000AF2D4B6A
:100C400053221A7001222B492B48FFF777FD01220E
:100C50002A492948FFF7A9FD012229492648FFF71B
:100C60006DFD012227492448FFF79FFD264B3C4696
:100C70001D460FCD0FC495E8070003C42280214B09
:100C80001B781846FFF7ECFE0346002B2ED03B46A0
:100C90001846FFF76DFA0346DAB21C4B1A700122B0
:100CA0001A491548FFF74AFD012214491248FFF777
:100CB0007CFD4CF25030FFF747FE0023FB610FE054
:100CC0003A46FB691344012219460B48FFF736FDEB
:100CD00001220A490848FFF768FDFB690133FB61FF
:100CE0000A4B1B781A46FB699342E9DB00BF2037A9
:100CF000BD46B0BD21000020003001402000002092
:100D00000000002022000020580E000824000020CF
:100D100080B584B000AF1E4B54221A7001221C49CA
:100D20001C48FFF70BFD01221B491A48FFF73DFD48
:100D300001221A491748FFF701FD012218491548F9
:100D4000FFF733FD0023FB60154B1B781846FFF7B8
:100D500087FE0346002B17D00023FB600FE0012223
:100D60000E490C48FFF7EAFC3A46FB68134401229F
:100D700019460848FFF719FDFB680133FB60FB6863
:100D8000092BECD90023BB7200BF1037BD4680BDD4
:100D90002100002000300140200000200000002041
:100DA000220000200D488546AFF300800C480D4915
:100DB0000D4A002302E0D458C4500433C4188C42B6
:100DC000F9D30A4A0A4C002301E013600432A2421C
:100DD000FBD300F011F8FFF7C7FDFEE7002000206D
:100DE00000000020040000207C0E00080400002009
:100DF00028000020FEE7000070B500260C4D0D4CC9
:100E0000641BA410A64209D100F01AF800260A4D6E
:100E10000A4C641BA410A64205D170BD55F8043BD2
:100E200098470136EEE755F8043B98470136F2E75C
:100E3000740E0008740E0008740E0008780E000886
:100E4000F8B500BFF8BC08BC9E467047F8B500BFB7
:080E5000F8BC08BC9E46704787
:100E580048656C6C6F20212049742773204C757489
:0C0E680066756C6C6168203F3F00000064
:040E7400550100081C
:040E7800310100083C
:040E7C00FF00000073
:0400000508000DA53D
:00000001FF
