:020000040800F2
:1000000000200020DD0B00082D0C00082D0C00083E
:100010002D0C00082D0C00082D0C0008000000001D
:100020000000000000000000000000002D0C00088F
:100030002D0C0008000000002D0C00082D0C0008FD
:100040002D0C00082D0C00082D0C00082D0C0008AC
:100050002D0C00082D0C00082D0C00082D0C00089C
:100060002D0C00082D0C00082D0C00082D0C00088C
:100070002D0C00082D0C00082D0C00082D0C00087C
:100080002D0C00082D0C00082D0C000800000000AD
:100090000000000000000000000000002D0C00081F
:1000A0002D0C00082D0C00082D0C00082D0C00084C
:1000B0002D0C00082D0C00082D0C00082D0C00083C
:1000C0002D0C00082D0C00082D0C00082D0C00082C
:1000D0002D0C00082D0C00082D0C00082D0C00081C
:1000E0002D0C00082D0C00082D0C00082D0C00080C
:1000F0002D0C00082D0C000800000000000000007E
:100100002D0C0008000000002D0C00082D0C00082C
:100110002D0C00082D0C00082D0C00082D0C0008DB
:100120002D0C00082D0C00082D0C00082D0C0008CB
:1001300010B5054C237833B9044B13B10448AFF321
:1001400000800123237010BD18040020000000006F
:10015000780C000808B5034B1BB103490348AFF303
:10016000008008BD000000001C040020780C00087E
:10017000034613F8012B002AFBD1181A01387047E7
:1001800080B483B000AF78600B46FB70FB78002B27
:1001900036D07B68384A934206D1384B9B69374A40
:1001A00043F00403936161E07B68354A934206D1D2
:1001B000324B9B69314A43F00803936156E07B68F8
:1001C000304A934206D12D4B9B692C4A43F01003D1
:1001D00093614BE07B682C4A934206D1274B9B6985
:1001E000264A43F02003936140E07B68274A93420C
:1001F0003CD1224B9B69214A43F04003936135E097
:100200007B681D4A934206D11C4B9B691B4A23F015
:10021000040393612AE07B68194A934206D1174B85
:100220009B69164A23F0080393611FE07B68154A17
:10023000934206D1114B9B69104A23F0100393613E
:1002400014E07B68104A934206D10C4B9B690B4A21
:1002500023F02003936109E07B680C4A934205D1A7
:10026000064B9B69054A23F04003936100BF0C379E
:10027000BD4680BC704700BF00080140001002402E
:10028000000C014000100140001401400018014022
:1002900080B584B000AF78607B681B680121184688
:1002A000FFF76EFF7B689B681C2B40F29C807B688D
:1002B0009B68242B17D1994B9B687A68526801215F
:1002C00001FA02F21146954A0B439360934BDB68A7
:1002D0007A685268012101FA02F2D24311468F4A2C
:1002E0000B40D36035E07B689B68442B17D18B4B68
:1002F000DB687A685268012101FA02F21146874AE6
:100300000B43D360854B9B687A685268012101FAE0
:1003100002F2D2431146814A0B40936019E07B6898
:100320009B68842B15D17D4B9B687A6852680121AC
:1003300001FA02F21146794A0B439360774BDB686E
:100340007A685268012101FA02F21146734A0B439E
:10035000D3607B685B689B08FB737B685B68DBB280
:1003600003F00303BB737B681B686D4A93421DD087
:100370007B681B686B4A934216D07B681B686A4A8D
:1003800093420FD07B681B68684A934208D07B6811
:100390001B68674A934201D1042308E0002306E06A
:1003A000032304E0022302E0012300E000237B7327
:1003B000604B9B695F4A43F0010393617A7BBB7B8F
:1003C0009B0002FA03F15C4AFB7B023342F82310E4
:1003D000524B1B687A685268012101FA02F21146F9
:1003E0004E4A0B4313600023BB607B689B6803F09D
:1003F0001003002B06D07B689A687B68DB681A4381
:100400007B689A607B685B68072B61D87B689B6818
:10041000282B1BD17B681B685A697B685B680121AC
:1004200001FA03F3DB4319467B681B680A405A61F3
:100430007B681B685A697B685B68012101FA03F3DA
:1004400019467B681B680A435A611EE07B689B68FB
:10045000482B1AD17B681B681A697B685B6801218D
:1004600001FA03F3DB4319467B681B680A401A61F3
:100470007B681B681A697B685B68012101FA03F3DA
:1004800019467B681B680A431A617B689B6803F006
:100490000F027B685B689B0002FA03F3BA681343A0
:1004A000BB607B681B681A687B685B689B000F21D8
:1004B00001FA03F3DB4319467B681B680A401A60A4
:1004C0007B681B6819687B681B68BA680A431A60F6
:1004D0007B685B68072B75D90023BB607B689B68D2
:1004E000282B2BD17B681B685A697B685B680121CC
:1004F00001FA03F3DB4319467B681B680A405A6123
:100500007B681B685A697B685B68012101FA03F309
:1005100019467B681B680A435A612EE000040140BB
:1005200000080140000C014000100140001401408F
:100530000018014000100240000001407B689B68E9
:10054000482B1AD17B681B681A697B685B6801219C
:1005500001FA03F3DB4319467B681B680A401A6102
:100560007B681B681A697B685B68012101FA03F3E9
:1005700019467B681B680A431A617B689B6803F015
:100580000F027B685B68083B9B0002FA03F3BA68C2
:100590001343BB607B681B685A687B685B68083BD9
:1005A0009B000F2101FA03F3DB4319467B681B68AC
:1005B0000A405A607B681B6859687B681B68BA6888
:1005C0000A435A6000BF1037BD4680BD80B485B075
:1005D00000AF78600B46FB700023FB737B689A6862
:1005E000FB7822FA03F3DBB203F00103FB73FB7B1E
:1005F00018461437BD4680BC704780B483B000AF46
:1006000078600B46FB707B68DB68FA78012101FAA1
:1006100002F25A407B68DA6000BF0C37BD4680BCEE
:100620007047000080B584B000AF254B5B689B0825
:10063000DBB203F003033B723B7A002B02D1214B68
:10064000FB600BE03B7A012B02D11F4BFB6005E006
:100650003B7A022B02D100F08DF8F860184B5B68F2
:100660001B09DBB203F00F03FB71FB79072B02D8E8
:1006700001237B8105E0FB79083B144A32F81330F3
:100680007B810F4B5B689B0ADBB203F00703FB71B6
:10069000FB79032B02D801237B7204E0FB79043B36
:1006A0000B4AD35C7B727B89FA68B2FBF3F27B7AEC
:1006B000B2FBF3F33B603B6818461037BD4680BD84
:1006C000001002400024F40000127A000000002014
:1006D0001400002080B485B000AF0023FB60204BE5
:1006E0005B689B08DBB203F003037B727B7A002B11
:1006F00002D11C4BFB6001E01B4BFB60184B5B689D
:100700001B0903F00F037B607B68072B02D80123D2
:10071000FB7205E07B68083B144A32F81330FB7229
:100720000F4B5B685B0B03F007037B607B68032B5D
:1007300002D80123BB7204E07B68043B0C4AD35C03
:10074000BB72FB7AFA68B2FBF3F2BB7AB2FBF3F34B
:100750003B603B6818461437BD4680BC704700BFFD
:10076000001002400024F40000127A000000002073
:100770001400002080B400AF00231846BD4680BCA2
:100780007047000080B588B000AF78603960002302
:100790003B617B682F4A934203D1FFF79BFFF861CF
:1007A00002E0FFF73FFFF8617B68DB6803F400437A
:1007B000002B0BD0FA6913469B0013449A001A448D
:1007C0003B685B00B2FBF3F3BB610AE0FA691346D6
:1007D0009B0013449A001A443B689B00B2FBF3F35E
:1007E000BB61BB691C4AA2FB03235B09FB60FB687E
:1007F0001B013A6913433B61FB68642202FB03F36C
:10080000BA69D31A7B617B68DB6803F40043002B71
:100810000AD07B69DB0032330F4AA2FB03235B095A
:1008200003F007037B6109E07B691B0132330A4A4D
:10083000A2FB03235B0903F00F037B613A697B6929
:1008400013433B617B683A699A6000BF2037BD461D
:1008500080BD00BF003801401F85EB5180B483B0DC
:1008600000AF78600B46FB70FB78002B06D0094B7D
:100870009B69084A43F48043936105E0054B9B69FB
:10088000044A23F48043936100BF0C37BD4680BC0B
:10089000704700BF0010024080B584B000AF7860A0
:1008A0000023FB607B681B6801211846FFF7D6FF19
:1008B0007B681B79012B04D1FB6843F00403FB60C8
:1008C00010E07B681B79002B04D1FB6843F0080320
:1008D000FB6007E07B681B79022B03D1FB6843F0C8
:1008E0000C03FB607B685B7B1B031A46FB681343AE
:1008F000FB607B689B7B012B04D1FB6843F4806326
:10090000FB600BE07B689B7B022B07D1FB6843F409
:100910008063FB60FB6843F40073FB607B681B68CB
:10092000FA68DA600023FB607B681B7B1B031A46B6
:10093000FB681343FB607B681B68FA681A6100233D
:10094000FB607B68DB7B012B04D1FB6843F4007305
:10095000FB6014E07B68DB7B022B04D1FB6843F473
:100960008073FB600BE07B68DB7B032B07D1FB68AC
:1009700043F40073FB60FB6843F48073FB607B68A7
:100980001B68FA685A617B681A687B689B6819461D
:100990001046FFF7F7FE00BF1037BD4680BD80B49C
:1009A00083B000AF78600B46FB70FB78012B06D15B
:1009B0007B68DB6843F400527B68DA6005E07B68A3
:1009C000DB6823F400527B68DA6000BF0C37BD4659
:1009D00080BC704780B483B000AF78600B46FB707A
:1009E0007B681A68FB781340002B01D0012300E0DC
:1009F000002318460C37BD4680BC704780B586B0D2
:100A000000AFF860B9607A6000237B6131E000BF1D
:100A1000FB681B6880211846FFF7DCFF0346002BAC
:100A2000F6D0FB685B7B012B18D1BB683B613B694F
:100A30001B881A46FB681B68C2F308025A60FB68F1
:100A40009B7B002B06D1BB680133BB60BB680133C5
:100A5000BB600BE0BB680133BB6007E0BB681A7882
:100A6000FB681B685A60BB680133BB607B6901335C
:100A70007B617A697B689A42C9D300BFFB681B68B7
:100A800040211846FFF7A6FF0346002BF6D000BF13
:100A900000BF1837BD4680BD80B58CB000AF1B4B82
:100AA0003B621823BB620323FB6209237B6207F1CD
:100AB00020031846FFF7ECFB0A237B6207F12003B3
:100AC0001846FFF7E5FB124B3B611023BB61012386
:100AD0007B610123FB6107F110031846FFF7D8FB88
:100AE00002237B6107F110031846FFF7D1FB074B88
:100AF0003B602823BB6000237B603B461846FFF722
:100B0000C7FB00BF3037BD4680BD00BF00080140B5
:100B1000000C014080B500AF0D4B0E4A1A600C4B23
:100B200000221A710A4B4FF4E1329A60084B0022FE
:100B3000DA73074B00229A73054B00221A73044B99
:100B400000225A730248FFF7A7FE00BF80BD00BF16
:100B5000340400200038014080B483B000AF7860D6
:100B600000BF7B685A1E7A60002BFAD100BF00BF1D
:100B70000C37BD4680BC704780B500AFFFF78CFFD7
:100B8000FFF7C8FF01210F48FFF709FF0E48FFF7E5
:100B9000E3FF01210D48FFF730FD00BF00210C48A5
:100BA000FFF714FD0346002BF8D00748FFF7D4FFEA
:100BB0000848FFF7DDFA03461A4606490648FFF7DC
:100BC0001DFFE3E70038014020A10700000C0140B1
:100BD0000008014018000020340400200D4885461C
:100BE000AFF300800C480D490D4A002302E0D458B1
:100BF000C4500433C4188C42F9D30A4A0A4C002367
:100C000001E013600432A242FBD300F011F8FFF7B9
:100C1000B3FFFEE7002000200000002018040020A1
:100C2000980C00081804002058040020FEE700007B
:100C300070B500260C4D0D4C641BA410A64209D1C2
:100C400000F01AF800260A4D0A4C641BA410A642B4
:100C500005D170BD55F8043B98470136EEE755F8CD
:100C6000043B98470136F2E7900C0008900C00080E
:100C7000900C0008940C0008F8B500BFF8BC08BC44
:100C80009E467047F8B500BFF8BC08BC9E4670474A
:040C90005501000802
:040C94003101000822
:100C9800020004000800100020004000800000014D
:100CA80000020000020408105553415254205478A1
:100CB8002074657374696E672E2E2E0A0D0000006D
:100CC800000000000000000000000000000000001C
:100CD800000000000000000000000000000000000C
:100CE80000000000000000000000000000000000FC
:100CF80000000000000000000000000000000000EC
:0400000508000BDD07
:00000001FF
