:020000040800F2
:1000000070060020BD010008C5010008C7010008F6
:10001000C9010008CB010008CD0100080000000064
:10002000000000000000000000000000CF010008F8
:10003000D101000800000000D3010008D50100082C
:10004000D7010008D7010008D7010008D701000830
:10005000D7010008D7010008D7010008D701000820
:10006000D7010008D7010008D7010008D701000810
:10007000D7010008D7010008D7010008D701000800
:10008000D7010008D7010008D701000800000000D0
:10009000000000000000000000000000D701000880
:1000A000D7010008D7010008D7010008D7010008D0
:1000B000D7010008D7010008D7010008D7010008C0
:1000C000D7010008D7010008D7010008D7010008B0
:1000D000D7010008D7010008D7010008D7010008A0
:1000E000D7010008D7010008D70100080000000070
:1000F0000000000000000000000000000000000000
:1001000000000000000000000000000000000000EF
:100110000000000000000000D7010008D70100081F
:1001200000F002F800F03AF80AA090E8000C8244CF
:100130008344AAF10107DA4501D100F02FF8AFF2AC
:10014000090EBAE80F0013F0010F18BFFB1A43F0B5
:10015000010318476810000088100000103A24BFFF
:1001600078C878C1FAD8520724BF30C830C144BF1C
:1001700004680C607047000000230024002500265E
:10018000103A28BF78C1FBD8520728BF30C148BFFA
:100190000B6070471FB51FBD10B510BD00F031F8E2
:1001A0001146FFF7F7FF00F021FA00F04FF803B413
:1001B000FFF7F2FF03BC00F057F800000948804742
:1001C00009480047FEE7FEE7FEE7FEE7FEE7FEE739
:1001D000FEE7FEE7FEE7FEE704480549054A064B51
:1001E00070470000C90400082101000870000020C9
:1001F00070060020700200207002002070477047D7
:100200007047754600F02CF8AE4605006946534627
:1002100020F00700854618B020B5FFF7DDFFBDE8E8
:1002200020404FF000064FF000074FF000084FF05D
:10023000000B21F00701AC46ACE8C009ACE8C009EE
:10024000ACE8C009ACE8C0098D46704710B504465B
:10025000AFF300802046BDE81040FFF7A8BF0000C4
:10026000004870470C00002001491820ABBEFEE793
:10027000260002007047000030B50246002000232F
:1002800050680F4C20400D790C6844EA0524204347
:10029000506090680B4C2040D1E902542C434D79BA
:1002A00044EA450420439060D06A20F470000C7C3E
:1002B000641EE4B2234340EA0350D06230BD000024
:1002C000FFFEF0FFFDF7F1FF2DE9F04102460025AA
:1002D0000026002000230024002791F803C00CF022
:1002E0000F0591F803C00CF0100CBCF1000F03D007
:1002F00091F802C04CEA050591F800C0BCF1000F6E
:1003000031D0146800202BE04FF0010C0CFA00F300
:10031000B1F800C00CEA03069E4220D183004FF0E2
:100320000F0C0CFA03F7BC4305FA03FC4CEA040477
:1003300091F803C0BCF1280F06D14FF0010C0CFA64
:1003400000FCC2F814C00AE091F803C0BCF1480FE9
:1003500005D14FF0010C0CFA00FCC2F810C0401C93
:100360000828D1D31460B1F800C0BCF1FF0F34DD10
:10037000546800202EE000F1080C4FF0010808FA44
:100380000CF3B1F800C00CEA03069E4221D18300B1
:100390004FF00F0C0CFA03F7BC4305FA03FC4CEAD0
:1003A000040491F803C0BCF1280F05D100F1080C3A
:1003B00008FA0CF8C2F8148091F803C0BCF1480F99
:1003C00007D100F1080C4FF0010808FA0CF8C2F848
:1003D0001080401C0828CED35460BDE8F0814161F4
:1003E000704701617047000029B1064A92690243D3
:1003F000044B9A6104E0034A92698243014B9A617B
:10040000704700000010024010B500F001F810BD68
:100410000CB50020019000902A48006840F480301C
:100420002849086000BF2748006800F400300090A9
:100430000198401C0190009818B90198B0F5A06F80
:10044000F1D12048006800F4003010B10120009084
:1004500001E0002000900098012831D1194840683F
:100460001849486008464068486008464068486047
:100470000846406820F47C1048600846406840F414
:10048000981048600846006840F08070086000BF1F
:100490000C48006800F000700028F9D00948406856
:1004A00020F00300074948600846406840F0020019
:1004B000486000BF0348406800F00C000828F9D1EC
:1004C0000CBD00000010024010B51448006840F058
:1004D00001001249086008464068114908400F4968
:1004E0004860084600680F4908400C490860084603
:1004F000006820F4802008600846406820F4FE0070
:1005000048604FF41F0088600020C862FFF77CFF3E
:100510004FF000600449086010BD00000010024068
:100520000000FFF8FFFFF6FE08ED00E000B585B023
:100530001748806940F400701549886101208DF8E2
:1005400005001448006820F40060124908604FF468
:10055000602002900020009001208DF81000002003
:100560008DF8040069460B480838FFF785FE0948F6
:10057000006840F00100074908600A2000F00CF80C
:100580000448006840F400000249086005B000BD5E
:10059000001002400824014000BF011EA0F101002C
:1005A000FBD1704708B501211020FFF71DFF012185
:1005B0000420FFF719FF10208DF803004FF4E060CE
:1005C000ADF8000003208DF8020069460548FFF7EA
:1005D0007BFE0220ADF8000069460348FFF774FE79
:1005E00008BD00000010014000080140FFF7DAFFDD
:1005F000FFF79CFF79E000F095F83C490880084639
:10060000008800F017FD804600F0DCFC0646384A02
:10061000384B00F0E3FA044600F0AEF836490860C3
:100620000846006800F0CEFC80460022334B00F004
:10063000D3FB8246324A334B00F078F9064600225B
:10064000314B00F0CBF8044600F096F82F490860D3
:10065000FA20FFF7A1FF2E492C48006800F07DFD2D
:1006600010D82C492948006800F0F8FC0AD24FF451
:1006700080712948FFF7B5FE4FF4C0612648FFF7A7
:10068000AEFE32E023492148006800F066FD10D834
:1006900022491E48006800F0E1FC0AD24FF40071C4
:1006A0001D48FFF79EFE4FF4A0611B48FFF797FE21
:1006B0001BE01A491548006800F04FFD10D8184992
:1006C0001248006800F0CAFC0AD24FF48061124858
:1006D000FFF787FE4FF440710F48FFF780FE04E0FC
:1006E0004FF4E0610C48FFF77CFE84E70000002037
:1006F000B4D934E70C684A3F040000200000F83FFA
:1007000022FDF675E09C713F000039400800002092
:10071000000070410000C8410010014000000C4280
:10072000000048421348006840F4E0101149086096
:1007300010482830006840F010000E492831086049
:100740000C48001F006840F480000A49091F086037
:100750000846006840F48010086000BF05480C3867
:10076000006800F002000028F8D00248403000681D
:1007700080B270470C24014021F00042A2F1605287
:10078000B2F5801F01F0004328BFD2F17F6C0BD976
:100790005FEA001C43EAC20242EB507018BF704788
:1007A00028BF20F001007047B2F5801FBCBF18467B
:1007B00070474FEA410C1CF5001F02D2084600F0BA
:1007C000C7BC70B500F0B4FA00000089FFF7F6BFAF
:1007D0004FF00040A0F580007047000010B591EA8E
:1007E000030F48BF83F0004300F10A83841A71EBC2
:1007F000030C05D2121943EB0C03001B61EB0C0137
:10080000DFF824E14FEA1154A4EB135C1EEA430F16
:1008100018BF9EEA445F73D023EA0E03DCF1200E7A
:1008200021EA045143F4801332D322FA0CFE10EB78
:100830000E0023FA0CFE41EB0E01CCF1200E03FA60
:100840000EFE10EB0E0051F10001B1F5801FCCF14E
:10085000200E32D201EB045112FA0EF2BDE8104024
:1008600058BF7047401C38BF5FEA420218BF70474C
:10087000002814BF20F0010041F100014FEA4103BC
:1008800013F5001F38BF7047A1F1C04100F09EBAB8
:10089000012A43EB0302ACF1200CDCF11F0E32BF46
:1008A0004FF0000E23FA0CF310EB030041EB045160
:1008B000B4EB115FD0D0A1EB045101F580114908D0
:1008C0005FEA300001EB04510ED350F1000038BF55
:1008D00012FA0EFE08D1BDE81040C9E7401C38BF2F
:1008E0005FEA4202CAD1C3E7BDE810404FEA4103C4
:1008F00013F5001F38BF7047A1F1C04100F066BA80
:100900009EEA445F08D011EA5E0FBDE8104004BFC4
:1009100001F0004100207047BDE8104070B500F0C4
:1009200007FA00BF64FBBE3E0000E0FF2DE9C041B6
:1009300030B4DFF8A0C23CEA111418BF3CEA13142B
:1009400000F0EC8081EA03051CEA111444EAD57436
:1009500018BF1CEA131500F0C780A4EB05044FF084
:10096000004545EAC12145EAC32341EA505143EA23
:10097000525304F17F74994204F500344FEAC020C9
:100980004FEAC22208BF904200F09C804FEA1365F4
:100990000FF24016765D4FEA134506FB05F7C7F1E7
:1009A000807706FB07F74FEAD737A7FB0368764245
:1009B000C8F58038A7FB06CE38BFA8F1010807FBB1
:1009C00008E64FF0000EA6FB028CE6FB03CEDCF13E
:1009D000000CCEF1004E38BFAEF1010EA6FB0C5854
:1009E0004FF000074FF00005E6FB0E87A1FB08C69D
:1009F000A0FB07CE16EB0E0645F10005E1FB0765EF
:100A000015F1E04E7EBFA4F580345FEA46066D41E5
:100A100016F1800745F100054FEA17274FEA0666F1
:100A200047EA0567A6F1DE46B6F1805F4FEA152575
:100A30001FD9384624F0010C05EBC471BCF1FE6FE0
:100A400001EB0C1102D8F0BCBDE8008124425CBF70
:100A500001F5801E9EEAC47F02D4F0BCBDE800818F
:100A6000244238D4F0BCA1F1C041BDE8004100F0FF
:100A7000ADB94FEAD22242EA43524FEAD323A7FB51
:100A800002864FEAD02040EA415007FB03661EEA87
:100A90000E0F4FEAD12105FB026658BFA6EB0056A8
:100AA000B6EB00564FEA520E4EEAC37E18EB0E0E1E
:100AB00056EB530EBDD518EB02085E417F1C55F175
:100AC0000005B6E74FF480154FF000074FF0000621
:100AD0004FF00008ADE7F0BC4FF0000001F1C0415D
:100AE00001F00041BDE8008111EA0C1F0CEA13156A
:100AF00000D00CE013EA0C1F00F025804FF000003E
:100B0000F0BC81EA030101F00041BDE80081F0BCC6
:100B1000BDE8004181EA030100F058B9F0BCBDE82E
:100B2000004170B500F004F9097EFC3E00F007B802
:100B300081EA03014FF0000001F00041704781EAB3
:100B4000030100F043B9F0BCBDE800414FF00000E4
:100B500021497047FFFDFBF9F7F5F4F2F0EEEDEBFC
:100B6000E9E8E6E4E3E1E0DEDDDBDAD8D7D5D4D3AB
:100B7000D1D0CFCDCCCBCAC8C7C6C5C4C2C1C0BFF7
:100B8000BEBDBCBBBAB9B8B7B6B5B4B3B2B1B0AFFD
:100B9000AEADACABAAA9A8A8A7A6A5A4A3A3A2A1E1
:100BA000A09F9F9E9D9C9C9B9A999998979796959C
:100BB00095949393929191908F8F8E8E8D8C8C8B38
:100BC0008B8A8989888887878685858484838382C0
:100BD000828181800000FF070000F87FDFF848C1B4
:100BE00070B51CEA111E1EBF1CEA13159EEA0C0FFD
:100BF00095EA0C0F00F06F8081EA030423EA4C139E
:100C00004EEAD47E21EA4C1141F4801143F4801362
:100C1000AE44A1FB024CA0FB0365AEF17F7E36190A
:100C200055EB0C05A1FB034C4CF10003A0FB021C8F
:100C300016EB0C06654153F10003094218BF46F05C
:100C4000010613F4007F0BD14FEA03314FEA053060
:100C5000340341EA155140EA16506FF003020AE0EE
:100C60004FEAC3214FEAC520F40241EA555140EA58
:100C700056506FF0020202EB2E4201EB025585EA5C
:100C8000CE710AD05FEA440C18BF24F0004450F142
:100C9000000041F1000120EAD47040F2FE7C624580
:100CA00000D270BDA84214BF4FF080444FF04044C2
:100CB000002E08BF0024BEF1806FA8BFA1F1C04183
:100CC000BDE8704080F282804FF0000001F1C04129
:100CD00001F0004170479EEA0C0F0CEA131518BF93
:100CE00095EA0C0F06D04FF0000081EA030E0EF0DB
:100CF000004170BD00F01CF88900013E00F007B80B
:100D000000F009B84FEA430C5FEA5C5C08D081EA66
:100D1000030100F05BB84FEA410C5FEA5C5CF6D17E
:100D20004FF00000014970470000FF070000F87F06
:100D30000EF1020E2EF0030E5EF8046B364205D45F
:100D4000012A43EB030515F5001F12D8012841EBDA
:100D5000010C1CF5001F0CD80ED14FEAD17C15F503
:100D6000001F0CEB4C0C0CF1020C08BF4CEBD37CBD
:100D700004E04FF0080C01E04FEAD37C0CEB4C058B
:100D800026FA05F606F00706B6F1040C06D20EEBBD
:100D9000860CBDE870404CF0010C6047DFE80CF0B9
:100DA000090B02024FF000414FF00000A1F50021B5
:100DB00070BD19461046012851EB010418BFD4F547
:100DC000001484BF002001F0004170BD0808A0F5A8
:100DD00000114FEA3101704791EA030F10B581F01D
:100DE00000413FF503AD83F0004300F009B8000077
:100DF00010B591EA030F48BF83F000433FF5F6AC0E
:100E0000841A71EB030C07D212198CF0004C43EBDF
:100E10000C03001B61EB0C01DFF8A4E14FEA115455
:100E2000A4EB135C1EEA430F18BF9EEA445F00F078
:100E3000B08023EA6E03524221EA0451C3EB6E03F1
:100E400038BF5B1EDCF1200E25D322FA0CFE10EB1E
:100E50000E0043FA0CFE41EB0E01CCF1200E03FA1A
:100E60000EFE10EB0E0051F10001CCF1200E29D442
:100E700012FA0EF201EB0451BDE8104058BF704762
:100E8000401C1CBFB2F1004F704700280CBF491C2A
:100E900020F00100704712EB020E43EB030218BF73
:100EA0004FF0010E4EEA4202ACF1200CDCF11E0EB6
:100EB00054D943FA0CFE10EB0E0051F1FF31CCF186
:100EC0001E0ED5D50EF1010E12FA0EFE404141EB79
:100ED000010101EB445C5FEA5C5C10D910EBDE7051
:100EE00001EB045138BFBEF1004FBDE8104018BF00
:100EF000704700280CBF491C20F00100704730D219
:100F00004FEAD42C11F5001124F400641BD0B1FA7F
:100F100081F20B3AA41AA41ED2F12003914030FAB8
:100F200003F31943904001EBCC71002C01EB045109
:100F3000BDE81040A8BF704701F1C0414FF000006C
:100F400001F000417047B0FA80F310FA03F100D1CC
:100F500010BDE41A173C4805C90AE4E701EB045147
:100F600010BD491001EB0451BDE810404FEA3000BC
:100F700002E04FF0000170474A0008BF0042F8D07D
:100F8000B2F5001F28BF704701F000414FF000008C
:100F900070479EEA445F07D011EA5E0FBDE810403B
:100FA00004BF002100207047BDE8104070B5FFF776
:100FB000BFFE00BF40DFF63E83F0004110467047A1
:100FC0000000E0FF43004FEAD30C4FEA3C0C4340E3
:100FD0001FBF40070CF1605113F0FE4F70471CF02B
:100FE000006F03D100200CF0004170470CF000436B
:100FF00043EA507010B540EACC0000F063F800BF3F
:10100000000000924FEA0001FFF7E0BE4FF0004100
:101010004FF00000A1F500217047401058BFC0F10B
:101020004040491058BFC1F140418142EFF3008078
:1010300070470000B0FA80F310FA03F2C3F19D0389
:101040000AD0D90501EB1220530638BF704700F1D2
:10105000010008BF20F001007047000050EA010CB9
:1010600000F113801CF5000F58BFBCF5000F01D430
:101070008842704707D710F5000F58BF11F5000FD1
:1010800015D488427047894270471CF5000F04D57B
:10109000BCF5000FF7D5814270474FF0807C1CEB08
:1010A000400F38BF1CEB410F01D28142704710B591
:1010B00000F008F8922449004FF000504FF08051A2
:1010C000FFF7ABBF0EF1020E2EF0030E5EF8044BDD
:1010D000244204D44FEA4102B2F17F4F11D84FEAC3
:1010E0004003B3F17F4F0CD80ED14FEAD07CB2F160
:1010F0007F4F0CEB4C0C0CF1020C08BF4CEBD17C7D
:1011000004E04FF0080C01E04FEAD17C0CEB4C03FB
:1011100024FA03F404F00704B4F1040C06D20EEB35
:10112000840CBDE810404CF0010C6047DFE80CF087
:10113000070802024FF00040A0F5800010BD0846ED
:10114000420018BFD2F1807288BF00F0004010BD8D
:10115000FF2141EAD050C005704751EA000C00F170
:1011600013801CF5000F58BFBCF5000F01D481425D
:10117000704707D711F5000F58BF10F5000F15D4B1
:1011800081427047894270471CF5000F04D5BCF5B9
:10119000000FF7D5884270474FF0807C1CEB410F61
:1011A00038BF1CEB400F01D28842704780EA010033
:1011B00081EA000180EA0100FFF779BFDC11000835
:1011C000000000200C0000005C010008E81100088D
:1011D0000C000020640600007801000800000000F8
:0811E000000000000000000007
:04000005080001BD31
:00000001FF
