:020000040800F2
:10000000B8060020DD010008E5010008E70100084E
:10001000E9010008EB010008ED0100080000000004
:10002000000000000000000000000000EF010008D8
:10003000F101000800000000F3010008F5010008CC
:10004000F7010008F7010008F7010008F7010008B0
:10005000F7010008F7010008F7010008F7010008A0
:10006000F7010008F7010008F7010008F701000890
:10007000F7010008F7010008F7010008F701000880
:10008000F7010008F7010008F70100080000000070
:10009000000000000000000000000000F701000860
:1000A000F7010008F7010008F7010008F701000850
:1000B000F7010008F7010008F7010008F701000840
:1000C000F7010008F7010008F7010008F701000830
:1000D000F7010008F7010008F7010008F701000820
:1000E000F7010008F7010008F70100080000000010
:1000F0000000000000000000000000000000000000
:1001000000000000000000000000000000000000EF
:100110000000000000000000F7010008F7010008DF
:1001200000F002F800F04AF80AA090E8000C8244BF
:100130008344AAF10107DA4501D100F03FF8AFF29C
:10014000090EBAE80F0013F0010F18BFFB1A43F0B5
:100150000103184780230000A0230000103A24BFA9
:1001600078C878C1FAD8520724BF30C830C144BF1C
:1001700004680C607047000000230024002500265E
:10018000103A28BF78C1FBD8520728BF30C148BFFA
:100190000B607047662902F04881642900F05280A4
:1001A000002070471FB500F0AFFB040000200021C5
:1001B00001F0D2FDE0601FBD10B510BD00F0A4FC41
:1001C0001146FFF7EFFF01F063FC00F0C2FC03B43F
:1001D000FFF7F2FF03BC00F005FD0000094880476F
:1001E00009480047FEE7FEE7FEE7FEE7FEE7FEE719
:1001F000FEE7FEE7FEE7FEE704480549054A064B31
:10020000704700000918000821010008B80000200C
:10021000B8060020B8020020B80200200FB41CB5B8
:10022000074B06AA7B4469460090059800F053FBF3
:100230000020694600F062FB1CBC5DF814FB000066
:10024000D50600002DE9F041064600241068752906
:10025000314616A510D0AFF30080002802DA4042E4
:1002600013A507E031688A0701D512A502E0490706
:1002700004D511A5012401E0AFF3008000210A227A
:1002800006F1240709E0B0FBF2FCB0FBF2F302FB3D
:100290001C00303078541846491C0028F3D12346FE
:1002A0002A463046BDE8F04100F0A7B80000000043
:1002B0002D0000002B000000200000002DE9F05F61
:1002C000894604464FF0000ADFF824B1FB44C0F829
:1002D00020A02046E168884700287DD0252806D048
:1002E000D4E901219047206A401C2062F1E70025F3
:1002F0005F462046E16888472028064607DB312E06
:1003000005D2B81910F8200C08B10543F1E7A80789
:1003100001D525F00405C4F81CA00027C4F818A0D6
:100320002A2E09D0304601F031FB38B304EB8708A0
:10033000303EC8F8186019E059F8041B204604EB59
:1003400087029161E1688847012F064618D1E0696C
:10035000002820DA25F020051DE0D8F8180000EB71
:10036000800006EB40003038C8F818002046E168ED
:100370008847064601F00AFB0028EED1012F0AD07B
:100380002E2E08D12046E16888477F1C0646022FA2
:1003900045F02005C4DBA069002803DA404245F09F
:1003A0000105A061E80701D025F01005A6B1A6F16E
:1003B0004100192802D8203645F400654A463146E6
:1003C000204625604D46FFF7E5FE60B1012807D0C5
:1003D000ED1D25F0070000E007E000F1080978E7CF
:1003E00005F1040975E730467AE7206ABDE8F09F19
:1003F0005E2100007047704770472DE9F0470D46B9
:1004000099469246044600F124080168880604D5FE
:10041000E06921F01001216000E00120A84201DD27
:10042000471B00E00027A1697A1902EB0900081AAE
:10043000A0612078C00602D42046AFF300800026D9
:1004400008E0D4E901211AF806009047206A401C10
:10045000761C20624E45F4DB2078C0060AD5204683
:10046000AFF3008006E0D4E9012130209047206AF4
:10047000401C2062381EA7F10107F4DC07E0D4E934
:10048000012118F805009047206A401C2062281EB0
:10049000A5F10105F3DC2046AFF3008020780006CB
:1004A00002D50220BDE8F0870120FBE770472DE967
:1004B000FF4F0C461E464FF0FF378BB0D2E90001CC
:1004C000DDF860800A908A46C1F30A5505B93D46B9
:1004D000002108464FF00000BAF1000F00F4400080
:1004E00005DA00EB80004FF4400101EA50004FEACA
:1004F0009059B9F1010F00DDB9460A9850EA4A0057
:100500000ED044F61050A5F2FF3545432F14B8F134
:10051000000F1ED07542291E1EDDC9F100021CE02D
:10052000B8F1010F4FF0000001D0302103E0F24399
:1005300005E02154401CB042FBDB30460022002184
:1005400021540B99C1F80880C1E900200FB0BDE823
:10055000F08FBD1B6D1CDEE74A4600DA694206A833
:1005600000F05CFA06AB93E8070003AB83E80700F2
:1005700050460A9900F03DFB8DE80700A0F50050B9
:100580001F3800900398002D0ADD42F21F014A46F1
:100590000844002303A90390684600F0A6FD09E083
:1005A000A0F500504A461F38002303A9039068466F
:1005B00000F0B0FD8DE807000004000C03D04FF000
:1005C000FF30410800E01046B8F1000F03D00022D0
:1005D000009215461EE0751E05D400F099F93032E0
:1005E00062556D1EF9D5B3460122084302D00022A0
:1005F0007F1C04E02078302801D100227F1E002AD1
:10060000099784D01DE0112D07DA00F081F930320E
:1006100062556D1C50EA0102F5D1084302D00098E2
:10062000C8B10EE00021681E05E0235C625C6354E3
:100630002254401E491C8142F7DBAB46A81B401EDA
:100640000990002004F80B000B98099AC0F8088064
:10065000C0E9002B7AE711264FF0000857E72DE993
:10066000F04F88460446D21D22F0070191B0D1E92F
:100670000001CDE90A0101F075F902460B98C00F9F
:1006800001D02D2007E02068810701D52B2002E052
:10069000202101EAC000032A099001D0072A05DBC6
:1006A00003464146204600F079F90BE120788006A8
:1006B00001D5E06900E00620B8F1650F814606D05B
:1006C000B8F1660F18D0B8F1670F70D131E0002093
:1006D000B9F1110F009001DB112301E009F10103D1
:1006E0000AAA01A90CA8FFF7E2FEDDE90C700026BA
:1006F00009F10105834647E001204B4600904FF089
:1007000000470AAA01A90CA8FFF7D1FEDDE90DB048
:100710000C995D46002610B909F101000D18B9EBDE
:10072000050003D4C0F1FF3609F10105A5EB09006E
:100730002BE0B9F1010F01DA4FF001090020B9F106
:10074000110F0090484601DD112300E003460AAA7C
:1007500001A90CA8FFF7ABFEDDE90C704D460026A1
:100760008346207800070AD4AB4500DA5D4601A82D
:10077000012D04DD411911F8011C302907D04F4526
:1007800002DA17F1040F04DA012082460FE06D1E31
:10079000EEE7002F02DCED1B3E4403E0781CA8428C
:1007A00000DD7D1CB81B00F1010A4FF000472078E6
:1007B000000703D4AA4501DB4FF0FF3A0021B7F14F
:1007C000004F0DF143088DF8431024D002202B2355
:1007D000002F01DA7F422D230A21021EA0F1010021
:1007E00000DC5FB197FBF1FC97FBF1F201FB1C7C95
:1007F00017460CF1300C08F801CDEEE7A8F1010026
:1008000003702188090501D5452100E06521A0F18B
:10081000010800F8011C09980FA9A1EB0807FF1DAA
:1008200000B10120411901EBEA70A1693844081AAE
:10083000401EA0612078C00602D42046AFF300809D
:10084000099828B1D4E901219047206A401C206210
:100850002078C00622D52046AFF300801EE0002E8F
:1008600004DBB34502DD01A8805D00E03020D4E95F
:1008700001219047206A401C2062761CAAF10100E9
:100880005FEA000A0AD100F03FF8C0680168405CE6
:10089000D4E901219047206A401C2062281EA5F15E
:1008A0000105DCDC07E0D4E9012118F8010B9047D1
:1008B000206A401C2062381EA7F10107F3DC2046A5
:1008C000AFF30080032011B041E6000001694A1C2B
:1008D00002610878704700B58FB0CDE90131002181
:1008E000059105497944CDE9031011466846FFF7A3
:1008F000E5FC0FB000BD0000E5FFFFFF0A6802F84D
:10090000010B0A6070470000004870477400002027
:1009100030B5B0F10A024FEA900E71F100034EEAD1
:10092000817EB0EB0E0061EB91014FEA101E4EEAA2
:10093000017E10EB0E0041EB11114FEA102E4EEA32
:10094000016E10EB0E0041EB11214FEA104E4EEA02
:10095000014E10EB0E0041EB1141401841F1000136
:100960004FEAD00040EA41704FEAD10110EB800518
:100970004FEA810444EA907444EB01046D1944EB9E
:100980000404521BA3414FF0000348BF0A3200D5B4
:1009900030BD401C41F1000130BD00002DE9F041A7
:1009A0001F46044603260168072A01F4006004DBA1
:1009B00008B116A505E016A503E008B115A500E0ED
:1009C00015A521F010002060A069C01EA0610FB124
:1009D000401EA0612046AFF300804FB1D4E9012151
:1009E00038469047206A401C2062C01C206206E006
:1009F000206AFAE7D4E9012115F8010B9047761E29
:100A0000F8D22046AFF30080BDE8F0814E414E00A1
:100A10006E616E00494E4600696E66002DE9F04732
:100A2000814616468AB0354878440DC88DE80D00D9
:100A300032487844801C03AC0DC884E80D0041F6B0
:100A40009B300844372190FBF1F290FBF1F5A5F1C2
:100A5000800501FB12041B3C02D56442012000E02A
:100A60000020DFF898A080460027FA44AAF1BE0AC9
:100A70000EE0E0070AD03246684607EB4701012343
:100A80000AEB810100F046FB8DE8070064107F1C33
:100A9000002CEED1194F7F44AE3F19E0E80715D086
:100AA00007EB04100DF1180A90E80E008AE80E001A
:100AB000C068F04201D1981908903246012306A976
:100AC00003A800F027FB03AB83E807006D10641C4C
:100AD000002DE3D14FF0010332466946B8F1000F13
:100AE00003A802D000F001FB01E000F013FBC9E90C
:100AF0000001C9F808200AB0BDE8F087901A00008C
:100B000000487047540000207546FFF7F9FFAE46D5
:100B100005006946534620F00700854618B020B509
:100B2000FFF76AFBBDE820404FF000064FF00007DA
:100B30004FF000084FF0000B21F00701AC46ACE885
:100B4000C009ACE8C009ACE8C009ACE8C0098D46F2
:100B5000704710B50446AFF300802046BDE8104052
:100B6000FFF735BB4FF0013C50F8042B51F8043B24
:100B70009A4221D1A2EB0C03934313EACC1317D171
:100B800050F8042B51F8043B9A4215D1A2EB0C0308
:100B9000934313EACC130BD150F8042B51F8043BC8
:100BA0009A4209D1A2EB0C03934313EACC13DBD096
:100BB0004FF00000704700BFD01A01BAB1FA81F1BE
:100BC00001F0180122FA01F0CB40C1F12001DBB2A3
:100BD000C0B2C01A2CFA01F3D11A914311EAC31121
:100BE000E6D1704701491820ABBEFEE7260002009F
:100BF00070475FEA400C08BF91F0000F4FEA8C236A
:100C00004FEAC12243EA51514FEA1C5018BF00F588
:100C1000F0404FEA300018BF41F000415FEA6C5CE1
:100C200000F02980BCF1FF3F08BF40F080407047D2
:100C3000130C06BF12044FF0100C4FF0000C130EF3
:100C400004BF12020CF1080C130F04BF12010CF1C7
:100C5000040C930F04BF92000CF1020CD30F04BFDD
:100C600052000CF1010C11464FF00002A0F11F00E0
:100C7000A0EB0C00704711F0004F08BF704731F037
:100C800000413FF4D5AF0B0C06BF09044FF0100C28
:100C90004FF0000C0B0E04BF09020CF1080C0B0FF7
:100CA00004BF09010CF1040C8B0F04BF89000CF187
:100CB000020CCB0F04BF49000CF1010CCCF1200356
:100CC000A0EB0C0022FA03F302FA0CF241EA030152
:100CD00000F10100704720F07F4C80EA030023F010
:100CE0007F47ACEB070303F57C5300F0004003F1B2
:100CF000FF032DE980494FEA154B09B44FEA14432D
:100D000025EA0B4E24EA03480FF2042606EB1327CC
:100D100049083E785FEA320203FB0667C7F5000721
:100D200007FB06F64FEA54374FEAD64606F10206AD
:100D300007FB066CCCF1005C4FEA1C472CEA074C21
:100D400007FB06F40CFB06F504EB15464FEA961676
:100D500034BF00204FF000404FEAD13706FB07FCBC
:100D60004FEA1C4C0CFB0BF7D21B03FB0CF761EB9F
:100D700007010CFB0EF7B0EB074072EB17420CFBC0
:100D800008F734BFA2EB0742B2EB074261EB174111
:100D90004FEA0C444FEA910706FB07FC4FEA1C4C54
:100DA0000CFB0BF7B0EBC74072EB573203FB0CF7B1
:100DB00034BFA2EBC742B2EBC74261EB57310CFB29
:100DC0000EF7B0EBC70072EB57720CFB08F734BF9D
:100DD000A2EBC702B2EBC70261EB5771039F4FEA68
:100DE000816141EA921104EBCC044FEAD1374FEA1A
:100DF000826206FB07FC42EA90124FEA80604FEAEB
:100E00001C4C0CFB0BF7D21B03FB0CF761EB07012F
:100E10000CFB0EF7B0EB074072EB17420CFB08F728
:100E200034BFA2EB0742B2EB074261EB17414FEA36
:100E30008C554FEA910704EB9C2406FB07FC4FEA14
:100E40001C4C0CFB0BF7B0EBC74072EB573203FBAB
:100E50000CF734BFA2EBC742B2EBC74261EB57318C
:100E60000CFB0EF7B0EBC70072EB57720CFB08F7E8
:100E700034BFA2EBC702B2EBC70261EB577115EBAF
:100E80004C254FEA816141EA92114FEA82624FEAB2
:100E9000D13742EA901206FB07FC44F100044FEA06
:100EA00080604FEA1C4C0CFB0BF7D21B03FB0CF7CA
:100EB00061EB07010CFB0EF7B0EB074072EB17423A
:100EC0000CFB08F734BFA2EB0742B2EB074261EB21
:100ED000174115EB1C154FEA813141EA92414FEA67
:100EE000823242EA90424FEA80304FEA0C7644F177
:100EF000000448EA03434EEA0B484FF0000EB2EB01
:100F0000080C71EB030724BF624639464EEB0E0E08
:100F10004FF0000B0018524149414BEB0B0BB2EB69
:100F2000080C71EB03077BF1000B24BF62463946C6
:100F30004EEB0E0E4FF0000B0018524149414BEBA7
:100F40000B0BB2EB080C71EB03077BF1000B24BF1A
:100F5000624639464EEB0E0E51EA020718BF46F0C4
:100F6000010616EB0E7655F1000254F1000103D58F
:100F7000BDE88901BDE80088BDE88901BDE80048F9
:100F8000B619524141EB0101A3F101037047808082
:100F90007F7E7D7C7B7A79787776767574737271D3
:100FA00071706F6E6E6D6C6C6B6A6A69686867668B
:100FB00066656464636362616160605F5F5E5E5D1D
:100FC0005D5C5C5B5B5A5A59595858575756565591
:100FD00055555454535352525251515050504F4FF3
:100FE0004F4E4E4D4D4D4C4C4C4B4B4B4A4A4A4943
:100FF0004949484848474747474646464545454486
:101000004444444343434342424242414141002B12
:101010009C4630D477002BD01CB54FEA370703B479
:101020004FF010004FF01001BAF1000F06D0BCF1E4
:10103000000FDCBF40F0080040F008014FF0000056
:101040000FBCBDE810400BF1010BBBF1010F08BF55
:101050005FEA170722BF12F1010211F101014FF0FF
:10106000004143F1000300F0004043EA00007047F4
:10107000F9D35708D0E746EA064613F1400F4FEA86
:1010800016461FDD13F1200FDFBF16430A4600216D
:1010900020335B42BED0C3F1200746EA064602FA7F
:1010A00007F74FEA164646EA0706C3F1200722FA79
:1010B00003F201FA07F721FA03F14FF0000342EAC5
:1010C0000702A7E746EA020646EA06464FEA164640
:1010D00046EA0106BCBF46EA0646360C4FF000035E
:1010E0004FF000024FF0000194E72DE9804C9A4642
:1010F000934670B491E8380007C831EA400C48BF05
:1011000034EA430C03D5FFF7E6FDFFF780FFF0BCA0
:10111000BDE8008C2DE9804C9A46934670B491E866
:10112000380007C810F0804F08BF13F0804F03D17C
:1011300000F005F8FFF76BFFF0BCBDE8008C20F075
:101140007F4780EA030023F07F4C07EB0C03A3F5F5
:101150007C5300F00040A3F1FE0392F0000F00F07A
:10116000B38095F0000F00F077802DE901494FEA38
:1011700011404FEA144621EA004800FB06FC24EA2D
:10118000064708FB06F607FB08F800FB07F718EB15
:1011900006484CEB164C4FEA124B18EB07484FEA47
:1011A00015464CEB174022EA0B4E0BFB06FC25EADA
:1011B00006470EFB06F607FB0EFE0BFB07F71EEBC2
:1011C000064E4CEB164C4FF000061EEB074E4CEB58
:1011D000174B18EB0B0840F1000018EB0E0B58EB07
:1011E000000840F100008F1A4FF000013CBFC943D6
:1011F000661B14BFB5EB040C00213CBFC943F61BB2
:101200004FEA17444EEA8E0E27EA04454FEA1C4780
:1012100004FB07622CEA074C05FB07F70CFB05F6FD
:1012200004FB0CFC16EB074642EB174216EB0C4690
:1012300042EB1C421BEB060658EB0202414146EA18
:101240009E0601D5BDE80189B619524141EB010165
:10125000A3F10103BDE801894FEA14454FEA1147A4
:1012600024EA054621EA074C05FB07F406FB07F7CD
:101270000CFB06F105FB0CFC11EB074144EB17449A
:101280004FEA124711EB0C4144EB1C4422EA074C95
:1012900005FB07F206FB07F70CFB06F605FB0CFC4B
:1012A00016EB074642EB174216EB0C4642EB1C4589
:1012B0006A1854F1000148BF7047B619524141EB1A
:1012C0000101A3F10103704795F0000F37D04FEAF9
:1012D00011424FEA144721EA024624EA074C02FB76
:1012E00007F106FB07F70CFB06F402FB0CFC14EB02
:1012F000074441EB17414FEA154714EB0C4441EB0F
:101300001C4125EA074C02FB07F506FB07F70CFB1F
:1013100006F602FB0CFC16EB074645EB174516EBF1
:101320000C4645EB1C42121951F1000148BF7047B1
:10133000B619524141EB0101A3F1010370474FEA95
:1013400014454FEA114724EA054621EA074C05FBFC
:1013500007F106FB07F70CFB06F24FF0000605FB52
:101360000CFC12EB074241EB174112EB0C4251EB24
:101370001C4148BF7047921841EB0101A3F10103E2
:10138000704721B1826842F00102826003E0826806
:1013900022F0010282607047014600208A6802F054
:1013A00004020AB1012000E0002070470146C86C29
:1013B00080B270470246002013680B400BB1012039
:1013C00000E000207047014600208A6802F0080211
:1013D0000AB1012000E000207047000030B502464D
:1013E0000020002350680F4C20400D790C6844EA1F
:1013F00005242043506090680B4C2040D1E90254F2
:101400002C434D7944EA450420439060D06A20F48F
:1014100070000C7C641EE4B2234340EA0350D062A7
:1014200030BD0000FFFEF0FFFDF7F1FFF0B5044610
:101430000D4600200021092D11DDE068A5F10A0606
:1014400006EB4607072606FA07F18843A5F10A06C8
:1014500006EB460603FA06F10843E0600CE020695B
:1014600005EB4507072606FA07F1884305EB450615
:1014700003FA06F108432061072A0FDA606B561E53
:1014800006EB86071F2606FA07F18843561E06EB71
:10149000860605FA06F10843606322E00D2A0FDA9A
:1014A000206BD61F06EB86071F2606FA07F1884336
:1014B000D61F06EB860605FA06F10843206310E006
:1014C000E06AA2F10D0606EB86071F2606FA07F171
:1014D0008843A2F10D0606EB860605FA06F10843DD
:1014E000E062F0BD816841F008018160704721B180
:1014F000826842F4A002826003E0826822F4A002C3
:1015000082607047816841F004018160704700008B
:1015100030B10749096841F40001054A116005E04E
:101520000349096821F40001014A11607047000075
:10153000082401402DE9F041024600250026002044
:1015400000230024002791F803C00CF00F0591F848
:1015500003C00CF0100CBCF1000F03D091F802C0D6
:101560004CEA050591F800C0BCF1000F31D01468B9
:1015700000202BE04FF0010C0CFA00F3B1F800C092
:101580000CEA03069E4220D183004FF00F0C0CFAA8
:1015900003F7BC4305FA03FC4CEA040491F803C0CA
:1015A000BCF1280F06D14FF0010C0CFA00FCC2F878
:1015B00014C00AE091F803C0BCF1480F05D14FF008
:1015C000010C0CFA00FCC2F810C0401C0828D1D352
:1015D0001460B1F800C0BCF1FF0F34DD5468002086
:1015E0002EE000F1080C4FF0010808FA0CF3B1F8F6
:1015F00000C00CEA03069E4221D183004FF00F0C7D
:101600000CFA03F7BC4305FA03FC4CEA040491F816
:1016100003C0BCF1280F05D100F1080C08FA0CF842
:10162000C2F8148091F803C0BCF1480F07D100F153
:10163000080C4FF0010808FA0CF8C2F81080401CA2
:101640000828CED35460BDE8F08141617047016144
:101650007047000029B1064A92690243044B9A611F
:1016600004E0034A92698243014B9A61704700008B
:101670000010024070B50021002300240022002544
:101680002C4E766806F00C0121B1042905D00829FA
:1016900021D105E0284E066020E0274E06601DE0BF
:1016A000244E766806F47013224E766806F4803471
:1016B000022606EB93431CB9204E5E43066009E008
:1016C0001C4EF66A06F00F06751C1B4EB6FBF5F6AF
:1016D0005E43066002E0184E066000BF00BF154E74
:1016E000766806F0F0010909154E725C0668D6406E
:1016F0004660104E766806F4E061090A104E725C8E
:101700004668D64086600B4E766806F46051C90A7A
:101710000B4E725C4668D640C660064E766806F48C
:101720004041890B074E725CC668B6FBF2F6066153
:1017300070BD00000010024000127A0000093D0058
:101740000E0000201E00002010B500F001F810BDB2
:101750000CB50020019000902A48006840F48030C9
:101760002849086000BF2748006800F40030009056
:101770000198401C0190009818B90198B0F5A06F2D
:10178000F1D12048006800F4003010B10120009031
:1017900001E0002000900098012831D119484068EC
:1017A00018494860084640684860084640684860F4
:1017B0000846406820F47C1048600846406840F4C1
:1017C000981048600846006840F08070086000BFCC
:1017D0000C48006800F000700028F9D00948406803
:1017E00020F00300074948600846406840F00200C6
:1017F000486000BF0348406800F00C000828F9D199
:101800000CBD00000010024010B51448006840F004
:1018100001001249086008464068114908400F4914
:101820004860084600680F4908400C4908600846AF
:10183000006820F4802008600846406820F4FE001C
:1018400048604FF41F0088600020C862FFF77CFFEB
:101850004FF000600449086010BD00000010024015
:101860000000FFF8FFFFF6FE08ED00E021B18289DD
:1018700042F40052828104E082894DF6FF731A40DF
:10188000828170472DE9F04786B005460E46002458
:10189000A24600BFA1460027B08900B100BF2F4675
:1018A0002C8A4CF6FF700440F08804432C82AC89EB
:1018B0004EF6F3100440B08831890843718908431B
:1018C0000443AC81AC8A4FF6FF400440B089044326
:1018D000AC8201A8FFF7CEFE1F48874202D1DDF897
:1018E00010A001E0DDF80CA0A88900F4004040B190
:1018F0000AEBCA0000EB0A1031684900B0FBF1F8AE
:1019000007E00AEBCA0000EB0A1031688900B0FB5F
:10191000F1F86420B8FBF0F004012009642101FB18
:101920001089A88900F4004040B1322000EBC900C2
:10193000B0FBF1F000F00700044308E0322000EBB8
:1019400009106421B0FBF1F000F00F0004432C817A
:1019500006B0BDE8F087000000380140C1F308027E
:1019600082807047490050EAC12018BF04204A0D08
:1019700018BF40F0010040F2FF72B2EB515F08BFA8
:1019800040F00200012808BF0520704730380A28BF
:1019900001D20120704700207047000000B585B0DB
:1019A00001214802FFF756FE00208DF80500039044
:1019B0004FF4602002900020009001208DF810006C
:1019C0008DF8040069460F48FFF708FD0120FFF776
:1019D0009FFD01210B48FFF7D4FC0A48FFF782FD69
:1019E00000BF0848FFF7EFFC0028FAD10548FFF7D1
:1019F00089FD00BF0348FFF7CFFC0028FAD105B0EE
:101A000000BD00000024014000BF011EA0F1010044
:101A1000FBD1704708B501211020FFF71BFE012103
:101A20000420FFF717FE10208DF803004FF4E0604C
:101A3000ADF8000003208DF8020069461248FFF758
:101A400079FD00208DF803000320ADF80000694601
:101A50000E48FFF76FFD18208DF803004FF400705B
:101A6000ADF8000003208DF8020069460748FFF733
:101A700061FD04208DF803000002ADF80000694606
:101A80000248FFF757FD08BD001001400008014063
:101A90001FB5FFF7BFFFFFF781FF00F027F988E0D0
:101AA00000F004F94FF47A60FFF7AEFF00F0DEF8C3
:101AB0004FF47A60FFF7A8FF00F0B8F84FF47A60AF
:101AC000FFF7A2FF3B48008800F0DCFB804600F0F7
:101AD00089FA0646384A394B00F086F9044600F088
:101AE00051F93749086008460168364800F028FC7B
:101AF0000546354900F004FB0446344900F09EFADF
:101B0000334908604FF4C870FFF77EFF3048006823
:101B100000F068FACDE902012648008800902D48BF
:101B200003882D4802882DA13C48FEF777FB3B48EF
:101B300000F0FCF83A48FFF767FF2648008840F2BB
:101B4000DC5188420ADA4FF480713648FFF77FFD96
:101B50004FF4C0613348FFF778FD2AE01D48008844
:101B600040F2DC5188420FDB1A4800884900884265
:101B70000ADA4FF400712B48FFF769FD4FF4A061BA
:101B80002848FFF762FD14E01248008840F6B8319B
:101B900088420ADB4FF480612248FFF758FD4FF47A
:101BA00040712048FFF751FD03E007211E48FFF771
:101BB0004CFD75E70C000020B4D934E70C684A3FAF
:101BC000000000205C8FC23F04E78C3B0000C8414E
:101BD00004000020080000200A000020504F54207C
:101BE0003D202564207C7C204C4452203D202564EF
:101BF000207C7C2054454D50203D202564207C7C59
:101C0000202054656D7065726174757265203D2089
:101C100025302E3166200D0A00000000240000202F
:101C200060AE0A0000100140000C014010B5042312
:101C3000012211460B48FFF7F9FB01210948FFF784
:101C400056FC00BF02210748FFF7B4FB0028F9D07B
:101C50000448FFF7ABFB0449088000210148FFF767
:101C600046FC10BD002401400800002010B50323ED
:101C7000012200210B48FFF7D9FB01210948FFF79A
:101C800036FC00BF02210748FFF794FB0028F9D07B
:101C90000448FFF78BFB0449088000210148FFF747
:101CA00026FC10BD002401400A00002010B50523C9
:101CB000012210210B48FFF7B9FB01210948FFF76A
:101CC00016FC00BF02210748FFF774FB0028F9D07B
:101CD0000448FFF76BFB0449088000210148FFF727
:101CE00006FC10BD002401400C0000201FB501219E
:101CF0008803FFF7AFFC4FF4165000900020ADF8BA
:101D00000C000C20ADF80A000020ADF80800ADF87A
:101D10000600ADF8040069460348FFF7B3FD012152
:101D20000148FFF7A3FD1FBD0038014010B5044670
:101D30000BE000BF0748008800F040000028F9D001
:101D400021780448FFF70AFE641C20780028F0D1AF
:101D500010BD00000038014010B500290AD00878F5
:101D6000002807D005487844FEF7FCFE002801D083
:101D7000002010BD0248784410BD00008E0700000E
:101D80008607000021F00042A2F16052B2F5801FE8
:101D900001F0004328BFD2F17F6C0BD95FEA001C31
:101DA00043EAC20242EB507018BF704728BF20F0D0
:101DB00001007047B2F5801FBCBF184670474FEA5C
:101DC000410C1CF5001F02D2084600F0B4BA70B5F1
:101DD00000F0B4F800000089FFF7F6BF4FF00040B4
:101DE000A0F5800070470000DFF848C170B51CEA1C
:101DF000111E1EBF1CEA13159EEA0C0F95EA0C0F6C
:101E000000F06F8081EA030423EA4C134EEAD47E8B
:101E100021EA4C1141F4801143F48013AE44A1FB3C
:101E2000024CA0FB0365AEF17F7E361955EB0C0525
:101E3000A1FB034C4CF10003A0FB021C16EB0C06AB
:101E4000654153F10003094218BF46F0010613F43F
:101E5000007F0BD14FEA03314FEA0530340341EAEA
:101E6000155140EA16506FF003020AE04FEAC32111
:101E70004FEAC520F40241EA555140EA56506FF04E
:101E8000020202EB2E4201EB025585EACE710AD026
:101E90005FEA440C18BF24F0004450F1000041F107
:101EA000000120EAD47040F2FE7C624500D270BD91
:101EB000A84214BF4FF080444FF04044002E08BFAA
:101EC0000024BEF1806FA8BFA1F1C041BDE8704001
:101ED00080F282804FF0000001F1C04101F000412A
:101EE00070479EEA0C0F0CEA131518BF95EA0C0F09
:101EF00006D04FF0000081EA030E0EF0004170BDE5
:101F000000F01CF88900013E00F007B800F009B8A5
:101F10004FEA430C5FEA5C5C08D081EA030100F001
:101F20005BB84FEA410C5FEA5C5CF6D14FF0000011
:101F3000014970470000FF070000F87F0EF1020E14
:101F40002EF0030E5EF8046B364205D4012A43EBF3
:101F5000030515F5001F12D8012841EB010C1CF5F3
:101F6000001F0CD80ED14FEAD17C15F5001F0CEBE9
:101F70004C0C0CF1020C08BF4CEBD37C04E04FF08E
:101F8000080C01E04FEAD37C0CEB4C0526FA05F671
:101F900006F00706B6F1040C06D20EEB860CBDE87F
:101FA00070404CF0010C6047DFE80CF0090B0202B6
:101FB0004FF000414FF00000A1F5002170BD19461F
:101FC0001046012851EB010418BFD4F5001484BF5A
:101FD000002001F0004170BD0808A0F500114FEA93
:101FE0003101704743004FEAD30C4FEA3C0C4340A9
:101FF0001FBF40070CF1605113F0FE4F70471CF0FB
:10200000006F03D100200CF0004170470CF000433A
:1020100043EA507010B540EACC0000F046F900BF2A
:10202000000000924FEA0001FFF7D6BF4FF00041D9
:102030004FF00000A1F500217047000090EA010F69
:1020400048BF81F0004100F18281421A3CBF801AF2
:1020500089184FEAD0524FF07F4C1CEA410FA2EB97
:10206000D15318BF9CEA026F00F03B804FF0004C48
:102070004CEA00204CEA012121FA03FC10EB0C0C85
:102080001ED202F1FF325FEA1C2040EBC25038BF83
:1020900070471CF07F0F4FEA400C18BFBCF17F4F18
:1020A00038BF7047C3F12003994008BF20F00100FA
:1020B000BCF17F4F38BF7047A0F1C04000F03BB982
:1020C0004FEA3C00000A40EBC25028BF1CF0FF0F53
:1020D0004FEA400CE6D018BFBCF17F4F38BF7047C5
:1020E000EAE79CEA026F05D010EA5C0F08BF00F037
:1020F0000040704710B500F0D8F800BF64FBBE3E4A
:102100004FF47F0C1CEAD0121EBF1CEAD11392EAD6
:102110000C0F93EA0C0F00F0858090EA010F48BF86
:1021200042F4807240F4000C41F400002CF07F4136
:1021300020F07F4000B58142A2EB03020FF2081CA1
:10214000ACEB504EC0F100009EF800E04FEA4E0E9E
:1021500000FB0EFC38BF49004FEA2C1C02F5FA02C6
:102160000CFB0EF34FEACE1E4FEA112C4FEAC121B1
:102170000EEB635E42EB22420EFB0CFC4FEA1C535B
:1021800000FB03114FEA112C4FEA01310EFB0CFC4E
:102190004FEADC4C00FB0C11C14228BF09184CEB84
:1021A00003335DF804EB10EB410143EBC250B2F591
:1021B0007C0F38BF704729D512F0F00F1CBF00F11B
:1021C000C04000F00040704700818283848586878C
:1021D00088898B8C8D8E8F919293959697999A9CE6
:1021E0009D9FA0A2A3A5A7A8AAACAEB0B2B3B5B755
:1021F000B9BCBEC0C2C5C7C9CCCED1D4D7D9DCDF2B
:10220000E2E6E9ECF0F3F7FAFE0000004FEA400CDA
:102210000CF1807CBCF17E4F28BF7047B0F1C0400C
:1022200000F089B890EA010F0CEAD11348BF42F4DC
:102230008072624538BF634507D213F47F0F16D012
:1022400080EA010000F00040704710B500F02DF862
:10225000097EFC3E00F005B880EA010000F0004075
:10226000704780EA010000F0004000F064B812F40A
:102270007F0F04BF0248704780EA010000F05BB89E
:102280000000C07FB0FA80F310FA03F2C3F19D039F
:102290000AD0D90501EB1220530638BF704700F170
:1022A000010008BF20F0010070470EF1020E2EF071
:1022B000030E5EF8044B244204D44FEA4102B2F10B
:1022C0007F4F11D84FEA4003B3F17F4F0CD80ED1A6
:1022D0004FEAD07CB2F17F4F0CEB4C0C0CF1020CAE
:1022E00008BF4CEBD17C04E04FF0080C01E04FEA52
:1022F000D17C0CEB4C0324FA03F404F00704B4F192
:10230000040C06D20EEB840CBDE810404CF0010C1E
:102310006047DFE80CF0070802024FF00040A0F52C
:10232000800010BD0846420018BFD2F1807288BFFD
:1023300000F0004010BDFF2141EAD050C0057047B9
:1023400090EA010F48BF81F000413FF57EAE421A8E
:1023500004D882F00042A0EB020011444FEAD052B0
:102360004FF07F4C1CEA410FA2EBD15318BF9CEAFF
:10237000026F4AD04FF0004C4CEA00204CEA012199
:1023800021FA03FCB0EB0C0C0FD412F0FE0F36D088
:102390005FEA4C001DD5001240EBC25038BF7047B9
:1023A0001CF03F0F18BF70470BE0A2F101025FEA7B
:1023B0001C2040EBC25038BF70471CF07F0F18BF85
:1023C0007047C3F12003994014BF401E20F0010064
:1023D000704780084FEA122308BF7047B0FA80FCAC
:1023E000A2EB0C02CCF1280C60FA0CF093EA122F4D
:1023F00004BF00EBC25070474FEAC3707047130A26
:102400005FEADC1008BF7047F6E79CEA026F04D071
:1024100010EA5C0F08BF0020704710B5FFF745FFBA
:1024200040DFF63E81F000407047FEF718B9040027
:102430000008000000000000000200010000100081
:1024400002400000000000A0000000000540000065
:10245000000000C8000000000C4000000000409C8C
:1024600000000000194000000020BCBE0000000079
:1024700034400000BFC91B8E00000004B5400000BE
:10248000504BCFD06607E2CF010000006C41000046
:102490003E8251AADFEEA73401000000D9420000BD
:1024A000DCB5A0E23A301F97FFFFFFFFB445000004
:1024B000FD25A0C8E9A3C14FFFFFFFFFFF3F0000BC
:1024C0000000008000000000FF3F000000000080CE
:1024D000000000001025000800000020240000007B
:1024E0005C01000834250008240000209406000048
:1024F000780100081C00000043000000F8FFFFFF07
:102500000C0000000E0000000F0000002E00000074
:1025100000000000000000000000000000000000BB
:102520000000010203040102030406070809020473
:042530000608000099
:04000005080001DD11
:00000001FF
