:020000040800F2
:100000000020002051050008A1050008A1050008F6
:10001000A1050008A1050008A105000800000000D6
:10002000000000000000000000000000A105000822
:10003000A105000800000000A1050008A1050008B6
:10004000A1050008A1050008A1050008A1050008F8
:10005000A1050008A1050008A1050008A1050008E8
:10006000A1050008A1050008A1050008A1050008D8
:10007000A1050008A1050008A1050008A1050008C8
:10008000A1050008A1050008A10500080000000066
:10009000000000000000000000000000A1050008B2
:1000A000A1050008A1050008A1050008A105000898
:1000B000A1050008A1050008A1050008A105000888
:1000C000A1050008A1050008A1050008A105000878
:1000D000A1050008A1050008A1050008A105000868
:1000E000A1050008A1050008A1050008A105000858
:1000F000A1050008A10500080000000000000000A4
:10010000A105000800000000A1050008A1050008E5
:10011000A1050008A1050008A1050008A105000827
:10012000A1050008A1050008A1050008A105000817
:1001300010B5054C237833B9044B13B10448AFF321
:1001400000800123237010BD00000020000000008B
:10015000EC05000808B5034B1BB103490348AFF396
:10016000008008BD0000000004000020EC0500082D
:1001700080B483B000AF78600B46FB70FB78002B37
:1001800036D07B68384A934206D1384B9B69374A50
:1001900043F00403936161E07B68354A934206D1E2
:1001A000324B9B69314A43F00803936156E07B6808
:1001B000304A934206D12D4B9B692C4A43F01003E1
:1001C00093614BE07B682C4A934206D1274B9B6995
:1001D000264A43F02003936140E07B68274A93421C
:1001E0003CD1224B9B69214A43F04003936135E0A7
:1001F0007B681D4A934206D11C4B9B691B4A23F026
:10020000040393612AE07B68194A934206D1174B95
:100210009B69164A23F0080393611FE07B68154A27
:10022000934206D1114B9B69104A23F0100393614E
:1002300014E07B68104A934206D10C4B9B690B4A31
:1002400023F02003936109E07B680C4A934205D1B7
:10025000064B9B69054A23F04003936100BF0C37AE
:10026000BD4680BC704700BF00080140001002403E
:10027000000C014000100140001401400018014032
:1002800080B485B000AF78600023FB607B689B681A
:1002900003F01003002B06D07B689A687B68DB684C
:1002A0001A437B689A607B685B68072B60D87B6821
:1002B0009B68282B1BD17B681B685A697B685B682D
:1002C000012101FA03F3DB4319467B681B680A40EE
:1002D0005A617B681B685A697B685B68012101FA77
:1002E00003F319467B681B680A435A611EE07B686A
:1002F0009B68482B1AD17B681B681A697B685B680E
:10030000012101FA03F3DB4319467B681B680A40AD
:100310001A617B681B681A697B685B68012101FAB6
:1003200003F319467B681B680A431A617B689B6864
:1003300003F00F027B685B689B0002FA03F3FA6824
:100340001343FB607B681B681A687B685B680F213E
:1003500001FA03F3DB4319467B681B680A401A6005
:100360007B681B6819687B681B68FA680A431A6017
:100370007B685B68072B63D90023FB607B689B6805
:10038000282B1BD17B681B685A697B685B6801213D
:1003900001FA03F3DB4319467B681B680A405A6184
:1003A0007B681B685A697B685B68012101FA03F36B
:1003B00019467B681B680A435A611EE07B689B688C
:1003C000482B1AD17B681B681A697B685B6801211E
:1003D00001FA03F3DB4319467B681B680A401A6184
:1003E0007B681B681A697B685B68012101FA03F36B
:1003F00019467B681B680A431A617B689B6803F097
:100400000F027B685B68083B9B0002FA03F3FA6803
:100410001343FB607B681B685A687B685B680F212D
:1004200001FA03F3DB4319467B681B680A405A60F4
:100430007B681B6859687B681B68FA680A435A60C6
:1004400000BF1437BD4680BC704780B485B000AF94
:1004500078600B46FB700023FB737B689A68FB781F
:1004600022FA03F3DBB203F00103FB73FB7B1846B4
:100470001437BD4680BC704780B483B000AF78604D
:100480000B46FB707B68DB68FA78012101FA02F207
:100490005A407B68DA6000BF0C37BD4680BC7047AD
:1004A00080B588B000AF114B3B611023BB610A23BC
:1004B0007B610223FB6101210C48FFF759FE07F124
:1004C00010031846FFF7DCFE094B3B602823BB6096
:1004D00000237B6001210648FFF74AFE3B46184691
:1004E000FFF7CEFE00BF2037BD4680BD00100140A3
:1004F0000008014080B483B000AF786000BF7B6823
:100500005A1E7A60002BFAD100BF00BF0C37BD46DF
:1005100080BC704780B582B000AFFFF7C1FF0023F9
:100520007B6000210748FFF790FF03467B607B68F4
:10053000002BF6D00448FFF7DDFF0A210348FFF740
:100540009BFFEEE70008014020A1070000100140DA
:100550000D488546AFF300800C480D490D4A002335
:1005600002E0D458C4500433C4188C42F9D30A4A68
:100570000A4C002301E013600432A242FBD300F0D6
:1005800011F8FFF7C7FFFEE7002000200000002061
:10059000000000200C060008000000201C000020C5
:1005A000FEE7000070B500260C4D0D4C641BA41036
:1005B000A64209D100F01AF800260A4D0A4C641B25
:1005C000A410A64205D170BD55F8043B98470136EA
:1005D000EEE755F8043B98470136F2E704060008B9
:1005E000040600080406000808060008F8B500BF65
:1005F000F8BC08BC9E467047F8B500BFF8BC08BC04
:040600009E4670475B
:040604005501000894
:0406080031010008B4
:040000050800055199
:00000001FF
